{
  "_format": "hh-sol-artifact-1",
  "contractName": "CarbonMarketplace",
  "sourceName": "contracts/CarbonCycle.sol",
  "abi": [
    {
      "inputs": [
        {
          "internalType": "uint256",
          "name": "_retiredProjectId",
          "type": "uint256"
        },
        {
          "internalType": "string",
          "name": "_certificateCID",
          "type": "string"
        }
      ],
      "name": "addRetirementCertificate",
      "outputs": [],
      "stateMutability": "nonpayable",
      "type": "function"
    },
    {
      "inputs": [
        {
          "internalType": "uint256",
          "name": "_projectId",
          "type": "uint256"
        },
        {
          "internalType": "uint256",
          "name": "_quantity",
          "type": "uint256"
        }
      ],
      "name": "buyProject",
      "outputs": [],
      "stateMutability": "payable",
      "type": "function"
    },
    {
      "inputs": [
        {
          "internalType": "address",
          "name": "_seller",
          "type": "address"
        }
      ],
      "name": "getListedProjects",
      "outputs": [
        {
          "components": [
            {
              "internalType": "uint256",
              "name": "projectId",
              "type": "uint256"
            },
            {
              "internalType": "string",
              "name": "externalId",
              "type": "string"
            },
            {
              "internalType": "string",
              "name": "projectName",
              "type": "string"
            },
            {
              "internalType": "string",
              "name": "documentCID",
              "type": "string"
            },
            {
              "internalType": "string",
              "name": "certificateCID",
              "type": "string"
            },
            {
              "internalType": "uint256",
              "name": "valuePerCarbon",
              "type": "uint256"
            },
            {
              "internalType": "uint256",
              "name": "quantity",
              "type": "uint256"
            },
            {
              "internalType": "string",
              "name": "ownerName",
              "type": "string"
            },
            {
              "internalType": "address",
              "name": "ownerAddress",
              "type": "address"
            },
            {
              "internalType": "uint256",
              "name": "createdAt",
              "type": "uint256"
            },
            {
              "internalType": "bool",
              "name": "isResold",
              "type": "bool"
            },
            {
              "internalType": "enum CarbonMarketplace.ProjectStatus",
              "name": "status",
              "type": "uint8"
            },
            {
              "internalType": "uint256",
              "name": "marketplaceIndex",
              "type": "uint256"
            }
          ],
          "internalType": "struct CarbonMarketplace.Project[]",
          "name": "",
          "type": "tuple[]"
        }
      ],
      "stateMutability": "view",
      "type": "function"
    },
    {
      "inputs": [],
      "name": "getMarketplace",
      "outputs": [
        {
          "components": [
            {
              "internalType": "uint256",
              "name": "projectId",
              "type": "uint256"
            },
            {
              "internalType": "string",
              "name": "externalId",
              "type": "string"
            },
            {
              "internalType": "string",
              "name": "projectName",
              "type": "string"
            },
            {
              "internalType": "string",
              "name": "documentCID",
              "type": "string"
            },
            {
              "internalType": "string",
              "name": "certificateCID",
              "type": "string"
            },
            {
              "internalType": "uint256",
              "name": "valuePerCarbon",
              "type": "uint256"
            },
            {
              "internalType": "uint256",
              "name": "quantity",
              "type": "uint256"
            },
            {
              "internalType": "string",
              "name": "ownerName",
              "type": "string"
            },
            {
              "internalType": "address",
              "name": "ownerAddress",
              "type": "address"
            },
            {
              "internalType": "uint256",
              "name": "createdAt",
              "type": "uint256"
            },
            {
              "internalType": "bool",
              "name": "isResold",
              "type": "bool"
            },
            {
              "internalType": "enum CarbonMarketplace.ProjectStatus",
              "name": "status",
              "type": "uint8"
            },
            {
              "internalType": "uint256",
              "name": "marketplaceIndex",
              "type": "uint256"
            }
          ],
          "internalType": "struct CarbonMarketplace.Project[]",
          "name": "",
          "type": "tuple[]"
        }
      ],
      "stateMutability": "view",
      "type": "function"
    },
    {
      "inputs": [
        {
          "internalType": "address",
          "name": "_owner",
          "type": "address"
        }
      ],
      "name": "getOwnedProjects",
      "outputs": [
        {
          "components": [
            {
              "internalType": "uint256",
              "name": "projectId",
              "type": "uint256"
            },
            {
              "internalType": "string",
              "name": "externalId",
              "type": "string"
            },
            {
              "internalType": "string",
              "name": "projectName",
              "type": "string"
            },
            {
              "internalType": "string",
              "name": "documentCID",
              "type": "string"
            },
            {
              "internalType": "string",
              "name": "certificateCID",
              "type": "string"
            },
            {
              "internalType": "uint256",
              "name": "valuePerCarbon",
              "type": "uint256"
            },
            {
              "internalType": "uint256",
              "name": "quantity",
              "type": "uint256"
            },
            {
              "internalType": "string",
              "name": "ownerName",
              "type": "string"
            },
            {
              "internalType": "address",
              "name": "ownerAddress",
              "type": "address"
            },
            {
              "internalType": "uint256",
              "name": "createdAt",
              "type": "uint256"
            },
            {
              "internalType": "bool",
              "name": "isResold",
              "type": "bool"
            },
            {
              "internalType": "enum CarbonMarketplace.ProjectStatus",
              "name": "status",
              "type": "uint8"
            },
            {
              "internalType": "uint256",
              "name": "marketplaceIndex",
              "type": "uint256"
            }
          ],
          "internalType": "struct CarbonMarketplace.Project[]",
          "name": "",
          "type": "tuple[]"
        }
      ],
      "stateMutability": "view",
      "type": "function"
    },
    {
      "inputs": [
        {
          "internalType": "address",
          "name": "_owner",
          "type": "address"
        }
      ],
      "name": "getRetiredProjects",
      "outputs": [
        {
          "components": [
            {
              "internalType": "uint256",
              "name": "projectId",
              "type": "uint256"
            },
            {
              "internalType": "string",
              "name": "externalId",
              "type": "string"
            },
            {
              "internalType": "string",
              "name": "projectName",
              "type": "string"
            },
            {
              "internalType": "string",
              "name": "documentCID",
              "type": "string"
            },
            {
              "internalType": "string",
              "name": "certificateCID",
              "type": "string"
            },
            {
              "internalType": "uint256",
              "name": "valuePerCarbon",
              "type": "uint256"
            },
            {
              "internalType": "uint256",
              "name": "quantity",
              "type": "uint256"
            },
            {
              "internalType": "string",
              "name": "ownerName",
              "type": "string"
            },
            {
              "internalType": "address",
              "name": "ownerAddress",
              "type": "address"
            },
            {
              "internalType": "uint256",
              "name": "createdAt",
              "type": "uint256"
            },
            {
              "internalType": "bool",
              "name": "isResold",
              "type": "bool"
            },
            {
              "internalType": "enum CarbonMarketplace.ProjectStatus",
              "name": "status",
              "type": "uint8"
            },
            {
              "internalType": "uint256",
              "name": "marketplaceIndex",
              "type": "uint256"
            }
          ],
          "internalType": "struct CarbonMarketplace.Project[]",
          "name": "",
          "type": "tuple[]"
        }
      ],
      "stateMutability": "view",
      "type": "function"
    },
    {
      "inputs": [
        {
          "internalType": "address",
          "name": "",
          "type": "address"
        },
        {
          "internalType": "uint256",
          "name": "",
          "type": "uint256"
        }
      ],
      "name": "listedProjects",
      "outputs": [
        {
          "internalType": "uint256",
          "name": "",
          "type": "uint256"
        }
      ],
      "stateMutability": "view",
      "type": "function"
    },
    {
      "inputs": [
        {
          "internalType": "uint256",
          "name": "",
          "type": "uint256"
        }
      ],
      "name": "marketplace",
      "outputs": [
        {
          "internalType": "uint256",
          "name": "",
          "type": "uint256"
        }
      ],
      "stateMutability": "view",
      "type": "function"
    },
    {
      "inputs": [],
      "name": "nextProjectId",
      "outputs": [
        {
          "internalType": "uint256",
          "name": "",
          "type": "uint256"
        }
      ],
      "stateMutability": "view",
      "type": "function"
    },
    {
      "inputs": [
        {
          "internalType": "address",
          "name": "",
          "type": "address"
        },
        {
          "internalType": "uint256",
          "name": "",
          "type": "uint256"
        }
      ],
      "name": "ownedProjects",
      "outputs": [
        {
          "internalType": "uint256",
          "name": "",
          "type": "uint256"
        }
      ],
      "stateMutability": "view",
      "type": "function"
    },
    {
      "inputs": [
        {
          "internalType": "uint256",
          "name": "",
          "type": "uint256"
        }
      ],
      "name": "projects",
      "outputs": [
        {
          "internalType": "uint256",
          "name": "projectId",
          "type": "uint256"
        },
        {
          "internalType": "string",
          "name": "externalId",
          "type": "string"
        },
        {
          "internalType": "string",
          "name": "projectName",
          "type": "string"
        },
        {
          "internalType": "string",
          "name": "documentCID",
          "type": "string"
        },
        {
          "internalType": "string",
          "name": "certificateCID",
          "type": "string"
        },
        {
          "internalType": "uint256",
          "name": "valuePerCarbon",
          "type": "uint256"
        },
        {
          "internalType": "uint256",
          "name": "quantity",
          "type": "uint256"
        },
        {
          "internalType": "string",
          "name": "ownerName",
          "type": "string"
        },
        {
          "internalType": "address",
          "name": "ownerAddress",
          "type": "address"
        },
        {
          "internalType": "uint256",
          "name": "createdAt",
          "type": "uint256"
        },
        {
          "internalType": "bool",
          "name": "isResold",
          "type": "bool"
        },
        {
          "internalType": "enum CarbonMarketplace.ProjectStatus",
          "name": "status",
          "type": "uint8"
        },
        {
          "internalType": "uint256",
          "name": "marketplaceIndex",
          "type": "uint256"
        }
      ],
      "stateMutability": "view",
      "type": "function"
    },
    {
      "inputs": [
        {
          "internalType": "string",
          "name": "_externalId",
          "type": "string"
        },
        {
          "internalType": "string",
          "name": "_projectName",
          "type": "string"
        },
        {
          "internalType": "string",
          "name": "_documentCID",
          "type": "string"
        },
        {
          "internalType": "uint256",
          "name": "_valuePerCarbon",
          "type": "uint256"
        },
        {
          "internalType": "uint256",
          "name": "_quantity",
          "type": "uint256"
        },
        {
          "internalType": "string",
          "name": "_ownerName",
          "type": "string"
        }
      ],
      "name": "registerProject",
      "outputs": [],
      "stateMutability": "nonpayable",
      "type": "function"
    },
    {
      "inputs": [
        {
          "internalType": "uint256",
          "name": "_ownedProjectId",
          "type": "uint256"
        },
        {
          "internalType": "uint256",
          "name": "_quantity",
          "type": "uint256"
        },
        {
          "internalType": "uint256",
          "name": "_newValuePerCarbon",
          "type": "uint256"
        },
        {
          "internalType": "string",
          "name": "_newExternalId",
          "type": "string"
        },
        {
          "internalType": "string",
          "name": "_ownerName",
          "type": "string"
        }
      ],
      "name": "resellProject",
      "outputs": [],
      "stateMutability": "nonpayable",
      "type": "function"
    },
    {
      "inputs": [
        {
          "internalType": "uint256",
          "name": "_ownedProjectId",
          "type": "uint256"
        },
        {
          "internalType": "uint256",
          "name": "_quantity",
          "type": "uint256"
        }
      ],
      "name": "retireProject",
      "outputs": [],
      "stateMutability": "nonpayable",
      "type": "function"
    },
    {
      "inputs": [
        {
          "internalType": "address",
          "name": "",
          "type": "address"
        },
        {
          "internalType": "uint256",
          "name": "",
          "type": "uint256"
        }
      ],
      "name": "retiredProjects",
      "outputs": [
        {
          "internalType": "uint256",
          "name": "",
          "type": "uint256"
        }
      ],
      "stateMutability": "view",
      "type": "function"
    }
  ],
  "bytecode": "0x60808060405234601e57600160005560018055611e1f90816100248239f35b600080fdfe608080604052600436101561001357600080fd5b60003560e01c9081630d21bcd51461103557508063107046bd14610efd5780632c8a842514610eb357806354686d6014610e39578063634b9f0414610be05780638d50526314610b665780639914d34d14610b1c5780639b2788e61461093c578063b14bf04014610746578063b8c6d9ea146106b7578063d900175f1461068e578063e82128fe14610635578063e935b7b114610617578063ea6d685d1461029f5763ff6c7702146100c457600080fd5b3461029a5760c036600319011261029a576004356001600160401b03811161029a576100f49036906004016113b7565b6024356001600160401b03811161029a576101139036906004016113b7565b906044356001600160401b03811161029a576101339036906004016113b7565b906064359260843560a4356001600160401b03811161029a5761015a9036906004016113b7565b9085156102555780156102105761020e956101dd956000946040519661017f8861125c565b86885260208801526040870152606086015260405161019f602082611278565b848152608086015260a085015260c084015260e0830152336101008301524261012083015280610140830152806101608301526101808201526117c9565b600654816000526002602052600b604060002001556101fb81611484565b33600052600460205260406000206114a9565b005b60405162461bcd60e51b815260206004820152601f60248201527f5175616e74697479206d7573742062652067726561746572207468616e2030006044820152606490fd5b60405162461bcd60e51b815260206004820152601c60248201527f56616c7565206d7573742062652067726561746572207468616e2030000000006044820152606490fd5b600080fd5b6102a8366113fe565b906001600054036105e1576000805580600052600260205260ff600a6040600020015460081c1660038110156105cb5761058f5781151580610574575b6102ee90611581565b806000526002602052600560406000200154828102908082048414901517156104e057340361053b5780600052600260205260018060a01b036008604060002001541633146104f65780600052600260205260406000209161035560068401918254611477565b809155156103ef575b506008015460009081908190819034906001600160a01b03165af13d156103ea573d6103898161139c565b906103976040519283611278565b8152600060203d92013e5b156103ae576001600055005b60405162461bcd60e51b81526020600482015260146024820152732330b4b632b2103a379039b2b7321022ba3432b960611b6044820152606490fd5b6103a2565b90816000526002602052600b6040600020015460065460001981019081116104e057808203610492575b5050600654801561047c57600080939261047382948394841901610452610441826006611384565b8154906000199060031b1b19169055565b60065560088301546001600160a01b03168452600460205260408420611d6c565b9350505061035e565b634e487b7160e01b600052603160045260246000fd5b61049b90611353565b90549060031b1c6104c8816104af84611353565b90919082549060031b91821b91600019901b1916179055565b6000526002602052600b604060002001558280610419565b634e487b7160e01b600052601160045260246000fd5b60405162461bcd60e51b815260206004820152601c60248201527f4f776e65722063616e6e6f7420627579206f776e2070726f6a656374000000006044820152606490fd5b60405162461bcd60e51b8152602060048201526011602482015270125b98dbdc9c9958dd081c185e5b595b9d607a1b6044820152606490fd5b506000818152600260205260409020600601548211156102e5565b60405162461bcd60e51b815260206004820152601460248201527350726f6a656374206e6f7420666f722073616c6560601b6044820152606490fd5b634e487b7160e01b600052602160045260246000fd5b60405162461bcd60e51b815260206004820152600e60248201526d1499595b9d1c985b9d0818d85b1b60921b6044820152606490fd5b3461029a57600036600319011261029a576020600154604051908152f35b3461029a57604036600319011261029a5761064e61133d565b6001600160a01b031660009081526003602052604090208054602435919082101561029a5760209161067f91611384565b90549060031b1c604051908152f35b3461029a57602036600319011261029a5760043560065481101561029a5761067f602091611353565b3461029a57602036600319011261029a576001600160a01b036106d861133d565b166000526005602052604060002060405190816020825491828152019160005260206000209060005b8181106107305761072c6107208661071b81880382611278565b6115eb565b604051918291826110f9565b0390f35b8254845260209093019260019283019201610701565b3461029a5760a036600319011261029a576004356024356044356064356001600160401b03811161029a5761077f9036906004016113b7565b906084356001600160401b03811161029a5761079f9036906004016113b7565b6000858152600260205260409020600801549092906001600160a01b0316331480610912575b6107ce9061142b565b831515806108f7575b6107e090611581565b81156108c25761089b926101dd92866000526002602052604060002091600683019661080d818954611477565b885560098401549261082d600361082660028801611299565b9601611299565b6000956040519761083d8961125c565b87895260208901526040880152606087015260405161085d602082611278565b858152608087015260a086015260c085015260e0840152336101008401526101208301526001610140830152806101608301526101808201526117c9565b54156108a357005b6108ad81336117a8565b600052600260205261020e604060002061151b565b60405162461bcd60e51b815260206004820152600d60248201526c496e76616c696420707269636560981b6044820152606490fd5b506000858152600260205260409020600601548411156107d7565b5084600052600260205260ff600a6040600020015460081c1660038110156105cb576001146107c5565b3461029a5761094a366113fe565b6000828152600260205260409020600801546001600160a01b0316331480610af2575b6109769061142b565b80151580610ad7575b15610a93578160005260026020526040600020610a6d610a5b60068301926109a8858554611477565b8455600981015460ff600a8301541690610a2c6007604051946109ca8661125c565b600086526109da60018201611299565b60208701526109eb60028201611299565b60408701526109fc60038201611299565b6060870152602099604051610a118c82611278565b600081526080880152600060a088015260c087015201611299565b60e0840152336101008401526101208301521515610140820152600261016082015260006101808201526117c9565b336000526005845260406000206114a9565b5415610a7557005b81610a82600293336117a8565b6000525261020e604060002061151b565b606460405162461bcd60e51b815260206004820152602060248201527f496e73756666696369656e74206f7220696e76616c6964207175616e746974796044820152fd5b5081600052600260205260066040600020015481111561097f565b5081600052600260205260ff600a6040600020015460081c1660038110156105cb5760011461096d565b3461029a57604036600319011261029a57610b3561133d565b6001600160a01b031660009081526005602052604090208054602435919082101561029a5760209161067f91611384565b3461029a57602036600319011261029a576001600160a01b03610b8761133d565b166000526003602052604060002060405190816020825491828152019160005260206000209060005b818110610bca5761072c6107208661071b81880382611278565b8254845260209093019260019283019201610bb0565b3461029a57604036600319011261029a576024356001600160401b03811161029a57610c109036906004016113b7565b6004356000526002602052604060002060ff600a82015460081c1660038110156105cb57600203610dfb5760088101546001600160a01b03163303610dbe576004018054610c5d81611222565b610d79578251906001600160401b038211610d6357610c7b90611222565b601f8111610d26575b50602092601f8211600114610cc657610cb792938291600092610cbb575b50508160011b916000199060031b1c19161790565b9055005b015190508480610ca2565b601f1982169383600052806000209160005b868110610d0e5750836001959610610cf5575b505050811b019055005b015160001960f88460031b161c19169055838080610ceb565b91926020600181928685015181550194019201610cd8565b610d5390836000526020600020601f840160051c81019160208510610d59575b601f0160051c0190611414565b83610c84565b9091508190610d46565b634e487b7160e01b600052604160045260246000fd5b60405162461bcd60e51b815260206004820152601960248201527f436572746966696361746520616c7265616479206164646564000000000000006044820152606490fd5b60405162461bcd60e51b81526020600482015260156024820152742cb7ba9030b932903737ba103a34329037bbb732b960591b6044820152606490fd5b60405162461bcd60e51b8152602060048201526016602482015275141c9bda9958dd081a5cc81b9bdd081c995d1a5c995960521b6044820152606490fd5b3461029a57602036600319011261029a576001600160a01b03610e5a61133d565b166000526004602052604060002060405190816020825491828152019160005260206000209060005b818110610e9d5761072c6107208661071b81880382611278565b8254845260209093019260019283019201610e83565b3461029a57604036600319011261029a57610ecc61133d565b6001600160a01b031660009081526004602052604090208054602435919082101561029a5760209161067f91611384565b3461029a57602036600319011261029a5760043560005260026020526040600020805460018201610f2d90611299565b91610f3a60028201611299565b610f4660038301611299565b91610f5360048201611299565b92600582015460068301549060078401610f6c90611299565b91600160a01b6001900360088601541696600986015494600a87015496600b0154976040519b8c9b8c5260208c016101a090526101a08c01610fad916110ab565b8b810360408d0152610fbe916110ab565b8a810360608c0152610fcf916110ab565b89810360808b0152610fe0916110ab565b9160a089015260c088015286810360e0880152610ffc916110ab565b9361010086015261012085015260ff8116151561014085015261016084019060081c60ff169061102b916110ec565b6101808301520390f35b3461029a57600036600319011261029a57600654808252602082019060066000527ff652222313e28459528d920b65115c16c04f3efc82aaedc97be59f3f377c0d3f9060005b8181106110955761072c6107208661071b81880382611278565b825484526020909301926001928301920161107b565b919082519283825260005b8481106110d7575050826000602080949584010152601f8019910116010190565b806020809284010151828286010152016110b6565b9060038210156105cb5752565b602081016020825282518091526040820191602060408360051b8301019401926000915b83831061112c57505050505090565b9091929394602080600192603f1985820301865288519081518152610180806111cc6111a6611194611182611170898901516101a08b8a01526101a08901906110ab565b604089015188820360408a01526110ab565b606088015187820360608901526110ab565b608087015186820360808801526110ab565b60a086015160a086015260c086015160c086015260e086015185820360e08701526110ab565b93878060a01b0361010082015116610100850152610120810151610120850152610140810151151561014085015261120e6101608201516101608601906110ec565b01519101529701930193019193929061111d565b90600182811c92168015611252575b602083101461123c57565b634e487b7160e01b600052602260045260246000fd5b91607f1691611231565b6101a081019081106001600160401b03821117610d6357604052565b90601f801991011681019081106001600160401b03821117610d6357604052565b90604051918260008254926112ad84611222565b808452936001811690811561131b57506001146112d4575b506112d292500383611278565b565b90506000929192526020600020906000915b8183106112ff5750509060206112d292820101386112c5565b60209193508060019154838589010152019101909184926112e6565b9050602092506112d294915060ff191682840152151560051b820101386112c5565b600435906001600160a01b038216820361029a57565b60065481101561136e57600660005260206000200190600090565b634e487b7160e01b600052603260045260246000fd5b805482101561136e5760005260206000200190600090565b6001600160401b038111610d6357601f01601f191660200190565b81601f8201121561029a578035906113ce8261139c565b926113dc6040519485611278565b8284526020838301011161029a57816000926020809301838601378301015290565b604090600319011261029a576004359060243590565b81811061141f575050565b60008155600101611414565b1561143257565b60405162461bcd60e51b815260206004820152601f60248201527f4e6f74206f776e6572206f662074686973206f776e65642070726f6a656374006044820152606490fd5b919082039182116104e057565b60065490600160401b821015610d63576104af8260016112d294016006556006611384565b90815491600160401b831015610d6357826104af9160016112d295018155611384565b6114d68154611222565b90816114e0575050565b81601f600093116001146114f2575055565b8183526020832061150e91601f0160051c810190600101611414565b8082528160208120915555565b600b60009182815561152f600182016114cc565b61153b600282016114cc565b611547600382016114cc565b611553600482016114cc565b82600582015582600682015561156b600782016114cc565b82600882015582600982015582600a8201550155565b1561158857565b60405162461bcd60e51b815260206004820152601060248201526f496e76616c6964207175616e7469747960801b6044820152606490fd5b6001600160401b038111610d635760051b60200190565b805182101561136e5760209160051b010190565b908151916115f8836115c0565b926116066040519485611278565b808452611615601f19916115c0565b0160005b81811061173257505060005b815181101561172e5761163881836115d7565b5160005260026020526040600020906040516116538161125c565b8254815261166360018401611299565b602082015261167460028401611299565b604082015261168560038401611299565b606082015261169660048401611299565b6080820152600583015460a0820152600683015460c08201526116bb60078401611299565b60e08201526008838101546001600160a01b03166101008301526009840154610120830152600a84015460ff8181161515610140850152911c1660038110156105cb57600193600b91610160840152015461018082015261171c82876115d7565b5261172781866115d7565b5001611625565b5050565b6020906040516117418161125c565b600081526060838201526060604082015260608082015260606080820152600060a0820152600060c0820152606060e08201526000610100820152600061012082015260006101408201526000610160820152600061018082015282828801015201611619565b6001600160a01b031660009081526003602052604090206112d29190611d6c565b600154919060001983146104e05760018301600155828082526000526002602052604060002090805182556001820160208201518051906001600160401b038211610d63576118188354611222565b601f8111611d3a575b50602090601f8311600114611cd357611852929160009183611a645750508160011b916000199060031b1c19161790565b90555b6002820160408201518051906001600160401b038211610d63576118798354611222565b601f8111611ca1575b50602090601f8311600114611c3a576118b3929160009183611a645750508160011b916000199060031b1c19161790565b90555b6003820160608201518051906001600160401b038211610d63576118da8354611222565b601f8111611c08575b50602090601f8311600114611ba157611914929160009183611a645750508160011b916000199060031b1c19161790565b90555b6004820160808201518051906001600160401b038211610d635761193b8354611222565b601f8111611b6f575b50602090601f8311600114611b0857611975929160009183611a645750508160011b916000199060031b1c19161790565b90555b60a0810151600583015560c081015160068301556007820160e08201518051906001600160401b038211610d63576119b08354611222565b601f8111611ad6575b50602090601f8311600114611a6f576119ea929160009183611a645750508160011b916000199060031b1c19161790565b90555b6008820160018060a01b03610100830151166bffffffffffffffffffffffff60a01b8254161790556101208101516009830155600a8201906101408101511515908254926101608201519260038410156105cb57600b9460ff61ff006101809660081b1692169061ffff1916171790550151910155565b015190503880610ca2565b90601f1983169184600052816000209260005b818110611abe5750908460019594939210611aa5575b505050811b0190556119ed565b015160001960f88460031b161c19169055388080611a98565b92936020600181928786015181550195019301611a82565b611b0290846000526020600020601f850160051c81019160208610610d5957601f0160051c0190611414565b386119b9565b90601f1983169184600052816000209260005b818110611b575750908460019594939210611b3e575b505050811b019055611978565b015160001960f88460031b161c19169055388080611b31565b92936020600181928786015181550195019301611b1b565b611b9b90846000526020600020601f850160051c81019160208610610d5957601f0160051c0190611414565b38611944565b90601f1983169184600052816000209260005b818110611bf05750908460019594939210611bd7575b505050811b019055611917565b015160001960f88460031b161c19169055388080611bca565b92936020600181928786015181550195019301611bb4565b611c3490846000526020600020601f850160051c81019160208610610d5957601f0160051c0190611414565b386118e3565b90601f1983169184600052816000209260005b818110611c895750908460019594939210611c70575b505050811b0190556118b6565b015160001960f88460031b161c19169055388080611c63565b92936020600181928786015181550195019301611c4d565b611ccd90846000526020600020601f850160051c81019160208610610d5957601f0160051c0190611414565b38611882565b90601f1983169184600052816000209260005b818110611d225750908460019594939210611d09575b505050811b019055611855565b015160001960f88460031b161c19169055388080611cfc565b92936020600181928786015181550195019301611ce6565b611d6690846000526020600020601f850160051c81019160208610610d5957601f0160051c0190611414565b38611821565b60005b815480821015611de35783611d848385611384565b90549060031b1c14611d995750600101611d6f565b91925060001982019182116104e0576104af611db8611dc69385611384565b90549060031b1c9184611384565b8054801561047c576000190190611de06104418383611384565b55565b5050505056fea264697066735822122085d318a73f5a463e5a9e204b02dff4a48e046621d82b0718ff2487f7b22c10d664736f6c634300081c0033",
  "linkReferences": {},
  "deployedLinkReferences": {}
}