{"contracts/CarbonCycle.sol":{"CarbonMarketplace":{"abi":[{"inputs":[{"internalType":"uint256","name":"_retiredProjectId","type":"uint256"},{"internalType":"string","name":"_certificateCID","type":"string"}],"name":"addRetirementCertificate","outputs":[],"stateMutability":"nonpayable","type":"function"},{"inputs":[{"internalType":"uint256","name":"_projectId","type":"uint256"},{"internalType":"uint256","name":"_quantity","type":"uint256"}],"name":"buyProject","outputs":[],"stateMutability":"payable","type":"function"},{"inputs":[{"internalType":"address","name":"_seller","type":"address"}],"name":"getListedProjects","outputs":[{"components":[{"internalType":"uint256","name":"projectId","type":"uint256"},{"internalType":"string","name":"externalId","type":"string"},{"internalType":"string","name":"projectName","type":"string"},{"internalType":"string","name":"documentCID","type":"string"},{"internalType":"string","name":"certificateCID","type":"string"},{"internalType":"uint256","name":"valuePerCarbon","type":"uint256"},{"internalType":"uint256","name":"quantity","type":"uint256"},{"internalType":"string","name":"ownerName","type":"string"},{"internalType":"address","name":"ownerAddress","type":"address"},{"internalType":"uint256","name":"createdAt","type":"uint256"},{"internalType":"bool","name":"isResold","type":"bool"},{"internalType":"enum CarbonMarketplace.ProjectStatus","name":"status","type":"uint8"},{"internalType":"uint256","name":"marketplaceIndex","type":"uint256"}],"internalType":"struct CarbonMarketplace.Project[]","name":"","type":"tuple[]"}],"stateMutability":"view","type":"function"},{"inputs":[],"name":"getMarketplace","outputs":[{"components":[{"internalType":"uint256","name":"projectId","type":"uint256"},{"internalType":"string","name":"externalId","type":"string"},{"internalType":"string","name":"projectName","type":"string"},{"internalType":"string","name":"documentCID","type":"string"},{"internalType":"string","name":"certificateCID","type":"string"},{"internalType":"uint256","name":"valuePerCarbon","type":"uint256"},{"internalType":"uint256","name":"quantity","type":"uint256"},{"internalType":"string","name":"ownerName","type":"string"},{"internalType":"address","name":"ownerAddress","type":"address"},{"internalType":"uint256","name":"createdAt","type":"uint256"},{"internalType":"bool","name":"isResold","type":"bool"},{"internalType":"enum CarbonMarketplace.ProjectStatus","name":"status","type":"uint8"},{"internalType":"uint256","name":"marketplaceIndex","type":"uint256"}],"internalType":"struct CarbonMarketplace.Project[]","name":"","type":"tuple[]"}],"stateMutability":"view","type":"function"},{"inputs":[{"internalType":"address","name":"_owner","type":"address"}],"name":"getOwnedProjects","outputs":[{"components":[{"internalType":"uint256","name":"projectId","type":"uint256"},{"internalType":"string","name":"externalId","type":"string"},{"internalType":"string","name":"projectName","type":"string"},{"internalType":"string","name":"documentCID","type":"string"},{"internalType":"string","name":"certificateCID","type":"string"},{"internalType":"uint256","name":"valuePerCarbon","type":"uint256"},{"internalType":"uint256","name":"quantity","type":"uint256"},{"internalType":"string","name":"ownerName","type":"string"},{"internalType":"address","name":"ownerAddress","type":"address"},{"internalType":"uint256","name":"createdAt","type":"uint256"},{"internalType":"bool","name":"isResold","type":"bool"},{"internalType":"enum CarbonMarketplace.ProjectStatus","name":"status","type":"uint8"},{"internalType":"uint256","name":"marketplaceIndex","type":"uint256"}],"internalType":"struct CarbonMarketplace.Project[]","name":"","type":"tuple[]"}],"stateMutability":"view","type":"function"},{"inputs":[{"internalType":"address","name":"_owner","type":"address"}],"name":"getRetiredProjects","outputs":[{"components":[{"internalType":"uint256","name":"projectId","type":"uint256"},{"internalType":"string","name":"externalId","type":"string"},{"internalType":"string","name":"projectName","type":"string"},{"internalType":"string","name":"documentCID","type":"string"},{"internalType":"string","name":"certificateCID","type":"string"},{"internalType":"uint256","name":"valuePerCarbon","type":"uint256"},{"internalType":"uint256","name":"quantity","type":"uint256"},{"internalType":"string","name":"ownerName","type":"string"},{"internalType":"address","name":"ownerAddress","type":"address"},{"internalType":"uint256","name":"createdAt","type":"uint256"},{"internalType":"bool","name":"isResold","type":"bool"},{"internalType":"enum CarbonMarketplace.ProjectStatus","name":"status","type":"uint8"},{"internalType":"uint256","name":"marketplaceIndex","type":"uint256"}],"internalType":"struct CarbonMarketplace.Project[]","name":"","type":"tuple[]"}],"stateMutability":"view","type":"function"},{"inputs":[{"internalType":"address","name":"","type":"address"},{"internalType":"uint256","name":"","type":"uint256"}],"name":"listedProjects","outputs":[{"internalType":"uint256","name":"","type":"uint256"}],"stateMutability":"view","type":"function"},{"inputs":[{"internalType":"uint256","name":"","type":"uint256"}],"name":"marketplace","outputs":[{"internalType":"uint256","name":"","type":"uint256"}],"stateMutability":"view","type":"function"},{"inputs":[],"name":"nextProjectId","outputs":[{"internalType":"uint256","name":"","type":"uint256"}],"stateMutability":"view","type":"function"},{"inputs":[{"internalType":"address","name":"","type":"address"},{"internalType":"uint256","name":"","type":"uint256"}],"name":"ownedProjects","outputs":[{"internalType":"uint256","name":"","type":"uint256"}],"stateMutability":"view","type":"function"},{"inputs":[{"internalType":"uint256","name":"","type":"uint256"}],"name":"projects","outputs":[{"internalType":"uint256","name":"projectId","type":"uint256"},{"internalType":"string","name":"externalId","type":"string"},{"internalType":"string","name":"projectName","type":"string"},{"internalType":"string","name":"documentCID","type":"string"},{"internalType":"string","name":"certificateCID","type":"string"},{"internalType":"uint256","name":"valuePerCarbon","type":"uint256"},{"internalType":"uint256","name":"quantity","type":"uint256"},{"internalType":"string","name":"ownerName","type":"string"},{"internalType":"address","name":"ownerAddress","type":"address"},{"internalType":"uint256","name":"createdAt","type":"uint256"},{"internalType":"bool","name":"isResold","type":"bool"},{"internalType":"enum CarbonMarketplace.ProjectStatus","name":"status","type":"uint8"},{"internalType":"uint256","name":"marketplaceIndex","type":"uint256"}],"stateMutability":"view","type":"function"},{"inputs":[{"internalType":"string","name":"_externalId","type":"string"},{"internalType":"string","name":"_projectName","type":"string"},{"internalType":"string","name":"_documentCID","type":"string"},{"internalType":"uint256","name":"_valuePerCarbon","type":"uint256"},{"internalType":"uint256","name":"_quantity","type":"uint256"},{"internalType":"string","name":"_ownerName","type":"string"}],"name":"registerProject","outputs":[],"stateMutability":"nonpayable","type":"function"},{"inputs":[{"internalType":"uint256","name":"_ownedProjectId","type":"uint256"},{"internalType":"uint256","name":"_quantity","type":"uint256"},{"internalType":"uint256","name":"_newValuePerCarbon","type":"uint256"},{"internalType":"string","name":"_newExternalId","type":"string"},{"internalType":"string","name":"_ownerName","type":"string"}],"name":"resellProject","outputs":[],"stateMutability":"nonpayable","type":"function"},{"inputs":[{"internalType":"uint256","name":"_ownedProjectId","type":"uint256"},{"internalType":"uint256","name":"_quantity","type":"uint256"}],"name":"retireProject","outputs":[],"stateMutability":"nonpayable","type":"function"},{"inputs":[{"internalType":"address","name":"","type":"address"},{"internalType":"uint256","name":"","type":"uint256"}],"name":"retiredProjects","outputs":[{"internalType":"uint256","name":"","type":"uint256"}],"stateMutability":"view","type":"function"}],"evm":{"bytecode":{"linkReferences":{},"object":"60808060405234601e57600160005560018055611e1f90816100248239f35b600080fdfe608080604052600436101561001357600080fd5b60003560e01c9081630d21bcd51461103557508063107046bd14610efd5780632c8a842514610eb357806354686d6014610e39578063634b9f0414610be05780638d50526314610b665780639914d34d14610b1c5780639b2788e61461093c578063b14bf04014610746578063b8c6d9ea146106b7578063d900175f1461068e578063e82128fe14610635578063e935b7b114610617578063ea6d685d1461029f5763ff6c7702146100c457600080fd5b3461029a5760c036600319011261029a576004356001600160401b03811161029a576100f49036906004016113b7565b6024356001600160401b03811161029a576101139036906004016113b7565b906044356001600160401b03811161029a576101339036906004016113b7565b906064359260843560a4356001600160401b03811161029a5761015a9036906004016113b7565b9085156102555780156102105761020e956101dd956000946040519661017f8861125c565b86885260208801526040870152606086015260405161019f602082611278565b848152608086015260a085015260c084015260e0830152336101008301524261012083015280610140830152806101608301526101808201526117c9565b600654816000526002602052600b604060002001556101fb81611484565b33600052600460205260406000206114a9565b005b60405162461bcd60e51b815260206004820152601f60248201527f5175616e74697479206d7573742062652067726561746572207468616e2030006044820152606490fd5b60405162461bcd60e51b815260206004820152601c60248201527f56616c7565206d7573742062652067726561746572207468616e2030000000006044820152606490fd5b600080fd5b6102a8366113fe565b906001600054036105e1576000805580600052600260205260ff600a6040600020015460081c1660038110156105cb5761058f5781151580610574575b6102ee90611581565b806000526002602052600560406000200154828102908082048414901517156104e057340361053b5780600052600260205260018060a01b036008604060002001541633146104f65780600052600260205260406000209161035560068401918254611477565b809155156103ef575b506008015460009081908190819034906001600160a01b03165af13d156103ea573d6103898161139c565b906103976040519283611278565b8152600060203d92013e5b156103ae576001600055005b60405162461bcd60e51b81526020600482015260146024820152732330b4b632b2103a379039b2b7321022ba3432b960611b6044820152606490fd5b6103a2565b90816000526002602052600b6040600020015460065460001981019081116104e057808203610492575b5050600654801561047c57600080939261047382948394841901610452610441826006611384565b8154906000199060031b1b19169055565b60065560088301546001600160a01b03168452600460205260408420611d6c565b9350505061035e565b634e487b7160e01b600052603160045260246000fd5b61049b90611353565b90549060031b1c6104c8816104af84611353565b90919082549060031b91821b91600019901b1916179055565b6000526002602052600b604060002001558280610419565b634e487b7160e01b600052601160045260246000fd5b60405162461bcd60e51b815260206004820152601c60248201527f4f776e65722063616e6e6f7420627579206f776e2070726f6a656374000000006044820152606490fd5b60405162461bcd60e51b8152602060048201526011602482015270125b98dbdc9c9958dd081c185e5b595b9d607a1b6044820152606490fd5b506000818152600260205260409020600601548211156102e5565b60405162461bcd60e51b815260206004820152601460248201527350726f6a656374206e6f7420666f722073616c6560601b6044820152606490fd5b634e487b7160e01b600052602160045260246000fd5b60405162461bcd60e51b815260206004820152600e60248201526d1499595b9d1c985b9d0818d85b1b60921b6044820152606490fd5b3461029a57600036600319011261029a576020600154604051908152f35b3461029a57604036600319011261029a5761064e61133d565b6001600160a01b031660009081526003602052604090208054602435919082101561029a5760209161067f91611384565b90549060031b1c604051908152f35b3461029a57602036600319011261029a5760043560065481101561029a5761067f602091611353565b3461029a57602036600319011261029a576001600160a01b036106d861133d565b166000526005602052604060002060405190816020825491828152019160005260206000209060005b8181106107305761072c6107208661071b81880382611278565b6115eb565b604051918291826110f9565b0390f35b8254845260209093019260019283019201610701565b3461029a5760a036600319011261029a576004356024356044356064356001600160401b03811161029a5761077f9036906004016113b7565b906084356001600160401b03811161029a5761079f9036906004016113b7565b6000858152600260205260409020600801549092906001600160a01b0316331480610912575b6107ce9061142b565b831515806108f7575b6107e090611581565b81156108c25761089b926101dd92866000526002602052604060002091600683019661080d818954611477565b885560098401549261082d600361082660028801611299565b9601611299565b6000956040519761083d8961125c565b87895260208901526040880152606087015260405161085d602082611278565b858152608087015260a086015260c085015260e0840152336101008401526101208301526001610140830152806101608301526101808201526117c9565b54156108a357005b6108ad81336117a8565b600052600260205261020e604060002061151b565b60405162461bcd60e51b815260206004820152600d60248201526c496e76616c696420707269636560981b6044820152606490fd5b506000858152600260205260409020600601548411156107d7565b5084600052600260205260ff600a6040600020015460081c1660038110156105cb576001146107c5565b3461029a5761094a366113fe565b6000828152600260205260409020600801546001600160a01b0316331480610af2575b6109769061142b565b80151580610ad7575b15610a93578160005260026020526040600020610a6d610a5b60068301926109a8858554611477565b8455600981015460ff600a8301541690610a2c6007604051946109ca8661125c565b600086526109da60018201611299565b60208701526109eb60028201611299565b60408701526109fc60038201611299565b6060870152602099604051610a118c82611278565b600081526080880152600060a088015260c087015201611299565b60e0840152336101008401526101208301521515610140820152600261016082015260006101808201526117c9565b336000526005845260406000206114a9565b5415610a7557005b81610a82600293336117a8565b6000525261020e604060002061151b565b606460405162461bcd60e51b815260206004820152602060248201527f496e73756666696369656e74206f7220696e76616c6964207175616e746974796044820152fd5b5081600052600260205260066040600020015481111561097f565b5081600052600260205260ff600a6040600020015460081c1660038110156105cb5760011461096d565b3461029a57604036600319011261029a57610b3561133d565b6001600160a01b031660009081526005602052604090208054602435919082101561029a5760209161067f91611384565b3461029a57602036600319011261029a576001600160a01b03610b8761133d565b166000526003602052604060002060405190816020825491828152019160005260206000209060005b818110610bca5761072c6107208661071b81880382611278565b8254845260209093019260019283019201610bb0565b3461029a57604036600319011261029a576024356001600160401b03811161029a57610c109036906004016113b7565b6004356000526002602052604060002060ff600a82015460081c1660038110156105cb57600203610dfb5760088101546001600160a01b03163303610dbe576004018054610c5d81611222565b610d79578251906001600160401b038211610d6357610c7b90611222565b601f8111610d26575b50602092601f8211600114610cc657610cb792938291600092610cbb575b50508160011b916000199060031b1c19161790565b9055005b015190508480610ca2565b601f1982169383600052806000209160005b868110610d0e5750836001959610610cf5575b505050811b019055005b015160001960f88460031b161c19169055838080610ceb565b91926020600181928685015181550194019201610cd8565b610d5390836000526020600020601f840160051c81019160208510610d59575b601f0160051c0190611414565b83610c84565b9091508190610d46565b634e487b7160e01b600052604160045260246000fd5b60405162461bcd60e51b815260206004820152601960248201527f436572746966696361746520616c7265616479206164646564000000000000006044820152606490fd5b60405162461bcd60e51b81526020600482015260156024820152742cb7ba9030b932903737ba103a34329037bbb732b960591b6044820152606490fd5b60405162461bcd60e51b8152602060048201526016602482015275141c9bda9958dd081a5cc81b9bdd081c995d1a5c995960521b6044820152606490fd5b3461029a57602036600319011261029a576001600160a01b03610e5a61133d565b166000526004602052604060002060405190816020825491828152019160005260206000209060005b818110610e9d5761072c6107208661071b81880382611278565b8254845260209093019260019283019201610e83565b3461029a57604036600319011261029a57610ecc61133d565b6001600160a01b031660009081526004602052604090208054602435919082101561029a5760209161067f91611384565b3461029a57602036600319011261029a5760043560005260026020526040600020805460018201610f2d90611299565b91610f3a60028201611299565b610f4660038301611299565b91610f5360048201611299565b92600582015460068301549060078401610f6c90611299565b91600160a01b6001900360088601541696600986015494600a87015496600b0154976040519b8c9b8c5260208c016101a090526101a08c01610fad916110ab565b8b810360408d0152610fbe916110ab565b8a810360608c0152610fcf916110ab565b89810360808b0152610fe0916110ab565b9160a089015260c088015286810360e0880152610ffc916110ab565b9361010086015261012085015260ff8116151561014085015261016084019060081c60ff169061102b916110ec565b6101808301520390f35b3461029a57600036600319011261029a57600654808252602082019060066000527ff652222313e28459528d920b65115c16c04f3efc82aaedc97be59f3f377c0d3f9060005b8181106110955761072c6107208661071b81880382611278565b825484526020909301926001928301920161107b565b919082519283825260005b8481106110d7575050826000602080949584010152601f8019910116010190565b806020809284010151828286010152016110b6565b9060038210156105cb5752565b602081016020825282518091526040820191602060408360051b8301019401926000915b83831061112c57505050505090565b9091929394602080600192603f1985820301865288519081518152610180806111cc6111a6611194611182611170898901516101a08b8a01526101a08901906110ab565b604089015188820360408a01526110ab565b606088015187820360608901526110ab565b608087015186820360808801526110ab565b60a086015160a086015260c086015160c086015260e086015185820360e08701526110ab565b93878060a01b0361010082015116610100850152610120810151610120850152610140810151151561014085015261120e6101608201516101608601906110ec565b01519101529701930193019193929061111d565b90600182811c92168015611252575b602083101461123c57565b634e487b7160e01b600052602260045260246000fd5b91607f1691611231565b6101a081019081106001600160401b03821117610d6357604052565b90601f801991011681019081106001600160401b03821117610d6357604052565b90604051918260008254926112ad84611222565b808452936001811690811561131b57506001146112d4575b506112d292500383611278565b565b90506000929192526020600020906000915b8183106112ff5750509060206112d292820101386112c5565b60209193508060019154838589010152019101909184926112e6565b9050602092506112d294915060ff191682840152151560051b820101386112c5565b600435906001600160a01b038216820361029a57565b60065481101561136e57600660005260206000200190600090565b634e487b7160e01b600052603260045260246000fd5b805482101561136e5760005260206000200190600090565b6001600160401b038111610d6357601f01601f191660200190565b81601f8201121561029a578035906113ce8261139c565b926113dc6040519485611278565b8284526020838301011161029a57816000926020809301838601378301015290565b604090600319011261029a576004359060243590565b81811061141f575050565b60008155600101611414565b1561143257565b60405162461bcd60e51b815260206004820152601f60248201527f4e6f74206f776e6572206f662074686973206f776e65642070726f6a656374006044820152606490fd5b919082039182116104e057565b60065490600160401b821015610d63576104af8260016112d294016006556006611384565b90815491600160401b831015610d6357826104af9160016112d295018155611384565b6114d68154611222565b90816114e0575050565b81601f600093116001146114f2575055565b8183526020832061150e91601f0160051c810190600101611414565b8082528160208120915555565b600b60009182815561152f600182016114cc565b61153b600282016114cc565b611547600382016114cc565b611553600482016114cc565b82600582015582600682015561156b600782016114cc565b82600882015582600982015582600a8201550155565b1561158857565b60405162461bcd60e51b815260206004820152601060248201526f496e76616c6964207175616e7469747960801b6044820152606490fd5b6001600160401b038111610d635760051b60200190565b805182101561136e5760209160051b010190565b908151916115f8836115c0565b926116066040519485611278565b808452611615601f19916115c0565b0160005b81811061173257505060005b815181101561172e5761163881836115d7565b5160005260026020526040600020906040516116538161125c565b8254815261166360018401611299565b602082015261167460028401611299565b604082015261168560038401611299565b606082015261169660048401611299565b6080820152600583015460a0820152600683015460c08201526116bb60078401611299565b60e08201526008838101546001600160a01b03166101008301526009840154610120830152600a84015460ff8181161515610140850152911c1660038110156105cb57600193600b91610160840152015461018082015261171c82876115d7565b5261172781866115d7565b5001611625565b5050565b6020906040516117418161125c565b600081526060838201526060604082015260608082015260606080820152600060a0820152600060c0820152606060e08201526000610100820152600061012082015260006101408201526000610160820152600061018082015282828801015201611619565b6001600160a01b031660009081526003602052604090206112d29190611d6c565b600154919060001983146104e05760018301600155828082526000526002602052604060002090805182556001820160208201518051906001600160401b038211610d63576118188354611222565b601f8111611d3a575b50602090601f8311600114611cd357611852929160009183611a645750508160011b916000199060031b1c19161790565b90555b6002820160408201518051906001600160401b038211610d63576118798354611222565b601f8111611ca1575b50602090601f8311600114611c3a576118b3929160009183611a645750508160011b916000199060031b1c19161790565b90555b6003820160608201518051906001600160401b038211610d63576118da8354611222565b601f8111611c08575b50602090601f8311600114611ba157611914929160009183611a645750508160011b916000199060031b1c19161790565b90555b6004820160808201518051906001600160401b038211610d635761193b8354611222565b601f8111611b6f575b50602090601f8311600114611b0857611975929160009183611a645750508160011b916000199060031b1c19161790565b90555b60a0810151600583015560c081015160068301556007820160e08201518051906001600160401b038211610d63576119b08354611222565b601f8111611ad6575b50602090601f8311600114611a6f576119ea929160009183611a645750508160011b916000199060031b1c19161790565b90555b6008820160018060a01b03610100830151166bffffffffffffffffffffffff60a01b8254161790556101208101516009830155600a8201906101408101511515908254926101608201519260038410156105cb57600b9460ff61ff006101809660081b1692169061ffff1916171790550151910155565b015190503880610ca2565b90601f1983169184600052816000209260005b818110611abe5750908460019594939210611aa5575b505050811b0190556119ed565b015160001960f88460031b161c19169055388080611a98565b92936020600181928786015181550195019301611a82565b611b0290846000526020600020601f850160051c81019160208610610d5957601f0160051c0190611414565b386119b9565b90601f1983169184600052816000209260005b818110611b575750908460019594939210611b3e575b505050811b019055611978565b015160001960f88460031b161c19169055388080611b31565b92936020600181928786015181550195019301611b1b565b611b9b90846000526020600020601f850160051c81019160208610610d5957601f0160051c0190611414565b38611944565b90601f1983169184600052816000209260005b818110611bf05750908460019594939210611bd7575b505050811b019055611917565b015160001960f88460031b161c19169055388080611bca565b92936020600181928786015181550195019301611bb4565b611c3490846000526020600020601f850160051c81019160208610610d5957601f0160051c0190611414565b386118e3565b90601f1983169184600052816000209260005b818110611c895750908460019594939210611c70575b505050811b0190556118b6565b015160001960f88460031b161c19169055388080611c63565b92936020600181928786015181550195019301611c4d565b611ccd90846000526020600020601f850160051c81019160208610610d5957601f0160051c0190611414565b38611882565b90601f1983169184600052816000209260005b818110611d225750908460019594939210611d09575b505050811b019055611855565b015160001960f88460031b161c19169055388080611cfc565b92936020600181928786015181550195019301611ce6565b611d6690846000526020600020601f850160051c81019160208610610d5957601f0160051c0190611414565b38611821565b60005b815480821015611de35783611d848385611384565b90549060031b1c14611d995750600101611d6f565b91925060001982019182116104e0576104af611db8611dc69385611384565b90549060031b1c9184611384565b8054801561047c576000190190611de06104418383611384565b55565b5050505056fea264697066735822122085d318a73f5a463e5a9e204b02dff4a48e046621d82b0718ff2487f7b22c10d664736f6c634300081c0033","opcodes":"PUSH1 0x80 DUP1 PUSH1 0x40 MSTORE CALLVALUE PUSH1 0x1E JUMPI PUSH1 0x1 PUSH1 0x0 SSTORE PUSH1 0x1 DUP1 SSTORE PUSH2 0x1E1F SWAP1 DUP2 PUSH2 0x24 DUP3 CODECOPY RETURN JUMPDEST PUSH1 0x0 DUP1 REVERT INVALID PUSH1 0x80 DUP1 PUSH1 0x40 MSTORE PUSH1 0x4 CALLDATASIZE LT ISZERO PUSH2 0x13 JUMPI PUSH1 0x0 DUP1 REVERT JUMPDEST PUSH1 0x0 CALLDATALOAD PUSH1 0xE0 SHR SWAP1 DUP2 PUSH4 0xD21BCD5 EQ PUSH2 0x1035 JUMPI POP DUP1 PUSH4 0x107046BD EQ PUSH2 0xEFD JUMPI DUP1 PUSH4 0x2C8A8425 EQ PUSH2 0xEB3 JUMPI DUP1 PUSH4 0x54686D60 EQ PUSH2 0xE39 JUMPI DUP1 PUSH4 0x634B9F04 EQ PUSH2 0xBE0 JUMPI DUP1 PUSH4 0x8D505263 EQ PUSH2 0xB66 JUMPI DUP1 PUSH4 0x9914D34D EQ PUSH2 0xB1C JUMPI DUP1 PUSH4 0x9B2788E6 EQ PUSH2 0x93C JUMPI DUP1 PUSH4 0xB14BF040 EQ PUSH2 0x746 JUMPI DUP1 PUSH4 0xB8C6D9EA EQ PUSH2 0x6B7 JUMPI DUP1 PUSH4 0xD900175F EQ PUSH2 0x68E JUMPI DUP1 PUSH4 0xE82128FE EQ PUSH2 0x635 JUMPI DUP1 PUSH4 0xE935B7B1 EQ PUSH2 0x617 JUMPI DUP1 PUSH4 0xEA6D685D EQ PUSH2 0x29F JUMPI PUSH4 0xFF6C7702 EQ PUSH2 0xC4 JUMPI PUSH1 0x0 DUP1 REVERT JUMPDEST CALLVALUE PUSH2 0x29A JUMPI PUSH1 0xC0 CALLDATASIZE PUSH1 0x3 NOT ADD SLT PUSH2 0x29A JUMPI PUSH1 0x4 CALLDATALOAD PUSH1 0x1 PUSH1 0x1 PUSH1 0x40 SHL SUB DUP2 GT PUSH2 0x29A JUMPI PUSH2 0xF4 SWAP1 CALLDATASIZE SWAP1 PUSH1 0x4 ADD PUSH2 0x13B7 JUMP JUMPDEST PUSH1 0x24 CALLDATALOAD PUSH1 0x1 PUSH1 0x1 PUSH1 0x40 SHL SUB DUP2 GT PUSH2 0x29A JUMPI PUSH2 0x113 SWAP1 CALLDATASIZE SWAP1 PUSH1 0x4 ADD PUSH2 0x13B7 JUMP JUMPDEST SWAP1 PUSH1 0x44 CALLDATALOAD PUSH1 0x1 PUSH1 0x1 PUSH1 0x40 SHL SUB DUP2 GT PUSH2 0x29A JUMPI PUSH2 0x133 SWAP1 CALLDATASIZE SWAP1 PUSH1 0x4 ADD PUSH2 0x13B7 JUMP JUMPDEST SWAP1 PUSH1 0x64 CALLDATALOAD SWAP3 PUSH1 0x84 CALLDATALOAD PUSH1 0xA4 CALLDATALOAD PUSH1 0x1 PUSH1 0x1 PUSH1 0x40 SHL SUB DUP2 GT PUSH2 0x29A JUMPI PUSH2 0x15A SWAP1 CALLDATASIZE SWAP1 PUSH1 0x4 ADD PUSH2 0x13B7 JUMP JUMPDEST SWAP1 DUP6 ISZERO PUSH2 0x255 JUMPI DUP1 ISZERO PUSH2 0x210 JUMPI PUSH2 0x20E SWAP6 PUSH2 0x1DD SWAP6 PUSH1 0x0 SWAP5 PUSH1 0x40 MLOAD SWAP7 PUSH2 0x17F DUP9 PUSH2 0x125C JUMP JUMPDEST DUP7 DUP9 MSTORE PUSH1 0x20 DUP9 ADD MSTORE PUSH1 0x40 DUP8 ADD MSTORE PUSH1 0x60 DUP7 ADD MSTORE PUSH1 0x40 MLOAD PUSH2 0x19F PUSH1 0x20 DUP3 PUSH2 0x1278 JUMP JUMPDEST DUP5 DUP2 MSTORE PUSH1 0x80 DUP7 ADD MSTORE PUSH1 0xA0 DUP6 ADD MSTORE PUSH1 0xC0 DUP5 ADD MSTORE PUSH1 0xE0 DUP4 ADD MSTORE CALLER PUSH2 0x100 DUP4 ADD MSTORE TIMESTAMP PUSH2 0x120 DUP4 ADD MSTORE DUP1 PUSH2 0x140 DUP4 ADD MSTORE DUP1 PUSH2 0x160 DUP4 ADD MSTORE PUSH2 0x180 DUP3 ADD MSTORE PUSH2 0x17C9 JUMP JUMPDEST PUSH1 0x6 SLOAD DUP2 PUSH1 0x0 MSTORE PUSH1 0x2 PUSH1 0x20 MSTORE PUSH1 0xB PUSH1 0x40 PUSH1 0x0 KECCAK256 ADD SSTORE PUSH2 0x1FB DUP2 PUSH2 0x1484 JUMP JUMPDEST CALLER PUSH1 0x0 MSTORE PUSH1 0x4 PUSH1 0x20 MSTORE PUSH1 0x40 PUSH1 0x0 KECCAK256 PUSH2 0x14A9 JUMP JUMPDEST STOP JUMPDEST PUSH1 0x40 MLOAD PUSH3 0x461BCD PUSH1 0xE5 SHL DUP2 MSTORE PUSH1 0x20 PUSH1 0x4 DUP3 ADD MSTORE PUSH1 0x1F PUSH1 0x24 DUP3 ADD MSTORE PUSH32 0x5175616E74697479206D7573742062652067726561746572207468616E203000 PUSH1 0x44 DUP3 ADD MSTORE PUSH1 0x64 SWAP1 REVERT JUMPDEST PUSH1 0x40 MLOAD PUSH3 0x461BCD PUSH1 0xE5 SHL DUP2 MSTORE PUSH1 0x20 PUSH1 0x4 DUP3 ADD MSTORE PUSH1 0x1C PUSH1 0x24 DUP3 ADD MSTORE PUSH32 0x56616C7565206D7573742062652067726561746572207468616E203000000000 PUSH1 0x44 DUP3 ADD MSTORE PUSH1 0x64 SWAP1 REVERT JUMPDEST PUSH1 0x0 DUP1 REVERT JUMPDEST PUSH2 0x2A8 CALLDATASIZE PUSH2 0x13FE JUMP JUMPDEST SWAP1 PUSH1 0x1 PUSH1 0x0 SLOAD SUB PUSH2 0x5E1 JUMPI PUSH1 0x0 DUP1 SSTORE DUP1 PUSH1 0x0 MSTORE PUSH1 0x2 PUSH1 0x20 MSTORE PUSH1 0xFF PUSH1 0xA PUSH1 0x40 PUSH1 0x0 KECCAK256 ADD SLOAD PUSH1 0x8 SHR AND PUSH1 0x3 DUP2 LT ISZERO PUSH2 0x5CB JUMPI PUSH2 0x58F JUMPI DUP2 ISZERO ISZERO DUP1 PUSH2 0x574 JUMPI JUMPDEST PUSH2 0x2EE SWAP1 PUSH2 0x1581 JUMP JUMPDEST DUP1 PUSH1 0x0 MSTORE PUSH1 0x2 PUSH1 0x20 MSTORE PUSH1 0x5 PUSH1 0x40 PUSH1 0x0 KECCAK256 ADD SLOAD DUP3 DUP2 MUL SWAP1 DUP1 DUP3 DIV DUP5 EQ SWAP1 ISZERO OR ISZERO PUSH2 0x4E0 JUMPI CALLVALUE SUB PUSH2 0x53B JUMPI DUP1 PUSH1 0x0 MSTORE PUSH1 0x2 PUSH1 0x20 MSTORE PUSH1 0x1 DUP1 PUSH1 0xA0 SHL SUB PUSH1 0x8 PUSH1 0x40 PUSH1 0x0 KECCAK256 ADD SLOAD AND CALLER EQ PUSH2 0x4F6 JUMPI DUP1 PUSH1 0x0 MSTORE PUSH1 0x2 PUSH1 0x20 MSTORE PUSH1 0x40 PUSH1 0x0 KECCAK256 SWAP2 PUSH2 0x355 PUSH1 0x6 DUP5 ADD SWAP2 DUP3 SLOAD PUSH2 0x1477 JUMP JUMPDEST DUP1 SWAP2 SSTORE ISZERO PUSH2 0x3EF JUMPI JUMPDEST POP PUSH1 0x8 ADD SLOAD PUSH1 0x0 SWAP1 DUP2 SWAP1 DUP2 SWAP1 DUP2 SWAP1 CALLVALUE SWAP1 PUSH1 0x1 PUSH1 0x1 PUSH1 0xA0 SHL SUB AND GAS CALL RETURNDATASIZE ISZERO PUSH2 0x3EA JUMPI RETURNDATASIZE PUSH2 0x389 DUP2 PUSH2 0x139C JUMP JUMPDEST SWAP1 PUSH2 0x397 PUSH1 0x40 MLOAD SWAP3 DUP4 PUSH2 0x1278 JUMP JUMPDEST DUP2 MSTORE PUSH1 0x0 PUSH1 0x20 RETURNDATASIZE SWAP3 ADD RETURNDATACOPY JUMPDEST ISZERO PUSH2 0x3AE JUMPI PUSH1 0x1 PUSH1 0x0 SSTORE STOP JUMPDEST PUSH1 0x40 MLOAD PUSH3 0x461BCD PUSH1 0xE5 SHL DUP2 MSTORE PUSH1 0x20 PUSH1 0x4 DUP3 ADD MSTORE PUSH1 0x14 PUSH1 0x24 DUP3 ADD MSTORE PUSH20 0x2330B4B632B2103A379039B2B7321022BA3432B9 PUSH1 0x61 SHL PUSH1 0x44 DUP3 ADD MSTORE PUSH1 0x64 SWAP1 REVERT JUMPDEST PUSH2 0x3A2 JUMP JUMPDEST SWAP1 DUP2 PUSH1 0x0 MSTORE PUSH1 0x2 PUSH1 0x20 MSTORE PUSH1 0xB PUSH1 0x40 PUSH1 0x0 KECCAK256 ADD SLOAD PUSH1 0x6 SLOAD PUSH1 0x0 NOT DUP2 ADD SWAP1 DUP2 GT PUSH2 0x4E0 JUMPI DUP1 DUP3 SUB PUSH2 0x492 JUMPI JUMPDEST POP POP PUSH1 0x6 SLOAD DUP1 ISZERO PUSH2 0x47C JUMPI PUSH1 0x0 DUP1 SWAP4 SWAP3 PUSH2 0x473 DUP3 SWAP5 DUP4 SWAP5 DUP5 NOT ADD PUSH2 0x452 PUSH2 0x441 DUP3 PUSH1 0x6 PUSH2 0x1384 JUMP JUMPDEST DUP2 SLOAD SWAP1 PUSH1 0x0 NOT SWAP1 PUSH1 0x3 SHL SHL NOT AND SWAP1 SSTORE JUMP JUMPDEST PUSH1 0x6 SSTORE PUSH1 0x8 DUP4 ADD SLOAD PUSH1 0x1 PUSH1 0x1 PUSH1 0xA0 SHL SUB AND DUP5 MSTORE PUSH1 0x4 PUSH1 0x20 MSTORE PUSH1 0x40 DUP5 KECCAK256 PUSH2 0x1D6C JUMP JUMPDEST SWAP4 POP POP POP PUSH2 0x35E JUMP JUMPDEST PUSH4 0x4E487B71 PUSH1 0xE0 SHL PUSH1 0x0 MSTORE PUSH1 0x31 PUSH1 0x4 MSTORE PUSH1 0x24 PUSH1 0x0 REVERT JUMPDEST PUSH2 0x49B SWAP1 PUSH2 0x1353 JUMP JUMPDEST SWAP1 SLOAD SWAP1 PUSH1 0x3 SHL SHR PUSH2 0x4C8 DUP2 PUSH2 0x4AF DUP5 PUSH2 0x1353 JUMP JUMPDEST SWAP1 SWAP2 SWAP1 DUP3 SLOAD SWAP1 PUSH1 0x3 SHL SWAP2 DUP3 SHL SWAP2 PUSH1 0x0 NOT SWAP1 SHL NOT AND OR SWAP1 SSTORE JUMP JUMPDEST PUSH1 0x0 MSTORE PUSH1 0x2 PUSH1 0x20 MSTORE PUSH1 0xB PUSH1 0x40 PUSH1 0x0 KECCAK256 ADD SSTORE DUP3 DUP1 PUSH2 0x419 JUMP JUMPDEST PUSH4 0x4E487B71 PUSH1 0xE0 SHL PUSH1 0x0 MSTORE PUSH1 0x11 PUSH1 0x4 MSTORE PUSH1 0x24 PUSH1 0x0 REVERT JUMPDEST PUSH1 0x40 MLOAD PUSH3 0x461BCD PUSH1 0xE5 SHL DUP2 MSTORE PUSH1 0x20 PUSH1 0x4 DUP3 ADD MSTORE PUSH1 0x1C PUSH1 0x24 DUP3 ADD MSTORE PUSH32 0x4F776E65722063616E6E6F7420627579206F776E2070726F6A65637400000000 PUSH1 0x44 DUP3 ADD MSTORE PUSH1 0x64 SWAP1 REVERT JUMPDEST PUSH1 0x40 MLOAD PUSH3 0x461BCD PUSH1 0xE5 SHL DUP2 MSTORE PUSH1 0x20 PUSH1 0x4 DUP3 ADD MSTORE PUSH1 0x11 PUSH1 0x24 DUP3 ADD MSTORE PUSH17 0x125B98DBDC9C9958DD081C185E5B595B9D PUSH1 0x7A SHL PUSH1 0x44 DUP3 ADD MSTORE PUSH1 0x64 SWAP1 REVERT JUMPDEST POP PUSH1 0x0 DUP2 DUP2 MSTORE PUSH1 0x2 PUSH1 0x20 MSTORE PUSH1 0x40 SWAP1 KECCAK256 PUSH1 0x6 ADD SLOAD DUP3 GT ISZERO PUSH2 0x2E5 JUMP JUMPDEST PUSH1 0x40 MLOAD PUSH3 0x461BCD PUSH1 0xE5 SHL DUP2 MSTORE PUSH1 0x20 PUSH1 0x4 DUP3 ADD MSTORE PUSH1 0x14 PUSH1 0x24 DUP3 ADD MSTORE PUSH20 0x50726F6A656374206E6F7420666F722073616C65 PUSH1 0x60 SHL PUSH1 0x44 DUP3 ADD MSTORE PUSH1 0x64 SWAP1 REVERT JUMPDEST PUSH4 0x4E487B71 PUSH1 0xE0 SHL PUSH1 0x0 MSTORE PUSH1 0x21 PUSH1 0x4 MSTORE PUSH1 0x24 PUSH1 0x0 REVERT JUMPDEST PUSH1 0x40 MLOAD PUSH3 0x461BCD PUSH1 0xE5 SHL DUP2 MSTORE PUSH1 0x20 PUSH1 0x4 DUP3 ADD MSTORE PUSH1 0xE PUSH1 0x24 DUP3 ADD MSTORE PUSH14 0x1499595B9D1C985B9D0818D85B1B PUSH1 0x92 SHL PUSH1 0x44 DUP3 ADD MSTORE PUSH1 0x64 SWAP1 REVERT JUMPDEST CALLVALUE PUSH2 0x29A JUMPI PUSH1 0x0 CALLDATASIZE PUSH1 0x3 NOT ADD SLT PUSH2 0x29A JUMPI PUSH1 0x20 PUSH1 0x1 SLOAD PUSH1 0x40 MLOAD SWAP1 DUP2 MSTORE RETURN JUMPDEST CALLVALUE PUSH2 0x29A JUMPI PUSH1 0x40 CALLDATASIZE PUSH1 0x3 NOT ADD SLT PUSH2 0x29A JUMPI PUSH2 0x64E PUSH2 0x133D JUMP JUMPDEST PUSH1 0x1 PUSH1 0x1 PUSH1 0xA0 SHL SUB AND PUSH1 0x0 SWAP1 DUP2 MSTORE PUSH1 0x3 PUSH1 0x20 MSTORE PUSH1 0x40 SWAP1 KECCAK256 DUP1 SLOAD PUSH1 0x24 CALLDATALOAD SWAP2 SWAP1 DUP3 LT ISZERO PUSH2 0x29A JUMPI PUSH1 0x20 SWAP2 PUSH2 0x67F SWAP2 PUSH2 0x1384 JUMP JUMPDEST SWAP1 SLOAD SWAP1 PUSH1 0x3 SHL SHR PUSH1 0x40 MLOAD SWAP1 DUP2 MSTORE RETURN JUMPDEST CALLVALUE PUSH2 0x29A JUMPI PUSH1 0x20 CALLDATASIZE PUSH1 0x3 NOT ADD SLT PUSH2 0x29A JUMPI PUSH1 0x4 CALLDATALOAD PUSH1 0x6 SLOAD DUP2 LT ISZERO PUSH2 0x29A JUMPI PUSH2 0x67F PUSH1 0x20 SWAP2 PUSH2 0x1353 JUMP JUMPDEST CALLVALUE PUSH2 0x29A JUMPI PUSH1 0x20 CALLDATASIZE PUSH1 0x3 NOT ADD SLT PUSH2 0x29A JUMPI PUSH1 0x1 PUSH1 0x1 PUSH1 0xA0 SHL SUB PUSH2 0x6D8 PUSH2 0x133D JUMP JUMPDEST AND PUSH1 0x0 MSTORE PUSH1 0x5 PUSH1 0x20 MSTORE PUSH1 0x40 PUSH1 0x0 KECCAK256 PUSH1 0x40 MLOAD SWAP1 DUP2 PUSH1 0x20 DUP3 SLOAD SWAP2 DUP3 DUP2 MSTORE ADD SWAP2 PUSH1 0x0 MSTORE PUSH1 0x20 PUSH1 0x0 KECCAK256 SWAP1 PUSH1 0x0 JUMPDEST DUP2 DUP2 LT PUSH2 0x730 JUMPI PUSH2 0x72C PUSH2 0x720 DUP7 PUSH2 0x71B DUP2 DUP9 SUB DUP3 PUSH2 0x1278 JUMP JUMPDEST PUSH2 0x15EB JUMP JUMPDEST PUSH1 0x40 MLOAD SWAP2 DUP3 SWAP2 DUP3 PUSH2 0x10F9 JUMP JUMPDEST SUB SWAP1 RETURN JUMPDEST DUP3 SLOAD DUP5 MSTORE PUSH1 0x20 SWAP1 SWAP4 ADD SWAP3 PUSH1 0x1 SWAP3 DUP4 ADD SWAP3 ADD PUSH2 0x701 JUMP JUMPDEST CALLVALUE PUSH2 0x29A JUMPI PUSH1 0xA0 CALLDATASIZE PUSH1 0x3 NOT ADD SLT PUSH2 0x29A JUMPI PUSH1 0x4 CALLDATALOAD PUSH1 0x24 CALLDATALOAD PUSH1 0x44 CALLDATALOAD PUSH1 0x64 CALLDATALOAD PUSH1 0x1 PUSH1 0x1 PUSH1 0x40 SHL SUB DUP2 GT PUSH2 0x29A JUMPI PUSH2 0x77F SWAP1 CALLDATASIZE SWAP1 PUSH1 0x4 ADD PUSH2 0x13B7 JUMP JUMPDEST SWAP1 PUSH1 0x84 CALLDATALOAD PUSH1 0x1 PUSH1 0x1 PUSH1 0x40 SHL SUB DUP2 GT PUSH2 0x29A JUMPI PUSH2 0x79F SWAP1 CALLDATASIZE SWAP1 PUSH1 0x4 ADD PUSH2 0x13B7 JUMP JUMPDEST PUSH1 0x0 DUP6 DUP2 MSTORE PUSH1 0x2 PUSH1 0x20 MSTORE PUSH1 0x40 SWAP1 KECCAK256 PUSH1 0x8 ADD SLOAD SWAP1 SWAP3 SWAP1 PUSH1 0x1 PUSH1 0x1 PUSH1 0xA0 SHL SUB AND CALLER EQ DUP1 PUSH2 0x912 JUMPI JUMPDEST PUSH2 0x7CE SWAP1 PUSH2 0x142B JUMP JUMPDEST DUP4 ISZERO ISZERO DUP1 PUSH2 0x8F7 JUMPI JUMPDEST PUSH2 0x7E0 SWAP1 PUSH2 0x1581 JUMP JUMPDEST DUP2 ISZERO PUSH2 0x8C2 JUMPI PUSH2 0x89B SWAP3 PUSH2 0x1DD SWAP3 DUP7 PUSH1 0x0 MSTORE PUSH1 0x2 PUSH1 0x20 MSTORE PUSH1 0x40 PUSH1 0x0 KECCAK256 SWAP2 PUSH1 0x6 DUP4 ADD SWAP7 PUSH2 0x80D DUP2 DUP10 SLOAD PUSH2 0x1477 JUMP JUMPDEST DUP9 SSTORE PUSH1 0x9 DUP5 ADD SLOAD SWAP3 PUSH2 0x82D PUSH1 0x3 PUSH2 0x826 PUSH1 0x2 DUP9 ADD PUSH2 0x1299 JUMP JUMPDEST SWAP7 ADD PUSH2 0x1299 JUMP JUMPDEST PUSH1 0x0 SWAP6 PUSH1 0x40 MLOAD SWAP8 PUSH2 0x83D DUP10 PUSH2 0x125C JUMP JUMPDEST DUP8 DUP10 MSTORE PUSH1 0x20 DUP10 ADD MSTORE PUSH1 0x40 DUP9 ADD MSTORE PUSH1 0x60 DUP8 ADD MSTORE PUSH1 0x40 MLOAD PUSH2 0x85D PUSH1 0x20 DUP3 PUSH2 0x1278 JUMP JUMPDEST DUP6 DUP2 MSTORE PUSH1 0x80 DUP8 ADD MSTORE PUSH1 0xA0 DUP7 ADD MSTORE PUSH1 0xC0 DUP6 ADD MSTORE PUSH1 0xE0 DUP5 ADD MSTORE CALLER PUSH2 0x100 DUP5 ADD MSTORE PUSH2 0x120 DUP4 ADD MSTORE PUSH1 0x1 PUSH2 0x140 DUP4 ADD MSTORE DUP1 PUSH2 0x160 DUP4 ADD MSTORE PUSH2 0x180 DUP3 ADD MSTORE PUSH2 0x17C9 JUMP JUMPDEST SLOAD ISZERO PUSH2 0x8A3 JUMPI STOP JUMPDEST PUSH2 0x8AD DUP2 CALLER PUSH2 0x17A8 JUMP JUMPDEST PUSH1 0x0 MSTORE PUSH1 0x2 PUSH1 0x20 MSTORE PUSH2 0x20E PUSH1 0x40 PUSH1 0x0 KECCAK256 PUSH2 0x151B JUMP JUMPDEST PUSH1 0x40 MLOAD PUSH3 0x461BCD PUSH1 0xE5 SHL DUP2 MSTORE PUSH1 0x20 PUSH1 0x4 DUP3 ADD MSTORE PUSH1 0xD PUSH1 0x24 DUP3 ADD MSTORE PUSH13 0x496E76616C6964207072696365 PUSH1 0x98 SHL PUSH1 0x44 DUP3 ADD MSTORE PUSH1 0x64 SWAP1 REVERT JUMPDEST POP PUSH1 0x0 DUP6 DUP2 MSTORE PUSH1 0x2 PUSH1 0x20 MSTORE PUSH1 0x40 SWAP1 KECCAK256 PUSH1 0x6 ADD SLOAD DUP5 GT ISZERO PUSH2 0x7D7 JUMP JUMPDEST POP DUP5 PUSH1 0x0 MSTORE PUSH1 0x2 PUSH1 0x20 MSTORE PUSH1 0xFF PUSH1 0xA PUSH1 0x40 PUSH1 0x0 KECCAK256 ADD SLOAD PUSH1 0x8 SHR AND PUSH1 0x3 DUP2 LT ISZERO PUSH2 0x5CB JUMPI PUSH1 0x1 EQ PUSH2 0x7C5 JUMP JUMPDEST CALLVALUE PUSH2 0x29A JUMPI PUSH2 0x94A CALLDATASIZE PUSH2 0x13FE JUMP JUMPDEST PUSH1 0x0 DUP3 DUP2 MSTORE PUSH1 0x2 PUSH1 0x20 MSTORE PUSH1 0x40 SWAP1 KECCAK256 PUSH1 0x8 ADD SLOAD PUSH1 0x1 PUSH1 0x1 PUSH1 0xA0 SHL SUB AND CALLER EQ DUP1 PUSH2 0xAF2 JUMPI JUMPDEST PUSH2 0x976 SWAP1 PUSH2 0x142B JUMP JUMPDEST DUP1 ISZERO ISZERO DUP1 PUSH2 0xAD7 JUMPI JUMPDEST ISZERO PUSH2 0xA93 JUMPI DUP2 PUSH1 0x0 MSTORE PUSH1 0x2 PUSH1 0x20 MSTORE PUSH1 0x40 PUSH1 0x0 KECCAK256 PUSH2 0xA6D PUSH2 0xA5B PUSH1 0x6 DUP4 ADD SWAP3 PUSH2 0x9A8 DUP6 DUP6 SLOAD PUSH2 0x1477 JUMP JUMPDEST DUP5 SSTORE PUSH1 0x9 DUP2 ADD SLOAD PUSH1 0xFF PUSH1 0xA DUP4 ADD SLOAD AND SWAP1 PUSH2 0xA2C PUSH1 0x7 PUSH1 0x40 MLOAD SWAP5 PUSH2 0x9CA DUP7 PUSH2 0x125C JUMP JUMPDEST PUSH1 0x0 DUP7 MSTORE PUSH2 0x9DA PUSH1 0x1 DUP3 ADD PUSH2 0x1299 JUMP JUMPDEST PUSH1 0x20 DUP8 ADD MSTORE PUSH2 0x9EB PUSH1 0x2 DUP3 ADD PUSH2 0x1299 JUMP JUMPDEST PUSH1 0x40 DUP8 ADD MSTORE PUSH2 0x9FC PUSH1 0x3 DUP3 ADD PUSH2 0x1299 JUMP JUMPDEST PUSH1 0x60 DUP8 ADD MSTORE PUSH1 0x20 SWAP10 PUSH1 0x40 MLOAD PUSH2 0xA11 DUP13 DUP3 PUSH2 0x1278 JUMP JUMPDEST PUSH1 0x0 DUP2 MSTORE PUSH1 0x80 DUP9 ADD MSTORE PUSH1 0x0 PUSH1 0xA0 DUP9 ADD MSTORE PUSH1 0xC0 DUP8 ADD MSTORE ADD PUSH2 0x1299 JUMP JUMPDEST PUSH1 0xE0 DUP5 ADD MSTORE CALLER PUSH2 0x100 DUP5 ADD MSTORE PUSH2 0x120 DUP4 ADD MSTORE ISZERO ISZERO PUSH2 0x140 DUP3 ADD MSTORE PUSH1 0x2 PUSH2 0x160 DUP3 ADD MSTORE PUSH1 0x0 PUSH2 0x180 DUP3 ADD MSTORE PUSH2 0x17C9 JUMP JUMPDEST CALLER PUSH1 0x0 MSTORE PUSH1 0x5 DUP5 MSTORE PUSH1 0x40 PUSH1 0x0 KECCAK256 PUSH2 0x14A9 JUMP JUMPDEST SLOAD ISZERO PUSH2 0xA75 JUMPI STOP JUMPDEST DUP2 PUSH2 0xA82 PUSH1 0x2 SWAP4 CALLER PUSH2 0x17A8 JUMP JUMPDEST PUSH1 0x0 MSTORE MSTORE PUSH2 0x20E PUSH1 0x40 PUSH1 0x0 KECCAK256 PUSH2 0x151B JUMP JUMPDEST PUSH1 0x64 PUSH1 0x40 MLOAD PUSH3 0x461BCD PUSH1 0xE5 SHL DUP2 MSTORE PUSH1 0x20 PUSH1 0x4 DUP3 ADD MSTORE PUSH1 0x20 PUSH1 0x24 DUP3 ADD MSTORE PUSH32 0x496E73756666696369656E74206F7220696E76616C6964207175616E74697479 PUSH1 0x44 DUP3 ADD MSTORE REVERT JUMPDEST POP DUP2 PUSH1 0x0 MSTORE PUSH1 0x2 PUSH1 0x20 MSTORE PUSH1 0x6 PUSH1 0x40 PUSH1 0x0 KECCAK256 ADD SLOAD DUP2 GT ISZERO PUSH2 0x97F JUMP JUMPDEST POP DUP2 PUSH1 0x0 MSTORE PUSH1 0x2 PUSH1 0x20 MSTORE PUSH1 0xFF PUSH1 0xA PUSH1 0x40 PUSH1 0x0 KECCAK256 ADD SLOAD PUSH1 0x8 SHR AND PUSH1 0x3 DUP2 LT ISZERO PUSH2 0x5CB JUMPI PUSH1 0x1 EQ PUSH2 0x96D JUMP JUMPDEST CALLVALUE PUSH2 0x29A JUMPI PUSH1 0x40 CALLDATASIZE PUSH1 0x3 NOT ADD SLT PUSH2 0x29A JUMPI PUSH2 0xB35 PUSH2 0x133D JUMP JUMPDEST PUSH1 0x1 PUSH1 0x1 PUSH1 0xA0 SHL SUB AND PUSH1 0x0 SWAP1 DUP2 MSTORE PUSH1 0x5 PUSH1 0x20 MSTORE PUSH1 0x40 SWAP1 KECCAK256 DUP1 SLOAD PUSH1 0x24 CALLDATALOAD SWAP2 SWAP1 DUP3 LT ISZERO PUSH2 0x29A JUMPI PUSH1 0x20 SWAP2 PUSH2 0x67F SWAP2 PUSH2 0x1384 JUMP JUMPDEST CALLVALUE PUSH2 0x29A JUMPI PUSH1 0x20 CALLDATASIZE PUSH1 0x3 NOT ADD SLT PUSH2 0x29A JUMPI PUSH1 0x1 PUSH1 0x1 PUSH1 0xA0 SHL SUB PUSH2 0xB87 PUSH2 0x133D JUMP JUMPDEST AND PUSH1 0x0 MSTORE PUSH1 0x3 PUSH1 0x20 MSTORE PUSH1 0x40 PUSH1 0x0 KECCAK256 PUSH1 0x40 MLOAD SWAP1 DUP2 PUSH1 0x20 DUP3 SLOAD SWAP2 DUP3 DUP2 MSTORE ADD SWAP2 PUSH1 0x0 MSTORE PUSH1 0x20 PUSH1 0x0 KECCAK256 SWAP1 PUSH1 0x0 JUMPDEST DUP2 DUP2 LT PUSH2 0xBCA JUMPI PUSH2 0x72C PUSH2 0x720 DUP7 PUSH2 0x71B DUP2 DUP9 SUB DUP3 PUSH2 0x1278 JUMP JUMPDEST DUP3 SLOAD DUP5 MSTORE PUSH1 0x20 SWAP1 SWAP4 ADD SWAP3 PUSH1 0x1 SWAP3 DUP4 ADD SWAP3 ADD PUSH2 0xBB0 JUMP JUMPDEST CALLVALUE PUSH2 0x29A JUMPI PUSH1 0x40 CALLDATASIZE PUSH1 0x3 NOT ADD SLT PUSH2 0x29A JUMPI PUSH1 0x24 CALLDATALOAD PUSH1 0x1 PUSH1 0x1 PUSH1 0x40 SHL SUB DUP2 GT PUSH2 0x29A JUMPI PUSH2 0xC10 SWAP1 CALLDATASIZE SWAP1 PUSH1 0x4 ADD PUSH2 0x13B7 JUMP JUMPDEST PUSH1 0x4 CALLDATALOAD PUSH1 0x0 MSTORE PUSH1 0x2 PUSH1 0x20 MSTORE PUSH1 0x40 PUSH1 0x0 KECCAK256 PUSH1 0xFF PUSH1 0xA DUP3 ADD SLOAD PUSH1 0x8 SHR AND PUSH1 0x3 DUP2 LT ISZERO PUSH2 0x5CB JUMPI PUSH1 0x2 SUB PUSH2 0xDFB JUMPI PUSH1 0x8 DUP2 ADD SLOAD PUSH1 0x1 PUSH1 0x1 PUSH1 0xA0 SHL SUB AND CALLER SUB PUSH2 0xDBE JUMPI PUSH1 0x4 ADD DUP1 SLOAD PUSH2 0xC5D DUP2 PUSH2 0x1222 JUMP JUMPDEST PUSH2 0xD79 JUMPI DUP3 MLOAD SWAP1 PUSH1 0x1 PUSH1 0x1 PUSH1 0x40 SHL SUB DUP3 GT PUSH2 0xD63 JUMPI PUSH2 0xC7B SWAP1 PUSH2 0x1222 JUMP JUMPDEST PUSH1 0x1F DUP2 GT PUSH2 0xD26 JUMPI JUMPDEST POP PUSH1 0x20 SWAP3 PUSH1 0x1F DUP3 GT PUSH1 0x1 EQ PUSH2 0xCC6 JUMPI PUSH2 0xCB7 SWAP3 SWAP4 DUP3 SWAP2 PUSH1 0x0 SWAP3 PUSH2 0xCBB JUMPI JUMPDEST POP POP DUP2 PUSH1 0x1 SHL SWAP2 PUSH1 0x0 NOT SWAP1 PUSH1 0x3 SHL SHR NOT AND OR SWAP1 JUMP JUMPDEST SWAP1 SSTORE STOP JUMPDEST ADD MLOAD SWAP1 POP DUP5 DUP1 PUSH2 0xCA2 JUMP JUMPDEST PUSH1 0x1F NOT DUP3 AND SWAP4 DUP4 PUSH1 0x0 MSTORE DUP1 PUSH1 0x0 KECCAK256 SWAP2 PUSH1 0x0 JUMPDEST DUP7 DUP2 LT PUSH2 0xD0E JUMPI POP DUP4 PUSH1 0x1 SWAP6 SWAP7 LT PUSH2 0xCF5 JUMPI JUMPDEST POP POP POP DUP2 SHL ADD SWAP1 SSTORE STOP JUMPDEST ADD MLOAD PUSH1 0x0 NOT PUSH1 0xF8 DUP5 PUSH1 0x3 SHL AND SHR NOT AND SWAP1 SSTORE DUP4 DUP1 DUP1 PUSH2 0xCEB JUMP JUMPDEST SWAP2 SWAP3 PUSH1 0x20 PUSH1 0x1 DUP2 SWAP3 DUP7 DUP6 ADD MLOAD DUP2 SSTORE ADD SWAP5 ADD SWAP3 ADD PUSH2 0xCD8 JUMP JUMPDEST PUSH2 0xD53 SWAP1 DUP4 PUSH1 0x0 MSTORE PUSH1 0x20 PUSH1 0x0 KECCAK256 PUSH1 0x1F DUP5 ADD PUSH1 0x5 SHR DUP2 ADD SWAP2 PUSH1 0x20 DUP6 LT PUSH2 0xD59 JUMPI JUMPDEST PUSH1 0x1F ADD PUSH1 0x5 SHR ADD SWAP1 PUSH2 0x1414 JUMP JUMPDEST DUP4 PUSH2 0xC84 JUMP JUMPDEST SWAP1 SWAP2 POP DUP2 SWAP1 PUSH2 0xD46 JUMP JUMPDEST PUSH4 0x4E487B71 PUSH1 0xE0 SHL PUSH1 0x0 MSTORE PUSH1 0x41 PUSH1 0x4 MSTORE PUSH1 0x24 PUSH1 0x0 REVERT JUMPDEST PUSH1 0x40 MLOAD PUSH3 0x461BCD PUSH1 0xE5 SHL DUP2 MSTORE PUSH1 0x20 PUSH1 0x4 DUP3 ADD MSTORE PUSH1 0x19 PUSH1 0x24 DUP3 ADD MSTORE PUSH32 0x436572746966696361746520616C726561647920616464656400000000000000 PUSH1 0x44 DUP3 ADD MSTORE PUSH1 0x64 SWAP1 REVERT JUMPDEST PUSH1 0x40 MLOAD PUSH3 0x461BCD PUSH1 0xE5 SHL DUP2 MSTORE PUSH1 0x20 PUSH1 0x4 DUP3 ADD MSTORE PUSH1 0x15 PUSH1 0x24 DUP3 ADD MSTORE PUSH21 0x2CB7BA9030B932903737BA103A34329037BBB732B9 PUSH1 0x59 SHL PUSH1 0x44 DUP3 ADD MSTORE PUSH1 0x64 SWAP1 REVERT JUMPDEST PUSH1 0x40 MLOAD PUSH3 0x461BCD PUSH1 0xE5 SHL DUP2 MSTORE PUSH1 0x20 PUSH1 0x4 DUP3 ADD MSTORE PUSH1 0x16 PUSH1 0x24 DUP3 ADD MSTORE PUSH22 0x141C9BDA9958DD081A5CC81B9BDD081C995D1A5C9959 PUSH1 0x52 SHL PUSH1 0x44 DUP3 ADD MSTORE PUSH1 0x64 SWAP1 REVERT JUMPDEST CALLVALUE PUSH2 0x29A JUMPI PUSH1 0x20 CALLDATASIZE PUSH1 0x3 NOT ADD SLT PUSH2 0x29A JUMPI PUSH1 0x1 PUSH1 0x1 PUSH1 0xA0 SHL SUB PUSH2 0xE5A PUSH2 0x133D JUMP JUMPDEST AND PUSH1 0x0 MSTORE PUSH1 0x4 PUSH1 0x20 MSTORE PUSH1 0x40 PUSH1 0x0 KECCAK256 PUSH1 0x40 MLOAD SWAP1 DUP2 PUSH1 0x20 DUP3 SLOAD SWAP2 DUP3 DUP2 MSTORE ADD SWAP2 PUSH1 0x0 MSTORE PUSH1 0x20 PUSH1 0x0 KECCAK256 SWAP1 PUSH1 0x0 JUMPDEST DUP2 DUP2 LT PUSH2 0xE9D JUMPI PUSH2 0x72C PUSH2 0x720 DUP7 PUSH2 0x71B DUP2 DUP9 SUB DUP3 PUSH2 0x1278 JUMP JUMPDEST DUP3 SLOAD DUP5 MSTORE PUSH1 0x20 SWAP1 SWAP4 ADD SWAP3 PUSH1 0x1 SWAP3 DUP4 ADD SWAP3 ADD PUSH2 0xE83 JUMP JUMPDEST CALLVALUE PUSH2 0x29A JUMPI PUSH1 0x40 CALLDATASIZE PUSH1 0x3 NOT ADD SLT PUSH2 0x29A JUMPI PUSH2 0xECC PUSH2 0x133D JUMP JUMPDEST PUSH1 0x1 PUSH1 0x1 PUSH1 0xA0 SHL SUB AND PUSH1 0x0 SWAP1 DUP2 MSTORE PUSH1 0x4 PUSH1 0x20 MSTORE PUSH1 0x40 SWAP1 KECCAK256 DUP1 SLOAD PUSH1 0x24 CALLDATALOAD SWAP2 SWAP1 DUP3 LT ISZERO PUSH2 0x29A JUMPI PUSH1 0x20 SWAP2 PUSH2 0x67F SWAP2 PUSH2 0x1384 JUMP JUMPDEST CALLVALUE PUSH2 0x29A JUMPI PUSH1 0x20 CALLDATASIZE PUSH1 0x3 NOT ADD SLT PUSH2 0x29A JUMPI PUSH1 0x4 CALLDATALOAD PUSH1 0x0 MSTORE PUSH1 0x2 PUSH1 0x20 MSTORE PUSH1 0x40 PUSH1 0x0 KECCAK256 DUP1 SLOAD PUSH1 0x1 DUP3 ADD PUSH2 0xF2D SWAP1 PUSH2 0x1299 JUMP JUMPDEST SWAP2 PUSH2 0xF3A PUSH1 0x2 DUP3 ADD PUSH2 0x1299 JUMP JUMPDEST PUSH2 0xF46 PUSH1 0x3 DUP4 ADD PUSH2 0x1299 JUMP JUMPDEST SWAP2 PUSH2 0xF53 PUSH1 0x4 DUP3 ADD PUSH2 0x1299 JUMP JUMPDEST SWAP3 PUSH1 0x5 DUP3 ADD SLOAD PUSH1 0x6 DUP4 ADD SLOAD SWAP1 PUSH1 0x7 DUP5 ADD PUSH2 0xF6C SWAP1 PUSH2 0x1299 JUMP JUMPDEST SWAP2 PUSH1 0x1 PUSH1 0xA0 SHL PUSH1 0x1 SWAP1 SUB PUSH1 0x8 DUP7 ADD SLOAD AND SWAP7 PUSH1 0x9 DUP7 ADD SLOAD SWAP5 PUSH1 0xA DUP8 ADD SLOAD SWAP7 PUSH1 0xB ADD SLOAD SWAP8 PUSH1 0x40 MLOAD SWAP12 DUP13 SWAP12 DUP13 MSTORE PUSH1 0x20 DUP13 ADD PUSH2 0x1A0 SWAP1 MSTORE PUSH2 0x1A0 DUP13 ADD PUSH2 0xFAD SWAP2 PUSH2 0x10AB JUMP JUMPDEST DUP12 DUP2 SUB PUSH1 0x40 DUP14 ADD MSTORE PUSH2 0xFBE SWAP2 PUSH2 0x10AB JUMP JUMPDEST DUP11 DUP2 SUB PUSH1 0x60 DUP13 ADD MSTORE PUSH2 0xFCF SWAP2 PUSH2 0x10AB JUMP JUMPDEST DUP10 DUP2 SUB PUSH1 0x80 DUP12 ADD MSTORE PUSH2 0xFE0 SWAP2 PUSH2 0x10AB JUMP JUMPDEST SWAP2 PUSH1 0xA0 DUP10 ADD MSTORE PUSH1 0xC0 DUP9 ADD MSTORE DUP7 DUP2 SUB PUSH1 0xE0 DUP9 ADD MSTORE PUSH2 0xFFC SWAP2 PUSH2 0x10AB JUMP JUMPDEST SWAP4 PUSH2 0x100 DUP7 ADD MSTORE PUSH2 0x120 DUP6 ADD MSTORE PUSH1 0xFF DUP2 AND ISZERO ISZERO PUSH2 0x140 DUP6 ADD MSTORE PUSH2 0x160 DUP5 ADD SWAP1 PUSH1 0x8 SHR PUSH1 0xFF AND SWAP1 PUSH2 0x102B SWAP2 PUSH2 0x10EC JUMP JUMPDEST PUSH2 0x180 DUP4 ADD MSTORE SUB SWAP1 RETURN JUMPDEST CALLVALUE PUSH2 0x29A JUMPI PUSH1 0x0 CALLDATASIZE PUSH1 0x3 NOT ADD SLT PUSH2 0x29A JUMPI PUSH1 0x6 SLOAD DUP1 DUP3 MSTORE PUSH1 0x20 DUP3 ADD SWAP1 PUSH1 0x6 PUSH1 0x0 MSTORE PUSH32 0xF652222313E28459528D920B65115C16C04F3EFC82AAEDC97BE59F3F377C0D3F SWAP1 PUSH1 0x0 JUMPDEST DUP2 DUP2 LT PUSH2 0x1095 JUMPI PUSH2 0x72C PUSH2 0x720 DUP7 PUSH2 0x71B DUP2 DUP9 SUB DUP3 PUSH2 0x1278 JUMP JUMPDEST DUP3 SLOAD DUP5 MSTORE PUSH1 0x20 SWAP1 SWAP4 ADD SWAP3 PUSH1 0x1 SWAP3 DUP4 ADD SWAP3 ADD PUSH2 0x107B JUMP JUMPDEST SWAP2 SWAP1 DUP3 MLOAD SWAP3 DUP4 DUP3 MSTORE PUSH1 0x0 JUMPDEST DUP5 DUP2 LT PUSH2 0x10D7 JUMPI POP POP DUP3 PUSH1 0x0 PUSH1 0x20 DUP1 SWAP5 SWAP6 DUP5 ADD ADD MSTORE PUSH1 0x1F DUP1 NOT SWAP2 ADD AND ADD ADD SWAP1 JUMP JUMPDEST DUP1 PUSH1 0x20 DUP1 SWAP3 DUP5 ADD ADD MLOAD DUP3 DUP3 DUP7 ADD ADD MSTORE ADD PUSH2 0x10B6 JUMP JUMPDEST SWAP1 PUSH1 0x3 DUP3 LT ISZERO PUSH2 0x5CB JUMPI MSTORE JUMP JUMPDEST PUSH1 0x20 DUP2 ADD PUSH1 0x20 DUP3 MSTORE DUP3 MLOAD DUP1 SWAP2 MSTORE PUSH1 0x40 DUP3 ADD SWAP2 PUSH1 0x20 PUSH1 0x40 DUP4 PUSH1 0x5 SHL DUP4 ADD ADD SWAP5 ADD SWAP3 PUSH1 0x0 SWAP2 JUMPDEST DUP4 DUP4 LT PUSH2 0x112C JUMPI POP POP POP POP POP SWAP1 JUMP JUMPDEST SWAP1 SWAP2 SWAP3 SWAP4 SWAP5 PUSH1 0x20 DUP1 PUSH1 0x1 SWAP3 PUSH1 0x3F NOT DUP6 DUP3 SUB ADD DUP7 MSTORE DUP9 MLOAD SWAP1 DUP2 MLOAD DUP2 MSTORE PUSH2 0x180 DUP1 PUSH2 0x11CC PUSH2 0x11A6 PUSH2 0x1194 PUSH2 0x1182 PUSH2 0x1170 DUP10 DUP10 ADD MLOAD PUSH2 0x1A0 DUP12 DUP11 ADD MSTORE PUSH2 0x1A0 DUP10 ADD SWAP1 PUSH2 0x10AB JUMP JUMPDEST PUSH1 0x40 DUP10 ADD MLOAD DUP9 DUP3 SUB PUSH1 0x40 DUP11 ADD MSTORE PUSH2 0x10AB JUMP JUMPDEST PUSH1 0x60 DUP9 ADD MLOAD DUP8 DUP3 SUB PUSH1 0x60 DUP10 ADD MSTORE PUSH2 0x10AB JUMP JUMPDEST PUSH1 0x80 DUP8 ADD MLOAD DUP7 DUP3 SUB PUSH1 0x80 DUP9 ADD MSTORE PUSH2 0x10AB JUMP JUMPDEST PUSH1 0xA0 DUP7 ADD MLOAD PUSH1 0xA0 DUP7 ADD MSTORE PUSH1 0xC0 DUP7 ADD MLOAD PUSH1 0xC0 DUP7 ADD MSTORE PUSH1 0xE0 DUP7 ADD MLOAD DUP6 DUP3 SUB PUSH1 0xE0 DUP8 ADD MSTORE PUSH2 0x10AB JUMP JUMPDEST SWAP4 DUP8 DUP1 PUSH1 0xA0 SHL SUB PUSH2 0x100 DUP3 ADD MLOAD AND PUSH2 0x100 DUP6 ADD MSTORE PUSH2 0x120 DUP2 ADD MLOAD PUSH2 0x120 DUP6 ADD MSTORE PUSH2 0x140 DUP2 ADD MLOAD ISZERO ISZERO PUSH2 0x140 DUP6 ADD MSTORE PUSH2 0x120E PUSH2 0x160 DUP3 ADD MLOAD PUSH2 0x160 DUP7 ADD SWAP1 PUSH2 0x10EC JUMP JUMPDEST ADD MLOAD SWAP2 ADD MSTORE SWAP8 ADD SWAP4 ADD SWAP4 ADD SWAP2 SWAP4 SWAP3 SWAP1 PUSH2 0x111D JUMP JUMPDEST SWAP1 PUSH1 0x1 DUP3 DUP2 SHR SWAP3 AND DUP1 ISZERO PUSH2 0x1252 JUMPI JUMPDEST PUSH1 0x20 DUP4 LT EQ PUSH2 0x123C JUMPI JUMP JUMPDEST PUSH4 0x4E487B71 PUSH1 0xE0 SHL PUSH1 0x0 MSTORE PUSH1 0x22 PUSH1 0x4 MSTORE PUSH1 0x24 PUSH1 0x0 REVERT JUMPDEST SWAP2 PUSH1 0x7F AND SWAP2 PUSH2 0x1231 JUMP JUMPDEST PUSH2 0x1A0 DUP2 ADD SWAP1 DUP2 LT PUSH1 0x1 PUSH1 0x1 PUSH1 0x40 SHL SUB DUP3 GT OR PUSH2 0xD63 JUMPI PUSH1 0x40 MSTORE JUMP JUMPDEST SWAP1 PUSH1 0x1F DUP1 NOT SWAP2 ADD AND DUP2 ADD SWAP1 DUP2 LT PUSH1 0x1 PUSH1 0x1 PUSH1 0x40 SHL SUB DUP3 GT OR PUSH2 0xD63 JUMPI PUSH1 0x40 MSTORE JUMP JUMPDEST SWAP1 PUSH1 0x40 MLOAD SWAP2 DUP3 PUSH1 0x0 DUP3 SLOAD SWAP3 PUSH2 0x12AD DUP5 PUSH2 0x1222 JUMP JUMPDEST DUP1 DUP5 MSTORE SWAP4 PUSH1 0x1 DUP2 AND SWAP1 DUP2 ISZERO PUSH2 0x131B JUMPI POP PUSH1 0x1 EQ PUSH2 0x12D4 JUMPI JUMPDEST POP PUSH2 0x12D2 SWAP3 POP SUB DUP4 PUSH2 0x1278 JUMP JUMPDEST JUMP JUMPDEST SWAP1 POP PUSH1 0x0 SWAP3 SWAP2 SWAP3 MSTORE PUSH1 0x20 PUSH1 0x0 KECCAK256 SWAP1 PUSH1 0x0 SWAP2 JUMPDEST DUP2 DUP4 LT PUSH2 0x12FF JUMPI POP POP SWAP1 PUSH1 0x20 PUSH2 0x12D2 SWAP3 DUP3 ADD ADD CODESIZE PUSH2 0x12C5 JUMP JUMPDEST PUSH1 0x20 SWAP2 SWAP4 POP DUP1 PUSH1 0x1 SWAP2 SLOAD DUP4 DUP6 DUP10 ADD ADD MSTORE ADD SWAP2 ADD SWAP1 SWAP2 DUP5 SWAP3 PUSH2 0x12E6 JUMP JUMPDEST SWAP1 POP PUSH1 0x20 SWAP3 POP PUSH2 0x12D2 SWAP5 SWAP2 POP PUSH1 0xFF NOT AND DUP3 DUP5 ADD MSTORE ISZERO ISZERO PUSH1 0x5 SHL DUP3 ADD ADD CODESIZE PUSH2 0x12C5 JUMP JUMPDEST PUSH1 0x4 CALLDATALOAD SWAP1 PUSH1 0x1 PUSH1 0x1 PUSH1 0xA0 SHL SUB DUP3 AND DUP3 SUB PUSH2 0x29A JUMPI JUMP JUMPDEST PUSH1 0x6 SLOAD DUP2 LT ISZERO PUSH2 0x136E JUMPI PUSH1 0x6 PUSH1 0x0 MSTORE PUSH1 0x20 PUSH1 0x0 KECCAK256 ADD SWAP1 PUSH1 0x0 SWAP1 JUMP JUMPDEST PUSH4 0x4E487B71 PUSH1 0xE0 SHL PUSH1 0x0 MSTORE PUSH1 0x32 PUSH1 0x4 MSTORE PUSH1 0x24 PUSH1 0x0 REVERT JUMPDEST DUP1 SLOAD DUP3 LT ISZERO PUSH2 0x136E JUMPI PUSH1 0x0 MSTORE PUSH1 0x20 PUSH1 0x0 KECCAK256 ADD SWAP1 PUSH1 0x0 SWAP1 JUMP JUMPDEST PUSH1 0x1 PUSH1 0x1 PUSH1 0x40 SHL SUB DUP2 GT PUSH2 0xD63 JUMPI PUSH1 0x1F ADD PUSH1 0x1F NOT AND PUSH1 0x20 ADD SWAP1 JUMP JUMPDEST DUP2 PUSH1 0x1F DUP3 ADD SLT ISZERO PUSH2 0x29A JUMPI DUP1 CALLDATALOAD SWAP1 PUSH2 0x13CE DUP3 PUSH2 0x139C JUMP JUMPDEST SWAP3 PUSH2 0x13DC PUSH1 0x40 MLOAD SWAP5 DUP6 PUSH2 0x1278 JUMP JUMPDEST DUP3 DUP5 MSTORE PUSH1 0x20 DUP4 DUP4 ADD ADD GT PUSH2 0x29A JUMPI DUP2 PUSH1 0x0 SWAP3 PUSH1 0x20 DUP1 SWAP4 ADD DUP4 DUP7 ADD CALLDATACOPY DUP4 ADD ADD MSTORE SWAP1 JUMP JUMPDEST PUSH1 0x40 SWAP1 PUSH1 0x3 NOT ADD SLT PUSH2 0x29A JUMPI PUSH1 0x4 CALLDATALOAD SWAP1 PUSH1 0x24 CALLDATALOAD SWAP1 JUMP JUMPDEST DUP2 DUP2 LT PUSH2 0x141F JUMPI POP POP JUMP JUMPDEST PUSH1 0x0 DUP2 SSTORE PUSH1 0x1 ADD PUSH2 0x1414 JUMP JUMPDEST ISZERO PUSH2 0x1432 JUMPI JUMP JUMPDEST PUSH1 0x40 MLOAD PUSH3 0x461BCD PUSH1 0xE5 SHL DUP2 MSTORE PUSH1 0x20 PUSH1 0x4 DUP3 ADD MSTORE PUSH1 0x1F PUSH1 0x24 DUP3 ADD MSTORE PUSH32 0x4E6F74206F776E6572206F662074686973206F776E65642070726F6A65637400 PUSH1 0x44 DUP3 ADD MSTORE PUSH1 0x64 SWAP1 REVERT JUMPDEST SWAP2 SWAP1 DUP3 SUB SWAP2 DUP3 GT PUSH2 0x4E0 JUMPI JUMP JUMPDEST PUSH1 0x6 SLOAD SWAP1 PUSH1 0x1 PUSH1 0x40 SHL DUP3 LT ISZERO PUSH2 0xD63 JUMPI PUSH2 0x4AF DUP3 PUSH1 0x1 PUSH2 0x12D2 SWAP5 ADD PUSH1 0x6 SSTORE PUSH1 0x6 PUSH2 0x1384 JUMP JUMPDEST SWAP1 DUP2 SLOAD SWAP2 PUSH1 0x1 PUSH1 0x40 SHL DUP4 LT ISZERO PUSH2 0xD63 JUMPI DUP3 PUSH2 0x4AF SWAP2 PUSH1 0x1 PUSH2 0x12D2 SWAP6 ADD DUP2 SSTORE PUSH2 0x1384 JUMP JUMPDEST PUSH2 0x14D6 DUP2 SLOAD PUSH2 0x1222 JUMP JUMPDEST SWAP1 DUP2 PUSH2 0x14E0 JUMPI POP POP JUMP JUMPDEST DUP2 PUSH1 0x1F PUSH1 0x0 SWAP4 GT PUSH1 0x1 EQ PUSH2 0x14F2 JUMPI POP SSTORE JUMP JUMPDEST DUP2 DUP4 MSTORE PUSH1 0x20 DUP4 KECCAK256 PUSH2 0x150E SWAP2 PUSH1 0x1F ADD PUSH1 0x5 SHR DUP2 ADD SWAP1 PUSH1 0x1 ADD PUSH2 0x1414 JUMP JUMPDEST DUP1 DUP3 MSTORE DUP2 PUSH1 0x20 DUP2 KECCAK256 SWAP2 SSTORE SSTORE JUMP JUMPDEST PUSH1 0xB PUSH1 0x0 SWAP2 DUP3 DUP2 SSTORE PUSH2 0x152F PUSH1 0x1 DUP3 ADD PUSH2 0x14CC JUMP JUMPDEST PUSH2 0x153B PUSH1 0x2 DUP3 ADD PUSH2 0x14CC JUMP JUMPDEST PUSH2 0x1547 PUSH1 0x3 DUP3 ADD PUSH2 0x14CC JUMP JUMPDEST PUSH2 0x1553 PUSH1 0x4 DUP3 ADD PUSH2 0x14CC JUMP JUMPDEST DUP3 PUSH1 0x5 DUP3 ADD SSTORE DUP3 PUSH1 0x6 DUP3 ADD SSTORE PUSH2 0x156B PUSH1 0x7 DUP3 ADD PUSH2 0x14CC JUMP JUMPDEST DUP3 PUSH1 0x8 DUP3 ADD SSTORE DUP3 PUSH1 0x9 DUP3 ADD SSTORE DUP3 PUSH1 0xA DUP3 ADD SSTORE ADD SSTORE JUMP JUMPDEST ISZERO PUSH2 0x1588 JUMPI JUMP JUMPDEST PUSH1 0x40 MLOAD PUSH3 0x461BCD PUSH1 0xE5 SHL DUP2 MSTORE PUSH1 0x20 PUSH1 0x4 DUP3 ADD MSTORE PUSH1 0x10 PUSH1 0x24 DUP3 ADD MSTORE PUSH16 0x496E76616C6964207175616E74697479 PUSH1 0x80 SHL PUSH1 0x44 DUP3 ADD MSTORE PUSH1 0x64 SWAP1 REVERT JUMPDEST PUSH1 0x1 PUSH1 0x1 PUSH1 0x40 SHL SUB DUP2 GT PUSH2 0xD63 JUMPI PUSH1 0x5 SHL PUSH1 0x20 ADD SWAP1 JUMP JUMPDEST DUP1 MLOAD DUP3 LT ISZERO PUSH2 0x136E JUMPI PUSH1 0x20 SWAP2 PUSH1 0x5 SHL ADD ADD SWAP1 JUMP JUMPDEST SWAP1 DUP2 MLOAD SWAP2 PUSH2 0x15F8 DUP4 PUSH2 0x15C0 JUMP JUMPDEST SWAP3 PUSH2 0x1606 PUSH1 0x40 MLOAD SWAP5 DUP6 PUSH2 0x1278 JUMP JUMPDEST DUP1 DUP5 MSTORE PUSH2 0x1615 PUSH1 0x1F NOT SWAP2 PUSH2 0x15C0 JUMP JUMPDEST ADD PUSH1 0x0 JUMPDEST DUP2 DUP2 LT PUSH2 0x1732 JUMPI POP POP PUSH1 0x0 JUMPDEST DUP2 MLOAD DUP2 LT ISZERO PUSH2 0x172E JUMPI PUSH2 0x1638 DUP2 DUP4 PUSH2 0x15D7 JUMP JUMPDEST MLOAD PUSH1 0x0 MSTORE PUSH1 0x2 PUSH1 0x20 MSTORE PUSH1 0x40 PUSH1 0x0 KECCAK256 SWAP1 PUSH1 0x40 MLOAD PUSH2 0x1653 DUP2 PUSH2 0x125C JUMP JUMPDEST DUP3 SLOAD DUP2 MSTORE PUSH2 0x1663 PUSH1 0x1 DUP5 ADD PUSH2 0x1299 JUMP JUMPDEST PUSH1 0x20 DUP3 ADD MSTORE PUSH2 0x1674 PUSH1 0x2 DUP5 ADD PUSH2 0x1299 JUMP JUMPDEST PUSH1 0x40 DUP3 ADD MSTORE PUSH2 0x1685 PUSH1 0x3 DUP5 ADD PUSH2 0x1299 JUMP JUMPDEST PUSH1 0x60 DUP3 ADD MSTORE PUSH2 0x1696 PUSH1 0x4 DUP5 ADD PUSH2 0x1299 JUMP JUMPDEST PUSH1 0x80 DUP3 ADD MSTORE PUSH1 0x5 DUP4 ADD SLOAD PUSH1 0xA0 DUP3 ADD MSTORE PUSH1 0x6 DUP4 ADD SLOAD PUSH1 0xC0 DUP3 ADD MSTORE PUSH2 0x16BB PUSH1 0x7 DUP5 ADD PUSH2 0x1299 JUMP JUMPDEST PUSH1 0xE0 DUP3 ADD MSTORE PUSH1 0x8 DUP4 DUP2 ADD SLOAD PUSH1 0x1 PUSH1 0x1 PUSH1 0xA0 SHL SUB AND PUSH2 0x100 DUP4 ADD MSTORE PUSH1 0x9 DUP5 ADD SLOAD PUSH2 0x120 DUP4 ADD MSTORE PUSH1 0xA DUP5 ADD SLOAD PUSH1 0xFF DUP2 DUP2 AND ISZERO ISZERO PUSH2 0x140 DUP6 ADD MSTORE SWAP2 SHR AND PUSH1 0x3 DUP2 LT ISZERO PUSH2 0x5CB JUMPI PUSH1 0x1 SWAP4 PUSH1 0xB SWAP2 PUSH2 0x160 DUP5 ADD MSTORE ADD SLOAD PUSH2 0x180 DUP3 ADD MSTORE PUSH2 0x171C DUP3 DUP8 PUSH2 0x15D7 JUMP JUMPDEST MSTORE PUSH2 0x1727 DUP2 DUP7 PUSH2 0x15D7 JUMP JUMPDEST POP ADD PUSH2 0x1625 JUMP JUMPDEST POP POP JUMP JUMPDEST PUSH1 0x20 SWAP1 PUSH1 0x40 MLOAD PUSH2 0x1741 DUP2 PUSH2 0x125C JUMP JUMPDEST PUSH1 0x0 DUP2 MSTORE PUSH1 0x60 DUP4 DUP3 ADD MSTORE PUSH1 0x60 PUSH1 0x40 DUP3 ADD MSTORE PUSH1 0x60 DUP1 DUP3 ADD MSTORE PUSH1 0x60 PUSH1 0x80 DUP3 ADD MSTORE PUSH1 0x0 PUSH1 0xA0 DUP3 ADD MSTORE PUSH1 0x0 PUSH1 0xC0 DUP3 ADD MSTORE PUSH1 0x60 PUSH1 0xE0 DUP3 ADD MSTORE PUSH1 0x0 PUSH2 0x100 DUP3 ADD MSTORE PUSH1 0x0 PUSH2 0x120 DUP3 ADD MSTORE PUSH1 0x0 PUSH2 0x140 DUP3 ADD MSTORE PUSH1 0x0 PUSH2 0x160 DUP3 ADD MSTORE PUSH1 0x0 PUSH2 0x180 DUP3 ADD MSTORE DUP3 DUP3 DUP9 ADD ADD MSTORE ADD PUSH2 0x1619 JUMP JUMPDEST PUSH1 0x1 PUSH1 0x1 PUSH1 0xA0 SHL SUB AND PUSH1 0x0 SWAP1 DUP2 MSTORE PUSH1 0x3 PUSH1 0x20 MSTORE PUSH1 0x40 SWAP1 KECCAK256 PUSH2 0x12D2 SWAP2 SWAP1 PUSH2 0x1D6C JUMP JUMPDEST PUSH1 0x1 SLOAD SWAP2 SWAP1 PUSH1 0x0 NOT DUP4 EQ PUSH2 0x4E0 JUMPI PUSH1 0x1 DUP4 ADD PUSH1 0x1 SSTORE DUP3 DUP1 DUP3 MSTORE PUSH1 0x0 MSTORE PUSH1 0x2 PUSH1 0x20 MSTORE PUSH1 0x40 PUSH1 0x0 KECCAK256 SWAP1 DUP1 MLOAD DUP3 SSTORE PUSH1 0x1 DUP3 ADD PUSH1 0x20 DUP3 ADD MLOAD DUP1 MLOAD SWAP1 PUSH1 0x1 PUSH1 0x1 PUSH1 0x40 SHL SUB DUP3 GT PUSH2 0xD63 JUMPI PUSH2 0x1818 DUP4 SLOAD PUSH2 0x1222 JUMP JUMPDEST PUSH1 0x1F DUP2 GT PUSH2 0x1D3A JUMPI JUMPDEST POP PUSH1 0x20 SWAP1 PUSH1 0x1F DUP4 GT PUSH1 0x1 EQ PUSH2 0x1CD3 JUMPI PUSH2 0x1852 SWAP3 SWAP2 PUSH1 0x0 SWAP2 DUP4 PUSH2 0x1A64 JUMPI POP POP DUP2 PUSH1 0x1 SHL SWAP2 PUSH1 0x0 NOT SWAP1 PUSH1 0x3 SHL SHR NOT AND OR SWAP1 JUMP JUMPDEST SWAP1 SSTORE JUMPDEST PUSH1 0x2 DUP3 ADD PUSH1 0x40 DUP3 ADD MLOAD DUP1 MLOAD SWAP1 PUSH1 0x1 PUSH1 0x1 PUSH1 0x40 SHL SUB DUP3 GT PUSH2 0xD63 JUMPI PUSH2 0x1879 DUP4 SLOAD PUSH2 0x1222 JUMP JUMPDEST PUSH1 0x1F DUP2 GT PUSH2 0x1CA1 JUMPI JUMPDEST POP PUSH1 0x20 SWAP1 PUSH1 0x1F DUP4 GT PUSH1 0x1 EQ PUSH2 0x1C3A JUMPI PUSH2 0x18B3 SWAP3 SWAP2 PUSH1 0x0 SWAP2 DUP4 PUSH2 0x1A64 JUMPI POP POP DUP2 PUSH1 0x1 SHL SWAP2 PUSH1 0x0 NOT SWAP1 PUSH1 0x3 SHL SHR NOT AND OR SWAP1 JUMP JUMPDEST SWAP1 SSTORE JUMPDEST PUSH1 0x3 DUP3 ADD PUSH1 0x60 DUP3 ADD MLOAD DUP1 MLOAD SWAP1 PUSH1 0x1 PUSH1 0x1 PUSH1 0x40 SHL SUB DUP3 GT PUSH2 0xD63 JUMPI PUSH2 0x18DA DUP4 SLOAD PUSH2 0x1222 JUMP JUMPDEST PUSH1 0x1F DUP2 GT PUSH2 0x1C08 JUMPI JUMPDEST POP PUSH1 0x20 SWAP1 PUSH1 0x1F DUP4 GT PUSH1 0x1 EQ PUSH2 0x1BA1 JUMPI PUSH2 0x1914 SWAP3 SWAP2 PUSH1 0x0 SWAP2 DUP4 PUSH2 0x1A64 JUMPI POP POP DUP2 PUSH1 0x1 SHL SWAP2 PUSH1 0x0 NOT SWAP1 PUSH1 0x3 SHL SHR NOT AND OR SWAP1 JUMP JUMPDEST SWAP1 SSTORE JUMPDEST PUSH1 0x4 DUP3 ADD PUSH1 0x80 DUP3 ADD MLOAD DUP1 MLOAD SWAP1 PUSH1 0x1 PUSH1 0x1 PUSH1 0x40 SHL SUB DUP3 GT PUSH2 0xD63 JUMPI PUSH2 0x193B DUP4 SLOAD PUSH2 0x1222 JUMP JUMPDEST PUSH1 0x1F DUP2 GT PUSH2 0x1B6F JUMPI JUMPDEST POP PUSH1 0x20 SWAP1 PUSH1 0x1F DUP4 GT PUSH1 0x1 EQ PUSH2 0x1B08 JUMPI PUSH2 0x1975 SWAP3 SWAP2 PUSH1 0x0 SWAP2 DUP4 PUSH2 0x1A64 JUMPI POP POP DUP2 PUSH1 0x1 SHL SWAP2 PUSH1 0x0 NOT SWAP1 PUSH1 0x3 SHL SHR NOT AND OR SWAP1 JUMP JUMPDEST SWAP1 SSTORE JUMPDEST PUSH1 0xA0 DUP2 ADD MLOAD PUSH1 0x5 DUP4 ADD SSTORE PUSH1 0xC0 DUP2 ADD MLOAD PUSH1 0x6 DUP4 ADD SSTORE PUSH1 0x7 DUP3 ADD PUSH1 0xE0 DUP3 ADD MLOAD DUP1 MLOAD SWAP1 PUSH1 0x1 PUSH1 0x1 PUSH1 0x40 SHL SUB DUP3 GT PUSH2 0xD63 JUMPI PUSH2 0x19B0 DUP4 SLOAD PUSH2 0x1222 JUMP JUMPDEST PUSH1 0x1F DUP2 GT PUSH2 0x1AD6 JUMPI JUMPDEST POP PUSH1 0x20 SWAP1 PUSH1 0x1F DUP4 GT PUSH1 0x1 EQ PUSH2 0x1A6F JUMPI PUSH2 0x19EA SWAP3 SWAP2 PUSH1 0x0 SWAP2 DUP4 PUSH2 0x1A64 JUMPI POP POP DUP2 PUSH1 0x1 SHL SWAP2 PUSH1 0x0 NOT SWAP1 PUSH1 0x3 SHL SHR NOT AND OR SWAP1 JUMP JUMPDEST SWAP1 SSTORE JUMPDEST PUSH1 0x8 DUP3 ADD PUSH1 0x1 DUP1 PUSH1 0xA0 SHL SUB PUSH2 0x100 DUP4 ADD MLOAD AND PUSH12 0xFFFFFFFFFFFFFFFFFFFFFFFF PUSH1 0xA0 SHL DUP3 SLOAD AND OR SWAP1 SSTORE PUSH2 0x120 DUP2 ADD MLOAD PUSH1 0x9 DUP4 ADD SSTORE PUSH1 0xA DUP3 ADD SWAP1 PUSH2 0x140 DUP2 ADD MLOAD ISZERO ISZERO SWAP1 DUP3 SLOAD SWAP3 PUSH2 0x160 DUP3 ADD MLOAD SWAP3 PUSH1 0x3 DUP5 LT ISZERO PUSH2 0x5CB JUMPI PUSH1 0xB SWAP5 PUSH1 0xFF PUSH2 0xFF00 PUSH2 0x180 SWAP7 PUSH1 0x8 SHL AND SWAP3 AND SWAP1 PUSH2 0xFFFF NOT AND OR OR SWAP1 SSTORE ADD MLOAD SWAP2 ADD SSTORE JUMP JUMPDEST ADD MLOAD SWAP1 POP CODESIZE DUP1 PUSH2 0xCA2 JUMP JUMPDEST SWAP1 PUSH1 0x1F NOT DUP4 AND SWAP2 DUP5 PUSH1 0x0 MSTORE DUP2 PUSH1 0x0 KECCAK256 SWAP3 PUSH1 0x0 JUMPDEST DUP2 DUP2 LT PUSH2 0x1ABE JUMPI POP SWAP1 DUP5 PUSH1 0x1 SWAP6 SWAP5 SWAP4 SWAP3 LT PUSH2 0x1AA5 JUMPI JUMPDEST POP POP POP DUP2 SHL ADD SWAP1 SSTORE PUSH2 0x19ED JUMP JUMPDEST ADD MLOAD PUSH1 0x0 NOT PUSH1 0xF8 DUP5 PUSH1 0x3 SHL AND SHR NOT AND SWAP1 SSTORE CODESIZE DUP1 DUP1 PUSH2 0x1A98 JUMP JUMPDEST SWAP3 SWAP4 PUSH1 0x20 PUSH1 0x1 DUP2 SWAP3 DUP8 DUP7 ADD MLOAD DUP2 SSTORE ADD SWAP6 ADD SWAP4 ADD PUSH2 0x1A82 JUMP JUMPDEST PUSH2 0x1B02 SWAP1 DUP5 PUSH1 0x0 MSTORE PUSH1 0x20 PUSH1 0x0 KECCAK256 PUSH1 0x1F DUP6 ADD PUSH1 0x5 SHR DUP2 ADD SWAP2 PUSH1 0x20 DUP7 LT PUSH2 0xD59 JUMPI PUSH1 0x1F ADD PUSH1 0x5 SHR ADD SWAP1 PUSH2 0x1414 JUMP JUMPDEST CODESIZE PUSH2 0x19B9 JUMP JUMPDEST SWAP1 PUSH1 0x1F NOT DUP4 AND SWAP2 DUP5 PUSH1 0x0 MSTORE DUP2 PUSH1 0x0 KECCAK256 SWAP3 PUSH1 0x0 JUMPDEST DUP2 DUP2 LT PUSH2 0x1B57 JUMPI POP SWAP1 DUP5 PUSH1 0x1 SWAP6 SWAP5 SWAP4 SWAP3 LT PUSH2 0x1B3E JUMPI JUMPDEST POP POP POP DUP2 SHL ADD SWAP1 SSTORE PUSH2 0x1978 JUMP JUMPDEST ADD MLOAD PUSH1 0x0 NOT PUSH1 0xF8 DUP5 PUSH1 0x3 SHL AND SHR NOT AND SWAP1 SSTORE CODESIZE DUP1 DUP1 PUSH2 0x1B31 JUMP JUMPDEST SWAP3 SWAP4 PUSH1 0x20 PUSH1 0x1 DUP2 SWAP3 DUP8 DUP7 ADD MLOAD DUP2 SSTORE ADD SWAP6 ADD SWAP4 ADD PUSH2 0x1B1B JUMP JUMPDEST PUSH2 0x1B9B SWAP1 DUP5 PUSH1 0x0 MSTORE PUSH1 0x20 PUSH1 0x0 KECCAK256 PUSH1 0x1F DUP6 ADD PUSH1 0x5 SHR DUP2 ADD SWAP2 PUSH1 0x20 DUP7 LT PUSH2 0xD59 JUMPI PUSH1 0x1F ADD PUSH1 0x5 SHR ADD SWAP1 PUSH2 0x1414 JUMP JUMPDEST CODESIZE PUSH2 0x1944 JUMP JUMPDEST SWAP1 PUSH1 0x1F NOT DUP4 AND SWAP2 DUP5 PUSH1 0x0 MSTORE DUP2 PUSH1 0x0 KECCAK256 SWAP3 PUSH1 0x0 JUMPDEST DUP2 DUP2 LT PUSH2 0x1BF0 JUMPI POP SWAP1 DUP5 PUSH1 0x1 SWAP6 SWAP5 SWAP4 SWAP3 LT PUSH2 0x1BD7 JUMPI JUMPDEST POP POP POP DUP2 SHL ADD SWAP1 SSTORE PUSH2 0x1917 JUMP JUMPDEST ADD MLOAD PUSH1 0x0 NOT PUSH1 0xF8 DUP5 PUSH1 0x3 SHL AND SHR NOT AND SWAP1 SSTORE CODESIZE DUP1 DUP1 PUSH2 0x1BCA JUMP JUMPDEST SWAP3 SWAP4 PUSH1 0x20 PUSH1 0x1 DUP2 SWAP3 DUP8 DUP7 ADD MLOAD DUP2 SSTORE ADD SWAP6 ADD SWAP4 ADD PUSH2 0x1BB4 JUMP JUMPDEST PUSH2 0x1C34 SWAP1 DUP5 PUSH1 0x0 MSTORE PUSH1 0x20 PUSH1 0x0 KECCAK256 PUSH1 0x1F DUP6 ADD PUSH1 0x5 SHR DUP2 ADD SWAP2 PUSH1 0x20 DUP7 LT PUSH2 0xD59 JUMPI PUSH1 0x1F ADD PUSH1 0x5 SHR ADD SWAP1 PUSH2 0x1414 JUMP JUMPDEST CODESIZE PUSH2 0x18E3 JUMP JUMPDEST SWAP1 PUSH1 0x1F NOT DUP4 AND SWAP2 DUP5 PUSH1 0x0 MSTORE DUP2 PUSH1 0x0 KECCAK256 SWAP3 PUSH1 0x0 JUMPDEST DUP2 DUP2 LT PUSH2 0x1C89 JUMPI POP SWAP1 DUP5 PUSH1 0x1 SWAP6 SWAP5 SWAP4 SWAP3 LT PUSH2 0x1C70 JUMPI JUMPDEST POP POP POP DUP2 SHL ADD SWAP1 SSTORE PUSH2 0x18B6 JUMP JUMPDEST ADD MLOAD PUSH1 0x0 NOT PUSH1 0xF8 DUP5 PUSH1 0x3 SHL AND SHR NOT AND SWAP1 SSTORE CODESIZE DUP1 DUP1 PUSH2 0x1C63 JUMP JUMPDEST SWAP3 SWAP4 PUSH1 0x20 PUSH1 0x1 DUP2 SWAP3 DUP8 DUP7 ADD MLOAD DUP2 SSTORE ADD SWAP6 ADD SWAP4 ADD PUSH2 0x1C4D JUMP JUMPDEST PUSH2 0x1CCD SWAP1 DUP5 PUSH1 0x0 MSTORE PUSH1 0x20 PUSH1 0x0 KECCAK256 PUSH1 0x1F DUP6 ADD PUSH1 0x5 SHR DUP2 ADD SWAP2 PUSH1 0x20 DUP7 LT PUSH2 0xD59 JUMPI PUSH1 0x1F ADD PUSH1 0x5 SHR ADD SWAP1 PUSH2 0x1414 JUMP JUMPDEST CODESIZE PUSH2 0x1882 JUMP JUMPDEST SWAP1 PUSH1 0x1F NOT DUP4 AND SWAP2 DUP5 PUSH1 0x0 MSTORE DUP2 PUSH1 0x0 KECCAK256 SWAP3 PUSH1 0x0 JUMPDEST DUP2 DUP2 LT PUSH2 0x1D22 JUMPI POP SWAP1 DUP5 PUSH1 0x1 SWAP6 SWAP5 SWAP4 SWAP3 LT PUSH2 0x1D09 JUMPI JUMPDEST POP POP POP DUP2 SHL ADD SWAP1 SSTORE PUSH2 0x1855 JUMP JUMPDEST ADD MLOAD PUSH1 0x0 NOT PUSH1 0xF8 DUP5 PUSH1 0x3 SHL AND SHR NOT AND SWAP1 SSTORE CODESIZE DUP1 DUP1 PUSH2 0x1CFC JUMP JUMPDEST SWAP3 SWAP4 PUSH1 0x20 PUSH1 0x1 DUP2 SWAP3 DUP8 DUP7 ADD MLOAD DUP2 SSTORE ADD SWAP6 ADD SWAP4 ADD PUSH2 0x1CE6 JUMP JUMPDEST PUSH2 0x1D66 SWAP1 DUP5 PUSH1 0x0 MSTORE PUSH1 0x20 PUSH1 0x0 KECCAK256 PUSH1 0x1F DUP6 ADD PUSH1 0x5 SHR DUP2 ADD SWAP2 PUSH1 0x20 DUP7 LT PUSH2 0xD59 JUMPI PUSH1 0x1F ADD PUSH1 0x5 SHR ADD SWAP1 PUSH2 0x1414 JUMP JUMPDEST CODESIZE PUSH2 0x1821 JUMP JUMPDEST PUSH1 0x0 JUMPDEST DUP2 SLOAD DUP1 DUP3 LT ISZERO PUSH2 0x1DE3 JUMPI DUP4 PUSH2 0x1D84 DUP4 DUP6 PUSH2 0x1384 JUMP JUMPDEST SWAP1 SLOAD SWAP1 PUSH1 0x3 SHL SHR EQ PUSH2 0x1D99 JUMPI POP PUSH1 0x1 ADD PUSH2 0x1D6F JUMP JUMPDEST SWAP2 SWAP3 POP PUSH1 0x0 NOT DUP3 ADD SWAP2 DUP3 GT PUSH2 0x4E0 JUMPI PUSH2 0x4AF PUSH2 0x1DB8 PUSH2 0x1DC6 SWAP4 DUP6 PUSH2 0x1384 JUMP JUMPDEST SWAP1 SLOAD SWAP1 PUSH1 0x3 SHL SHR SWAP2 DUP5 PUSH2 0x1384 JUMP JUMPDEST DUP1 SLOAD DUP1 ISZERO PUSH2 0x47C JUMPI PUSH1 0x0 NOT ADD SWAP1 PUSH2 0x1DE0 PUSH2 0x441 DUP4 DUP4 PUSH2 0x1384 JUMP JUMPDEST SSTORE JUMP JUMPDEST POP POP POP POP JUMP INVALID LOG2 PUSH5 0x6970667358 0x22 SLT KECCAK256 DUP6 0xD3 XOR 0xA7 EXTCODEHASH GAS CHAINID RETURNDATACOPY GAS SWAP15 KECCAK256 0x4B MUL 0xDF DELEGATECALL LOG4 DUP15 DIV PUSH7 0x21D82B0718FF24 DUP8 0xF7 0xB2 0x2C LT 0xD6 PUSH5 0x736F6C6343 STOP ADDMOD SHR STOP CALLER "},"methodIdentifiers":{"addRetirementCertificate(uint256,string)":"634b9f04","buyProject(uint256,uint256)":"ea6d685d","getListedProjects(address)":"54686d60","getMarketplace()":"0d21bcd5","getOwnedProjects(address)":"8d505263","getRetiredProjects(address)":"b8c6d9ea","listedProjects(address,uint256)":"2c8a8425","marketplace(uint256)":"d900175f","nextProjectId()":"e935b7b1","ownedProjects(address,uint256)":"e82128fe","projects(uint256)":"107046bd","registerProject(string,string,string,uint256,uint256,string)":"ff6c7702","resellProject(uint256,uint256,uint256,string,string)":"b14bf040","retireProject(uint256,uint256)":"9b2788e6","retiredProjects(address,uint256)":"9914d34d"}}}}}