{"contracts/CarbonCycle.sol":{"CarbonMarketplace":{"abi":[{"anonymous":false,"inputs":[{"indexed":true,"internalType":"uint256","name":"retiredProjectId","type":"uint256"},{"indexed":false,"internalType":"string","name":"certificateCID","type":"string"}],"name":"CertificateAdded","type":"event"},{"anonymous":false,"inputs":[{"indexed":true,"internalType":"uint256","name":"originalProjectId","type":"uint256"},{"indexed":true,"internalType":"uint256","name":"newOwnedProjectId","type":"uint256"},{"indexed":false,"internalType":"string","name":"externalId","type":"string"},{"indexed":true,"internalType":"address","name":"buyer","type":"address"},{"indexed":false,"internalType":"uint256","name":"quantity","type":"uint256"},{"indexed":false,"internalType":"uint256","name":"totalPrice","type":"uint256"}],"name":"ProjectBought","type":"event"},{"anonymous":false,"inputs":[{"indexed":true,"internalType":"uint256","name":"projectId","type":"uint256"},{"indexed":false,"internalType":"string","name":"externalId","type":"string"},{"indexed":false,"internalType":"string","name":"name","type":"string"},{"indexed":false,"internalType":"string","name":"documentCID","type":"string"},{"indexed":false,"internalType":"uint256","name":"value","type":"uint256"},{"indexed":false,"internalType":"uint256","name":"quantity","type":"uint256"},{"indexed":false,"internalType":"string","name":"ownerName","type":"string"},{"indexed":true,"internalType":"address","name":"owner","type":"address"}],"name":"ProjectRegistered","type":"event"},{"anonymous":false,"inputs":[{"indexed":true,"internalType":"uint256","name":"originalOwnedProjectId","type":"uint256"},{"indexed":true,"internalType":"uint256","name":"newForSaleProjectId","type":"uint256"},{"indexed":false,"internalType":"string","name":"externalId","type":"string"},{"indexed":true,"internalType":"address","name":"seller","type":"address"},{"indexed":false,"internalType":"uint256","name":"valuePerCarbon","type":"uint256"},{"indexed":false,"internalType":"uint256","name":"quantity","type":"uint256"}],"name":"ProjectResold","type":"event"},{"anonymous":false,"inputs":[{"indexed":true,"internalType":"uint256","name":"originalOwnedProjectId","type":"uint256"},{"indexed":true,"internalType":"uint256","name":"newRetiredProjectId","type":"uint256"},{"indexed":true,"internalType":"address","name":"owner","type":"address"},{"indexed":false,"internalType":"uint256","name":"quantity","type":"uint256"}],"name":"ProjectRetired","type":"event"},{"inputs":[{"internalType":"uint256","name":"_retiredProjectId","type":"uint256"},{"internalType":"string","name":"_certificateCID","type":"string"}],"name":"addRetirementCertificate","outputs":[],"stateMutability":"nonpayable","type":"function"},{"inputs":[{"internalType":"uint256","name":"_projectId","type":"uint256"},{"internalType":"uint256","name":"_quantity","type":"uint256"}],"name":"buyProject","outputs":[],"stateMutability":"payable","type":"function"},{"inputs":[{"internalType":"address","name":"_seller","type":"address"}],"name":"getListedProjects","outputs":[{"components":[{"internalType":"uint256","name":"projectId","type":"uint256"},{"internalType":"string","name":"externalId","type":"string"},{"internalType":"string","name":"projectName","type":"string"},{"internalType":"string","name":"documentCID","type":"string"},{"internalType":"string","name":"certificateCID","type":"string"},{"internalType":"uint256","name":"valuePerCarbon","type":"uint256"},{"internalType":"uint256","name":"quantity","type":"uint256"},{"internalType":"string","name":"ownerName","type":"string"},{"internalType":"address","name":"ownerAddress","type":"address"},{"internalType":"uint256","name":"createdAt","type":"uint256"},{"internalType":"bool","name":"isResold","type":"bool"},{"internalType":"enum CarbonMarketplace.ProjectStatus","name":"status","type":"uint8"},{"internalType":"uint256","name":"marketplaceIndex","type":"uint256"}],"internalType":"struct CarbonMarketplace.Project[]","name":"","type":"tuple[]"}],"stateMutability":"view","type":"function"},{"inputs":[],"name":"getMarketplace","outputs":[{"components":[{"internalType":"uint256","name":"projectId","type":"uint256"},{"internalType":"string","name":"externalId","type":"string"},{"internalType":"string","name":"projectName","type":"string"},{"internalType":"string","name":"documentCID","type":"string"},{"internalType":"string","name":"certificateCID","type":"string"},{"internalType":"uint256","name":"valuePerCarbon","type":"uint256"},{"internalType":"uint256","name":"quantity","type":"uint256"},{"internalType":"string","name":"ownerName","type":"string"},{"internalType":"address","name":"ownerAddress","type":"address"},{"internalType":"uint256","name":"createdAt","type":"uint256"},{"internalType":"bool","name":"isResold","type":"bool"},{"internalType":"enum CarbonMarketplace.ProjectStatus","name":"status","type":"uint8"},{"internalType":"uint256","name":"marketplaceIndex","type":"uint256"}],"internalType":"struct CarbonMarketplace.Project[]","name":"","type":"tuple[]"}],"stateMutability":"view","type":"function"},{"inputs":[{"internalType":"address","name":"_owner","type":"address"}],"name":"getOwnedProjects","outputs":[{"components":[{"internalType":"uint256","name":"projectId","type":"uint256"},{"internalType":"string","name":"externalId","type":"string"},{"internalType":"string","name":"projectName","type":"string"},{"internalType":"string","name":"documentCID","type":"string"},{"internalType":"string","name":"certificateCID","type":"string"},{"internalType":"uint256","name":"valuePerCarbon","type":"uint256"},{"internalType":"uint256","name":"quantity","type":"uint256"},{"internalType":"string","name":"ownerName","type":"string"},{"internalType":"address","name":"ownerAddress","type":"address"},{"internalType":"uint256","name":"createdAt","type":"uint256"},{"internalType":"bool","name":"isResold","type":"bool"},{"internalType":"enum CarbonMarketplace.ProjectStatus","name":"status","type":"uint8"},{"internalType":"uint256","name":"marketplaceIndex","type":"uint256"}],"internalType":"struct CarbonMarketplace.Project[]","name":"","type":"tuple[]"}],"stateMutability":"view","type":"function"},{"inputs":[{"internalType":"address","name":"_owner","type":"address"}],"name":"getRetiredProjects","outputs":[{"components":[{"internalType":"uint256","name":"projectId","type":"uint256"},{"internalType":"string","name":"externalId","type":"string"},{"internalType":"string","name":"projectName","type":"string"},{"internalType":"string","name":"documentCID","type":"string"},{"internalType":"string","name":"certificateCID","type":"string"},{"internalType":"uint256","name":"valuePerCarbon","type":"uint256"},{"internalType":"uint256","name":"quantity","type":"uint256"},{"internalType":"string","name":"ownerName","type":"string"},{"internalType":"address","name":"ownerAddress","type":"address"},{"internalType":"uint256","name":"createdAt","type":"uint256"},{"internalType":"bool","name":"isResold","type":"bool"},{"internalType":"enum CarbonMarketplace.ProjectStatus","name":"status","type":"uint8"},{"internalType":"uint256","name":"marketplaceIndex","type":"uint256"}],"internalType":"struct CarbonMarketplace.Project[]","name":"","type":"tuple[]"}],"stateMutability":"view","type":"function"},{"inputs":[{"internalType":"address","name":"","type":"address"},{"internalType":"uint256","name":"","type":"uint256"}],"name":"listedProjects","outputs":[{"internalType":"uint256","name":"","type":"uint256"}],"stateMutability":"view","type":"function"},{"inputs":[{"internalType":"uint256","name":"","type":"uint256"}],"name":"marketplace","outputs":[{"internalType":"uint256","name":"","type":"uint256"}],"stateMutability":"view","type":"function"},{"inputs":[],"name":"nextProjectId","outputs":[{"internalType":"uint256","name":"","type":"uint256"}],"stateMutability":"view","type":"function"},{"inputs":[{"internalType":"address","name":"","type":"address"},{"internalType":"uint256","name":"","type":"uint256"}],"name":"ownedProjects","outputs":[{"internalType":"uint256","name":"","type":"uint256"}],"stateMutability":"view","type":"function"},{"inputs":[{"internalType":"uint256","name":"","type":"uint256"}],"name":"projects","outputs":[{"internalType":"uint256","name":"projectId","type":"uint256"},{"internalType":"string","name":"externalId","type":"string"},{"internalType":"string","name":"projectName","type":"string"},{"internalType":"string","name":"documentCID","type":"string"},{"internalType":"string","name":"certificateCID","type":"string"},{"internalType":"uint256","name":"valuePerCarbon","type":"uint256"},{"internalType":"uint256","name":"quantity","type":"uint256"},{"internalType":"string","name":"ownerName","type":"string"},{"internalType":"address","name":"ownerAddress","type":"address"},{"internalType":"uint256","name":"createdAt","type":"uint256"},{"internalType":"bool","name":"isResold","type":"bool"},{"internalType":"enum CarbonMarketplace.ProjectStatus","name":"status","type":"uint8"},{"internalType":"uint256","name":"marketplaceIndex","type":"uint256"}],"stateMutability":"view","type":"function"},{"inputs":[{"internalType":"string","name":"_externalId","type":"string"},{"internalType":"string","name":"_projectName","type":"string"},{"internalType":"string","name":"_documentCID","type":"string"},{"internalType":"uint256","name":"_valuePerCarbon","type":"uint256"},{"internalType":"uint256","name":"_quantity","type":"uint256"},{"internalType":"string","name":"_ownerName","type":"string"}],"name":"registerProject","outputs":[],"stateMutability":"nonpayable","type":"function"},{"inputs":[{"internalType":"uint256","name":"_ownedProjectId","type":"uint256"},{"internalType":"uint256","name":"_quantity","type":"uint256"},{"internalType":"uint256","name":"_newValuePerCarbon","type":"uint256"},{"internalType":"string","name":"_newExternalId","type":"string"},{"internalType":"string","name":"_ownerName","type":"string"}],"name":"resellProject","outputs":[],"stateMutability":"nonpayable","type":"function"},{"inputs":[{"internalType":"uint256","name":"_ownedProjectId","type":"uint256"},{"internalType":"uint256","name":"_quantity","type":"uint256"}],"name":"retireProject","outputs":[],"stateMutability":"nonpayable","type":"function"},{"inputs":[{"internalType":"address","name":"","type":"address"},{"internalType":"uint256","name":"","type":"uint256"}],"name":"retiredProjects","outputs":[{"internalType":"uint256","name":"","type":"uint256"}],"stateMutability":"view","type":"function"}],"evm":{"bytecode":{"linkReferences":{},"object":"60808060405234601e5760016000556001805561218b90816100248239f35b600080fdfe608080604052600436101561001357600080fd5b60003560e01c9081630d21bcd5146113a057508063107046bd146112685780632c8a84251461121e57806354686d60146111a4578063634b9f0414610ee05780638d50526314610e665780639914d34d14610e1c5780639b2788e614610c05578063b14bf0401461098f578063b8c6d9ea14610900578063d900175f146108d7578063e82128fe1461087e578063e935b7b114610860578063ea6d685d146103215763ff6c7702146100c457600080fd5b3461031c5760c036600319011261031c576004356001600160401b03811161031c576100f4903690600401611722565b6024356001600160401b03811161031c57610113903690600401611722565b6044356001600160401b03811161031c57610132903690600401611722565b91606435906084359060a4356001600160401b03811161031c5761015a903690600401611722565b9483156102d7578215610292577ffa2fd1753b587be87b00fc430156881a7fcb0128befbe710bd72db87c013b9c4936102579361027361028d9361026561020d6000604051906101a9826115c7565b8082528960208301528c60408301528460608301526040516101cc6020826115e3565b81815260808301528760a08301528660c08301528d60e083015233610100830152426101208301528061014083015280610160830152610180820152611b34565b996006548b6000526002602052600b6040600020015561022c8b6117ef565b3360005260046020526102438b6040600020611814565b60405198899860c08a5260c08a0190611416565b9088820360208a0152611416565b908682036040880152611416565b916060850152608084015282810360a08401523396611416565b0390a3005b60405162461bcd60e51b815260206004820152601f60248201527f5175616e74697479206d7573742062652067726561746572207468616e2030006044820152606490fd5b60405162461bcd60e51b815260206004820152601c60248201527f56616c7565206d7573742062652067726561746572207468616e2030000000006044820152606490fd5b600080fd5b61032a36611769565b9060016000540361082a576000805580600052600260205260ff600a6040600020015460081c166003811015610814576107d857811515806107bd575b610370906118ec565b806000526002602052600560406000200154828102908082048414901517156107295734036107845780600052600260205260018060a01b0360086040600020015416331461073f578060005260026020526040600020600681016103d68482546117e2565b80915515610643575b6001810191600982015493600080808061049e60ff600a8901541660405190610407826115c7565b8382526104138b611604565b602083015261042460028b01611604565b604083015261043560038b01611604565b606083015260209b8c61044b60405191826115e3565b85815260808401528460a08401528860c08401528c61046d60405191826115e3565b85815260e0840152336101008401526101208301521515610140820152600161016082015282610180820152611b34565b9633825260038a526104b38860408420611814565b6008015434906001600160a01b03165af13d1561063e573d6104d481611707565b906104e260405192836115e3565b81526000873d92013e5b156106025760405190606082526000948054906105088261158d565b918260608601526001811690816000146105bd5750600114610561575b5050907fe60690ff0ecbd1e6de15d7d227eae8a2679a8d095f4aa36f74a180ae42aa75e391868201523460408201528033950390a46001600055005b90955060005285600020866000915b8783106105a7575050820160800194507fe60690ff0ecbd1e6de15d7d227eae8a2679a8d095f4aa36f74a180ae42aa75e387610525565b8054858401608001529101908790600101610570565b60ff191660808681019190915292151560051b850190920196507fe60690ff0ecbd1e6de15d7d227eae8a2679a8d095f4aa36f74a180ae42aa75e39150889050610525565b60405162461bcd60e51b81526004810186905260146024820152732330b4b632b2103a379039b2b7321022ba3432b960611b6044820152606490fd5b6104ec565b816000526002602052600b604060002001546006546000198101908111610729578082036106db575b505060065480156106c5576000190161069a6106898260066116ef565b8154906000199060031b1b19169055565b60065560018060a01b0360088201541660005260046020526106c08260406000206120d8565b6103df565b634e487b7160e01b600052603160045260246000fd5b6106e4906116be565b90549060031b1c610711816106f8846116be565b90919082549060031b91821b91600019901b1916179055565b6000526002602052600b60406000200155838061066c565b634e487b7160e01b600052601160045260246000fd5b60405162461bcd60e51b815260206004820152601c60248201527f4f776e65722063616e6e6f7420627579206f776e2070726f6a656374000000006044820152606490fd5b60405162461bcd60e51b8152602060048201526011602482015270125b98dbdc9c9958dd081c185e5b595b9d607a1b6044820152606490fd5b50600081815260026020526040902060060154821115610367565b60405162461bcd60e51b815260206004820152601460248201527350726f6a656374206e6f7420666f722073616c6560601b6044820152606490fd5b634e487b7160e01b600052602160045260246000fd5b60405162461bcd60e51b815260206004820152600e60248201526d1499595b9d1c985b9d0818d85b1b60921b6044820152606490fd5b3461031c57600036600319011261031c576020600154604051908152f35b3461031c57604036600319011261031c576108976116a8565b6001600160a01b031660009081526003602052604090208054602435919082101561031c576020916108c8916116ef565b90549060031b1c604051908152f35b3461031c57602036600319011261031c5760043560065481101561031c576108c86020916116be565b3461031c57602036600319011261031c576001600160a01b036109216116a8565b166000526005602052604060002060405190816020825491828152019160005260206000209060005b8181106109795761097561096986610964818803826115e3565b611956565b60405191829182611464565b0390f35b825484526020909301926001928301920161094a565b3461031c5760a036600319011261031c576024356044356004356064356001600160401b03811161031c576109c8903690600401611722565b926084356001600160401b03811161031c576109e8903690600401611722565b6000838152600260205260409020600801549094906001600160a01b0316331480610bdb575b610a1790611796565b81151580610bc0575b610a29906118ec565b8315610b8b577f90fc6d0b2149961e49d8999db204a26bbc0d2df352de9669fa1cff9c3012b36491836000526002602052604060002094610b066006870196610a738489546117e2565b88556009810154610a926003610a8b60028501611604565b9301611604565b9060009160405193610aa3856115c7565b8385528860208601526040850152606084015260209a604051610ac68d826115e3565b83815260808501528560a08501528660c085015260e084015233610100840152610120830152600161014083015280610160830152610180820152611b34565b956006548760005260028952600b60406000200155610b24876117ef565b3360005260048852610b3a876040600020611814565b5415610b67575b610b5660405193606085526060850190611416565b9683015260408201528033950390a4005b610b718533611b13565b8460005260028752610b866040600020611886565b610b41565b60405162461bcd60e51b815260206004820152600d60248201526c496e76616c696420707269636560981b6044820152606490fd5b50600083815260026020526040902060060154821115610a20565b5082600052600260205260ff600a6040600020015460081c16600381101561081457600114610a0e565b3461031c57610c1336611769565b6000828152600260205260409020600801549091906001600160a01b0316331480610df2575b610c4290611796565b81151580610dd7575b15610d93578060005260026020526040600020907fcf6581b5e1a6333d196ba5ce44ad7c6b1d8f04ba461daf255263dc5888c7d9a96006830192610c908585546117e2565b8455610d46600982015460ff600a8401541660405191610caf836115c7565b60008352610cbf60018601611604565b6020840152610cd060028601611604565b6040840152610ce160038601611604565b6060840152610d176007602096604051610cfb89826115e3565b600081526080870152600060a08701528b60c087015201611604565b60e084015233610100840152610120830152151561014082015260026101608201526000610180820152611b34565b933360005260058252610d5d856040600020611814565b5415610d6f575b6040519485523394a4005b610d798333611b13565b8260005260028152610d8e6040600020611886565b610d64565b606460405162461bcd60e51b815260206004820152602060248201527f496e73756666696369656e74206f7220696e76616c6964207175616e746974796044820152fd5b50806000526002602052600660406000200154821115610c4b565b5080600052600260205260ff600a6040600020015460081c16600381101561081457600114610c39565b3461031c57604036600319011261031c57610e356116a8565b6001600160a01b031660009081526005602052604090208054602435919082101561031c576020916108c8916116ef565b3461031c57602036600319011261031c576001600160a01b03610e876116a8565b166000526003602052604060002060405190816020825491828152019160005260206000209060005b818110610eca5761097561096986610964818803826115e3565b8254845260209093019260019283019201610eb0565b3461031c57604036600319011261031c576004356024356001600160401b03811161031c57610f13903690600401611722565b90806000526002602052604060002060ff600a82015460081c166003811015610814576002036111665760088101546001600160a01b031633036111295760040191825492610f618461158d565b6110e4578151936001600160401b0385116110ce57610f7f9061158d565b601f8111611091575b50602093601f81116001146110075790610fe082610ff794937fb3f7a51d97edfec0a93ec31952a01e523033a70f92f1cfae631a92c02f5306d09697600091610ffc575b508160011b916000199060031b1c19161790565b90555b604051918291602083526020830190611416565b0390a2005b905084015188610fcc565b601f19811682600052856000209060005b8181106110795750916001917fb3f7a51d97edfec0a93ec31952a01e523033a70f92f1cfae631a92c02f5306d0969782610ff797969510611060575b5050811b019055610fe3565b85015160001960f88460031b161c191690558780611054565b85880151835560209788019760019093019201611018565b6110be90826000526020600020601f870160051c810191602088106110c4575b601f0160051c019061177f565b84610f88565b90915081906110b1565b634e487b7160e01b600052604160045260246000fd5b60405162461bcd60e51b815260206004820152601960248201527f436572746966696361746520616c7265616479206164646564000000000000006044820152606490fd5b60405162461bcd60e51b81526020600482015260156024820152742cb7ba9030b932903737ba103a34329037bbb732b960591b6044820152606490fd5b60405162461bcd60e51b8152602060048201526016602482015275141c9bda9958dd081a5cc81b9bdd081c995d1a5c995960521b6044820152606490fd5b3461031c57602036600319011261031c576001600160a01b036111c56116a8565b166000526004602052604060002060405190816020825491828152019160005260206000209060005b8181106112085761097561096986610964818803826115e3565b82548452602090930192600192830192016111ee565b3461031c57604036600319011261031c576112376116a8565b6001600160a01b031660009081526004602052604090208054602435919082101561031c576020916108c8916116ef565b3461031c57602036600319011261031c576004356000526002602052604060002080546001820161129890611604565b916112a560028201611604565b6112b160038301611604565b916112be60048201611604565b926005820154600683015490600784016112d790611604565b91600160a01b6001900360088601541696600986015494600a87015496600b0154976040519b8c9b8c5260208c016101a090526101a08c0161131891611416565b8b810360408d015261132991611416565b8a810360608c015261133a91611416565b89810360808b015261134b91611416565b9160a089015260c088015286810360e088015261136791611416565b9361010086015261012085015260ff8116151561014085015261016084019060081c60ff169061139691611457565b6101808301520390f35b3461031c57600036600319011261031c57600654808252602082019060066000527ff652222313e28459528d920b65115c16c04f3efc82aaedc97be59f3f377c0d3f9060005b8181106114005761097561096986610964818803826115e3565b82548452602090930192600192830192016113e6565b919082519283825260005b848110611442575050826000602080949584010152601f8019910116010190565b80602080928401015182828601015201611421565b9060038210156108145752565b602081016020825282518091526040820191602060408360051b8301019401926000915b83831061149757505050505090565b9091929394602080600192603f1985820301865288519081518152610180806115376115116114ff6114ed6114db898901516101a08b8a01526101a0890190611416565b604089015188820360408a0152611416565b60608801518782036060890152611416565b60808701518682036080880152611416565b60a086015160a086015260c086015160c086015260e086015185820360e0870152611416565b93878060a01b03610100820151166101008501526101208101516101208501526101408101511515610140850152611579610160820151610160860190611457565b015191015297019301930191939290611488565b90600182811c921680156115bd575b60208310146115a757565b634e487b7160e01b600052602260045260246000fd5b91607f169161159c565b6101a081019081106001600160401b038211176110ce57604052565b90601f801991011681019081106001600160401b038211176110ce57604052565b90604051918260008254926116188461158d565b8084529360018116908115611686575060011461163f575b5061163d925003836115e3565b565b90506000929192526020600020906000915b81831061166a57505090602061163d9282010138611630565b6020919350806001915483858901015201910190918492611651565b90506020925061163d94915060ff191682840152151560051b82010138611630565b600435906001600160a01b038216820361031c57565b6006548110156116d957600660005260206000200190600090565b634e487b7160e01b600052603260045260246000fd5b80548210156116d95760005260206000200190600090565b6001600160401b0381116110ce57601f01601f191660200190565b81601f8201121561031c5780359061173982611707565b9261174760405194856115e3565b8284526020838301011161031c57816000926020809301838601378301015290565b604090600319011261031c576004359060243590565b81811061178a575050565b6000815560010161177f565b1561179d57565b60405162461bcd60e51b815260206004820152601f60248201527f4e6f74206f776e6572206f662074686973206f776e65642070726f6a656374006044820152606490fd5b9190820391821161072957565b60065490600160401b8210156110ce576106f882600161163d940160065560066116ef565b90815491600160401b8310156110ce57826106f891600161163d950181556116ef565b611841815461158d565b908161184b575050565b81601f6000931160011461185d575055565b8183526020832061187991601f0160051c81019060010161177f565b8082528160208120915555565b600b60009182815561189a60018201611837565b6118a660028201611837565b6118b260038201611837565b6118be60048201611837565b8260058201558260068201556118d660078201611837565b82600882015582600982015582600a8201550155565b156118f357565b60405162461bcd60e51b815260206004820152601060248201526f496e76616c6964207175616e7469747960801b6044820152606490fd5b6001600160401b0381116110ce5760051b60200190565b80518210156116d95760209160051b010190565b908151916119638361192b565b9261197160405194856115e3565b808452611980601f199161192b565b0160005b818110611a9d57505060005b8151811015611a99576119a38183611942565b5160005260026020526040600020906040516119be816115c7565b825481526119ce60018401611604565b60208201526119df60028401611604565b60408201526119f060038401611604565b6060820152611a0160048401611604565b6080820152600583015460a0820152600683015460c0820152611a2660078401611604565b60e08201526008838101546001600160a01b03166101008301526009840154610120830152600a84015460ff8181161515610140850152911c16600381101561081457600193600b916101608401520154610180820152611a878287611942565b52611a928186611942565b5001611990565b5050565b602090604051611aac816115c7565b600081526060838201526060604082015260608082015260606080820152600060a0820152600060c0820152606060e08201526000610100820152600061012082015260006101408201526000610160820152600061018082015282828801015201611984565b6001600160a01b0316600090815260036020526040902061163d91906120d8565b600154919060001983146107295760018301600155828082526000526002602052604060002090805182556001820160208201518051906001600160401b0382116110ce57611b83835461158d565b601f81116120a6575b50602090601f831160011461203f57611bbe929160009183611dd0575b50508160011b916000199060031b1c19161790565b90555b6002820160408201518051906001600160401b0382116110ce57611be5835461158d565b601f811161200d575b50602090601f8311600114611fa657611c1f929160009183611dd05750508160011b916000199060031b1c19161790565b90555b6003820160608201518051906001600160401b0382116110ce57611c46835461158d565b601f8111611f74575b50602090601f8311600114611f0d57611c80929160009183611dd05750508160011b916000199060031b1c19161790565b90555b6004820160808201518051906001600160401b0382116110ce57611ca7835461158d565b601f8111611edb575b50602090601f8311600114611e7457611ce1929160009183611dd05750508160011b916000199060031b1c19161790565b90555b60a0810151600583015560c081015160068301556007820160e08201518051906001600160401b0382116110ce57611d1c835461158d565b601f8111611e42575b50602090601f8311600114611ddb57611d56929160009183611dd05750508160011b916000199060031b1c19161790565b90555b6008820160018060a01b03610100830151166bffffffffffffffffffffffff60a01b8254161790556101208101516009830155600a82019061014081015115159082549261016082015192600384101561081457600b9460ff61ff006101809660081b1692169061ffff1916171790550151910155565b015190503880611ba9565b90601f1983169184600052816000209260005b818110611e2a5750908460019594939210611e11575b505050811b019055611d59565b015160001960f88460031b161c19169055388080611e04565b92936020600181928786015181550195019301611dee565b611e6e90846000526020600020601f850160051c810191602086106110c457601f0160051c019061177f565b38611d25565b90601f1983169184600052816000209260005b818110611ec35750908460019594939210611eaa575b505050811b019055611ce4565b015160001960f88460031b161c19169055388080611e9d565b92936020600181928786015181550195019301611e87565b611f0790846000526020600020601f850160051c810191602086106110c457601f0160051c019061177f565b38611cb0565b90601f1983169184600052816000209260005b818110611f5c5750908460019594939210611f43575b505050811b019055611c83565b015160001960f88460031b161c19169055388080611f36565b92936020600181928786015181550195019301611f20565b611fa090846000526020600020601f850160051c810191602086106110c457601f0160051c019061177f565b38611c4f565b90601f1983169184600052816000209260005b818110611ff55750908460019594939210611fdc575b505050811b019055611c22565b015160001960f88460031b161c19169055388080611fcf565b92936020600181928786015181550195019301611fb9565b61203990846000526020600020601f850160051c810191602086106110c457601f0160051c019061177f565b38611bee565b90601f1983169184600052816000209260005b81811061208e5750908460019594939210612075575b505050811b019055611bc1565b015160001960f88460031b161c19169055388080612068565b92936020600181928786015181550195019301612052565b6120d290846000526020600020601f850160051c810191602086106110c457601f0160051c019061177f565b38611b8c565b60005b81548082101561214f57836120f083856116ef565b90549060031b1c1461210557506001016120db565b9192506000198201918211610729576106f861212461213293856116ef565b90549060031b1c91846116ef565b805480156106c557600019019061214c61068983836116ef565b55565b5050505056fea2646970667358221220ef378da7ac2d66b05fbd450943d77d8702560ea9c09e2559639cfd480a73adf764736f6c634300081c0033","opcodes":"PUSH1 0x80 DUP1 PUSH1 0x40 MSTORE CALLVALUE PUSH1 0x1E JUMPI PUSH1 0x1 PUSH1 0x0 SSTORE PUSH1 0x1 DUP1 SSTORE PUSH2 0x218B SWAP1 DUP2 PUSH2 0x24 DUP3 CODECOPY RETURN JUMPDEST PUSH1 0x0 DUP1 REVERT INVALID PUSH1 0x80 DUP1 PUSH1 0x40 MSTORE PUSH1 0x4 CALLDATASIZE LT ISZERO PUSH2 0x13 JUMPI PUSH1 0x0 DUP1 REVERT JUMPDEST PUSH1 0x0 CALLDATALOAD PUSH1 0xE0 SHR SWAP1 DUP2 PUSH4 0xD21BCD5 EQ PUSH2 0x13A0 JUMPI POP DUP1 PUSH4 0x107046BD EQ PUSH2 0x1268 JUMPI DUP1 PUSH4 0x2C8A8425 EQ PUSH2 0x121E JUMPI DUP1 PUSH4 0x54686D60 EQ PUSH2 0x11A4 JUMPI DUP1 PUSH4 0x634B9F04 EQ PUSH2 0xEE0 JUMPI DUP1 PUSH4 0x8D505263 EQ PUSH2 0xE66 JUMPI DUP1 PUSH4 0x9914D34D EQ PUSH2 0xE1C JUMPI DUP1 PUSH4 0x9B2788E6 EQ PUSH2 0xC05 JUMPI DUP1 PUSH4 0xB14BF040 EQ PUSH2 0x98F JUMPI DUP1 PUSH4 0xB8C6D9EA EQ PUSH2 0x900 JUMPI DUP1 PUSH4 0xD900175F EQ PUSH2 0x8D7 JUMPI DUP1 PUSH4 0xE82128FE EQ PUSH2 0x87E JUMPI DUP1 PUSH4 0xE935B7B1 EQ PUSH2 0x860 JUMPI DUP1 PUSH4 0xEA6D685D EQ PUSH2 0x321 JUMPI PUSH4 0xFF6C7702 EQ PUSH2 0xC4 JUMPI PUSH1 0x0 DUP1 REVERT JUMPDEST CALLVALUE PUSH2 0x31C JUMPI PUSH1 0xC0 CALLDATASIZE PUSH1 0x3 NOT ADD SLT PUSH2 0x31C JUMPI PUSH1 0x4 CALLDATALOAD PUSH1 0x1 PUSH1 0x1 PUSH1 0x40 SHL SUB DUP2 GT PUSH2 0x31C JUMPI PUSH2 0xF4 SWAP1 CALLDATASIZE SWAP1 PUSH1 0x4 ADD PUSH2 0x1722 JUMP JUMPDEST PUSH1 0x24 CALLDATALOAD PUSH1 0x1 PUSH1 0x1 PUSH1 0x40 SHL SUB DUP2 GT PUSH2 0x31C JUMPI PUSH2 0x113 SWAP1 CALLDATASIZE SWAP1 PUSH1 0x4 ADD PUSH2 0x1722 JUMP JUMPDEST PUSH1 0x44 CALLDATALOAD PUSH1 0x1 PUSH1 0x1 PUSH1 0x40 SHL SUB DUP2 GT PUSH2 0x31C JUMPI PUSH2 0x132 SWAP1 CALLDATASIZE SWAP1 PUSH1 0x4 ADD PUSH2 0x1722 JUMP JUMPDEST SWAP2 PUSH1 0x64 CALLDATALOAD SWAP1 PUSH1 0x84 CALLDATALOAD SWAP1 PUSH1 0xA4 CALLDATALOAD PUSH1 0x1 PUSH1 0x1 PUSH1 0x40 SHL SUB DUP2 GT PUSH2 0x31C JUMPI PUSH2 0x15A SWAP1 CALLDATASIZE SWAP1 PUSH1 0x4 ADD PUSH2 0x1722 JUMP JUMPDEST SWAP5 DUP4 ISZERO PUSH2 0x2D7 JUMPI DUP3 ISZERO PUSH2 0x292 JUMPI PUSH32 0xFA2FD1753B587BE87B00FC430156881A7FCB0128BEFBE710BD72DB87C013B9C4 SWAP4 PUSH2 0x257 SWAP4 PUSH2 0x273 PUSH2 0x28D SWAP4 PUSH2 0x265 PUSH2 0x20D PUSH1 0x0 PUSH1 0x40 MLOAD SWAP1 PUSH2 0x1A9 DUP3 PUSH2 0x15C7 JUMP JUMPDEST DUP1 DUP3 MSTORE DUP10 PUSH1 0x20 DUP4 ADD MSTORE DUP13 PUSH1 0x40 DUP4 ADD MSTORE DUP5 PUSH1 0x60 DUP4 ADD MSTORE PUSH1 0x40 MLOAD PUSH2 0x1CC PUSH1 0x20 DUP3 PUSH2 0x15E3 JUMP JUMPDEST DUP2 DUP2 MSTORE PUSH1 0x80 DUP4 ADD MSTORE DUP8 PUSH1 0xA0 DUP4 ADD MSTORE DUP7 PUSH1 0xC0 DUP4 ADD MSTORE DUP14 PUSH1 0xE0 DUP4 ADD MSTORE CALLER PUSH2 0x100 DUP4 ADD MSTORE TIMESTAMP PUSH2 0x120 DUP4 ADD MSTORE DUP1 PUSH2 0x140 DUP4 ADD MSTORE DUP1 PUSH2 0x160 DUP4 ADD MSTORE PUSH2 0x180 DUP3 ADD MSTORE PUSH2 0x1B34 JUMP JUMPDEST SWAP10 PUSH1 0x6 SLOAD DUP12 PUSH1 0x0 MSTORE PUSH1 0x2 PUSH1 0x20 MSTORE PUSH1 0xB PUSH1 0x40 PUSH1 0x0 KECCAK256 ADD SSTORE PUSH2 0x22C DUP12 PUSH2 0x17EF JUMP JUMPDEST CALLER PUSH1 0x0 MSTORE PUSH1 0x4 PUSH1 0x20 MSTORE PUSH2 0x243 DUP12 PUSH1 0x40 PUSH1 0x0 KECCAK256 PUSH2 0x1814 JUMP JUMPDEST PUSH1 0x40 MLOAD SWAP9 DUP10 SWAP9 PUSH1 0xC0 DUP11 MSTORE PUSH1 0xC0 DUP11 ADD SWAP1 PUSH2 0x1416 JUMP JUMPDEST SWAP1 DUP9 DUP3 SUB PUSH1 0x20 DUP11 ADD MSTORE PUSH2 0x1416 JUMP JUMPDEST SWAP1 DUP7 DUP3 SUB PUSH1 0x40 DUP9 ADD MSTORE PUSH2 0x1416 JUMP JUMPDEST SWAP2 PUSH1 0x60 DUP6 ADD MSTORE PUSH1 0x80 DUP5 ADD MSTORE DUP3 DUP2 SUB PUSH1 0xA0 DUP5 ADD MSTORE CALLER SWAP7 PUSH2 0x1416 JUMP JUMPDEST SUB SWAP1 LOG3 STOP JUMPDEST PUSH1 0x40 MLOAD PUSH3 0x461BCD PUSH1 0xE5 SHL DUP2 MSTORE PUSH1 0x20 PUSH1 0x4 DUP3 ADD MSTORE PUSH1 0x1F PUSH1 0x24 DUP3 ADD MSTORE PUSH32 0x5175616E74697479206D7573742062652067726561746572207468616E203000 PUSH1 0x44 DUP3 ADD MSTORE PUSH1 0x64 SWAP1 REVERT JUMPDEST PUSH1 0x40 MLOAD PUSH3 0x461BCD PUSH1 0xE5 SHL DUP2 MSTORE PUSH1 0x20 PUSH1 0x4 DUP3 ADD MSTORE PUSH1 0x1C PUSH1 0x24 DUP3 ADD MSTORE PUSH32 0x56616C7565206D7573742062652067726561746572207468616E203000000000 PUSH1 0x44 DUP3 ADD MSTORE PUSH1 0x64 SWAP1 REVERT JUMPDEST PUSH1 0x0 DUP1 REVERT JUMPDEST PUSH2 0x32A CALLDATASIZE PUSH2 0x1769 JUMP JUMPDEST SWAP1 PUSH1 0x1 PUSH1 0x0 SLOAD SUB PUSH2 0x82A JUMPI PUSH1 0x0 DUP1 SSTORE DUP1 PUSH1 0x0 MSTORE PUSH1 0x2 PUSH1 0x20 MSTORE PUSH1 0xFF PUSH1 0xA PUSH1 0x40 PUSH1 0x0 KECCAK256 ADD SLOAD PUSH1 0x8 SHR AND PUSH1 0x3 DUP2 LT ISZERO PUSH2 0x814 JUMPI PUSH2 0x7D8 JUMPI DUP2 ISZERO ISZERO DUP1 PUSH2 0x7BD JUMPI JUMPDEST PUSH2 0x370 SWAP1 PUSH2 0x18EC JUMP JUMPDEST DUP1 PUSH1 0x0 MSTORE PUSH1 0x2 PUSH1 0x20 MSTORE PUSH1 0x5 PUSH1 0x40 PUSH1 0x0 KECCAK256 ADD SLOAD DUP3 DUP2 MUL SWAP1 DUP1 DUP3 DIV DUP5 EQ SWAP1 ISZERO OR ISZERO PUSH2 0x729 JUMPI CALLVALUE SUB PUSH2 0x784 JUMPI DUP1 PUSH1 0x0 MSTORE PUSH1 0x2 PUSH1 0x20 MSTORE PUSH1 0x1 DUP1 PUSH1 0xA0 SHL SUB PUSH1 0x8 PUSH1 0x40 PUSH1 0x0 KECCAK256 ADD SLOAD AND CALLER EQ PUSH2 0x73F JUMPI DUP1 PUSH1 0x0 MSTORE PUSH1 0x2 PUSH1 0x20 MSTORE PUSH1 0x40 PUSH1 0x0 KECCAK256 PUSH1 0x6 DUP2 ADD PUSH2 0x3D6 DUP5 DUP3 SLOAD PUSH2 0x17E2 JUMP JUMPDEST DUP1 SWAP2 SSTORE ISZERO PUSH2 0x643 JUMPI JUMPDEST PUSH1 0x1 DUP2 ADD SWAP2 PUSH1 0x9 DUP3 ADD SLOAD SWAP4 PUSH1 0x0 DUP1 DUP1 DUP1 PUSH2 0x49E PUSH1 0xFF PUSH1 0xA DUP10 ADD SLOAD AND PUSH1 0x40 MLOAD SWAP1 PUSH2 0x407 DUP3 PUSH2 0x15C7 JUMP JUMPDEST DUP4 DUP3 MSTORE PUSH2 0x413 DUP12 PUSH2 0x1604 JUMP JUMPDEST PUSH1 0x20 DUP4 ADD MSTORE PUSH2 0x424 PUSH1 0x2 DUP12 ADD PUSH2 0x1604 JUMP JUMPDEST PUSH1 0x40 DUP4 ADD MSTORE PUSH2 0x435 PUSH1 0x3 DUP12 ADD PUSH2 0x1604 JUMP JUMPDEST PUSH1 0x60 DUP4 ADD MSTORE PUSH1 0x20 SWAP12 DUP13 PUSH2 0x44B PUSH1 0x40 MLOAD SWAP2 DUP3 PUSH2 0x15E3 JUMP JUMPDEST DUP6 DUP2 MSTORE PUSH1 0x80 DUP5 ADD MSTORE DUP5 PUSH1 0xA0 DUP5 ADD MSTORE DUP9 PUSH1 0xC0 DUP5 ADD MSTORE DUP13 PUSH2 0x46D PUSH1 0x40 MLOAD SWAP2 DUP3 PUSH2 0x15E3 JUMP JUMPDEST DUP6 DUP2 MSTORE PUSH1 0xE0 DUP5 ADD MSTORE CALLER PUSH2 0x100 DUP5 ADD MSTORE PUSH2 0x120 DUP4 ADD MSTORE ISZERO ISZERO PUSH2 0x140 DUP3 ADD MSTORE PUSH1 0x1 PUSH2 0x160 DUP3 ADD MSTORE DUP3 PUSH2 0x180 DUP3 ADD MSTORE PUSH2 0x1B34 JUMP JUMPDEST SWAP7 CALLER DUP3 MSTORE PUSH1 0x3 DUP11 MSTORE PUSH2 0x4B3 DUP9 PUSH1 0x40 DUP5 KECCAK256 PUSH2 0x1814 JUMP JUMPDEST PUSH1 0x8 ADD SLOAD CALLVALUE SWAP1 PUSH1 0x1 PUSH1 0x1 PUSH1 0xA0 SHL SUB AND GAS CALL RETURNDATASIZE ISZERO PUSH2 0x63E JUMPI RETURNDATASIZE PUSH2 0x4D4 DUP2 PUSH2 0x1707 JUMP JUMPDEST SWAP1 PUSH2 0x4E2 PUSH1 0x40 MLOAD SWAP3 DUP4 PUSH2 0x15E3 JUMP JUMPDEST DUP2 MSTORE PUSH1 0x0 DUP8 RETURNDATASIZE SWAP3 ADD RETURNDATACOPY JUMPDEST ISZERO PUSH2 0x602 JUMPI PUSH1 0x40 MLOAD SWAP1 PUSH1 0x60 DUP3 MSTORE PUSH1 0x0 SWAP5 DUP1 SLOAD SWAP1 PUSH2 0x508 DUP3 PUSH2 0x158D JUMP JUMPDEST SWAP2 DUP3 PUSH1 0x60 DUP7 ADD MSTORE PUSH1 0x1 DUP2 AND SWAP1 DUP2 PUSH1 0x0 EQ PUSH2 0x5BD JUMPI POP PUSH1 0x1 EQ PUSH2 0x561 JUMPI JUMPDEST POP POP SWAP1 PUSH32 0xE60690FF0ECBD1E6DE15D7D227EAE8A2679A8D095F4AA36F74A180AE42AA75E3 SWAP2 DUP7 DUP3 ADD MSTORE CALLVALUE PUSH1 0x40 DUP3 ADD MSTORE DUP1 CALLER SWAP6 SUB SWAP1 LOG4 PUSH1 0x1 PUSH1 0x0 SSTORE STOP JUMPDEST SWAP1 SWAP6 POP PUSH1 0x0 MSTORE DUP6 PUSH1 0x0 KECCAK256 DUP7 PUSH1 0x0 SWAP2 JUMPDEST DUP8 DUP4 LT PUSH2 0x5A7 JUMPI POP POP DUP3 ADD PUSH1 0x80 ADD SWAP5 POP PUSH32 0xE60690FF0ECBD1E6DE15D7D227EAE8A2679A8D095F4AA36F74A180AE42AA75E3 DUP8 PUSH2 0x525 JUMP JUMPDEST DUP1 SLOAD DUP6 DUP5 ADD PUSH1 0x80 ADD MSTORE SWAP2 ADD SWAP1 DUP8 SWAP1 PUSH1 0x1 ADD PUSH2 0x570 JUMP JUMPDEST PUSH1 0xFF NOT AND PUSH1 0x80 DUP7 DUP2 ADD SWAP2 SWAP1 SWAP2 MSTORE SWAP3 ISZERO ISZERO PUSH1 0x5 SHL DUP6 ADD SWAP1 SWAP3 ADD SWAP7 POP PUSH32 0xE60690FF0ECBD1E6DE15D7D227EAE8A2679A8D095F4AA36F74A180AE42AA75E3 SWAP2 POP DUP9 SWAP1 POP PUSH2 0x525 JUMP JUMPDEST PUSH1 0x40 MLOAD PUSH3 0x461BCD PUSH1 0xE5 SHL DUP2 MSTORE PUSH1 0x4 DUP2 ADD DUP7 SWAP1 MSTORE PUSH1 0x14 PUSH1 0x24 DUP3 ADD MSTORE PUSH20 0x2330B4B632B2103A379039B2B7321022BA3432B9 PUSH1 0x61 SHL PUSH1 0x44 DUP3 ADD MSTORE PUSH1 0x64 SWAP1 REVERT JUMPDEST PUSH2 0x4EC JUMP JUMPDEST DUP2 PUSH1 0x0 MSTORE PUSH1 0x2 PUSH1 0x20 MSTORE PUSH1 0xB PUSH1 0x40 PUSH1 0x0 KECCAK256 ADD SLOAD PUSH1 0x6 SLOAD PUSH1 0x0 NOT DUP2 ADD SWAP1 DUP2 GT PUSH2 0x729 JUMPI DUP1 DUP3 SUB PUSH2 0x6DB JUMPI JUMPDEST POP POP PUSH1 0x6 SLOAD DUP1 ISZERO PUSH2 0x6C5 JUMPI PUSH1 0x0 NOT ADD PUSH2 0x69A PUSH2 0x689 DUP3 PUSH1 0x6 PUSH2 0x16EF JUMP JUMPDEST DUP2 SLOAD SWAP1 PUSH1 0x0 NOT SWAP1 PUSH1 0x3 SHL SHL NOT AND SWAP1 SSTORE JUMP JUMPDEST PUSH1 0x6 SSTORE PUSH1 0x1 DUP1 PUSH1 0xA0 SHL SUB PUSH1 0x8 DUP3 ADD SLOAD AND PUSH1 0x0 MSTORE PUSH1 0x4 PUSH1 0x20 MSTORE PUSH2 0x6C0 DUP3 PUSH1 0x40 PUSH1 0x0 KECCAK256 PUSH2 0x20D8 JUMP JUMPDEST PUSH2 0x3DF JUMP JUMPDEST PUSH4 0x4E487B71 PUSH1 0xE0 SHL PUSH1 0x0 MSTORE PUSH1 0x31 PUSH1 0x4 MSTORE PUSH1 0x24 PUSH1 0x0 REVERT JUMPDEST PUSH2 0x6E4 SWAP1 PUSH2 0x16BE JUMP JUMPDEST SWAP1 SLOAD SWAP1 PUSH1 0x3 SHL SHR PUSH2 0x711 DUP2 PUSH2 0x6F8 DUP5 PUSH2 0x16BE JUMP JUMPDEST SWAP1 SWAP2 SWAP1 DUP3 SLOAD SWAP1 PUSH1 0x3 SHL SWAP2 DUP3 SHL SWAP2 PUSH1 0x0 NOT SWAP1 SHL NOT AND OR SWAP1 SSTORE JUMP JUMPDEST PUSH1 0x0 MSTORE PUSH1 0x2 PUSH1 0x20 MSTORE PUSH1 0xB PUSH1 0x40 PUSH1 0x0 KECCAK256 ADD SSTORE DUP4 DUP1 PUSH2 0x66C JUMP JUMPDEST PUSH4 0x4E487B71 PUSH1 0xE0 SHL PUSH1 0x0 MSTORE PUSH1 0x11 PUSH1 0x4 MSTORE PUSH1 0x24 PUSH1 0x0 REVERT JUMPDEST PUSH1 0x40 MLOAD PUSH3 0x461BCD PUSH1 0xE5 SHL DUP2 MSTORE PUSH1 0x20 PUSH1 0x4 DUP3 ADD MSTORE PUSH1 0x1C PUSH1 0x24 DUP3 ADD MSTORE PUSH32 0x4F776E65722063616E6E6F7420627579206F776E2070726F6A65637400000000 PUSH1 0x44 DUP3 ADD MSTORE PUSH1 0x64 SWAP1 REVERT JUMPDEST PUSH1 0x40 MLOAD PUSH3 0x461BCD PUSH1 0xE5 SHL DUP2 MSTORE PUSH1 0x20 PUSH1 0x4 DUP3 ADD MSTORE PUSH1 0x11 PUSH1 0x24 DUP3 ADD MSTORE PUSH17 0x125B98DBDC9C9958DD081C185E5B595B9D PUSH1 0x7A SHL PUSH1 0x44 DUP3 ADD MSTORE PUSH1 0x64 SWAP1 REVERT JUMPDEST POP PUSH1 0x0 DUP2 DUP2 MSTORE PUSH1 0x2 PUSH1 0x20 MSTORE PUSH1 0x40 SWAP1 KECCAK256 PUSH1 0x6 ADD SLOAD DUP3 GT ISZERO PUSH2 0x367 JUMP JUMPDEST PUSH1 0x40 MLOAD PUSH3 0x461BCD PUSH1 0xE5 SHL DUP2 MSTORE PUSH1 0x20 PUSH1 0x4 DUP3 ADD MSTORE PUSH1 0x14 PUSH1 0x24 DUP3 ADD MSTORE PUSH20 0x50726F6A656374206E6F7420666F722073616C65 PUSH1 0x60 SHL PUSH1 0x44 DUP3 ADD MSTORE PUSH1 0x64 SWAP1 REVERT JUMPDEST PUSH4 0x4E487B71 PUSH1 0xE0 SHL PUSH1 0x0 MSTORE PUSH1 0x21 PUSH1 0x4 MSTORE PUSH1 0x24 PUSH1 0x0 REVERT JUMPDEST PUSH1 0x40 MLOAD PUSH3 0x461BCD PUSH1 0xE5 SHL DUP2 MSTORE PUSH1 0x20 PUSH1 0x4 DUP3 ADD MSTORE PUSH1 0xE PUSH1 0x24 DUP3 ADD MSTORE PUSH14 0x1499595B9D1C985B9D0818D85B1B PUSH1 0x92 SHL PUSH1 0x44 DUP3 ADD MSTORE PUSH1 0x64 SWAP1 REVERT JUMPDEST CALLVALUE PUSH2 0x31C JUMPI PUSH1 0x0 CALLDATASIZE PUSH1 0x3 NOT ADD SLT PUSH2 0x31C JUMPI PUSH1 0x20 PUSH1 0x1 SLOAD PUSH1 0x40 MLOAD SWAP1 DUP2 MSTORE RETURN JUMPDEST CALLVALUE PUSH2 0x31C JUMPI PUSH1 0x40 CALLDATASIZE PUSH1 0x3 NOT ADD SLT PUSH2 0x31C JUMPI PUSH2 0x897 PUSH2 0x16A8 JUMP JUMPDEST PUSH1 0x1 PUSH1 0x1 PUSH1 0xA0 SHL SUB AND PUSH1 0x0 SWAP1 DUP2 MSTORE PUSH1 0x3 PUSH1 0x20 MSTORE PUSH1 0x40 SWAP1 KECCAK256 DUP1 SLOAD PUSH1 0x24 CALLDATALOAD SWAP2 SWAP1 DUP3 LT ISZERO PUSH2 0x31C JUMPI PUSH1 0x20 SWAP2 PUSH2 0x8C8 SWAP2 PUSH2 0x16EF JUMP JUMPDEST SWAP1 SLOAD SWAP1 PUSH1 0x3 SHL SHR PUSH1 0x40 MLOAD SWAP1 DUP2 MSTORE RETURN JUMPDEST CALLVALUE PUSH2 0x31C JUMPI PUSH1 0x20 CALLDATASIZE PUSH1 0x3 NOT ADD SLT PUSH2 0x31C JUMPI PUSH1 0x4 CALLDATALOAD PUSH1 0x6 SLOAD DUP2 LT ISZERO PUSH2 0x31C JUMPI PUSH2 0x8C8 PUSH1 0x20 SWAP2 PUSH2 0x16BE JUMP JUMPDEST CALLVALUE PUSH2 0x31C JUMPI PUSH1 0x20 CALLDATASIZE PUSH1 0x3 NOT ADD SLT PUSH2 0x31C JUMPI PUSH1 0x1 PUSH1 0x1 PUSH1 0xA0 SHL SUB PUSH2 0x921 PUSH2 0x16A8 JUMP JUMPDEST AND PUSH1 0x0 MSTORE PUSH1 0x5 PUSH1 0x20 MSTORE PUSH1 0x40 PUSH1 0x0 KECCAK256 PUSH1 0x40 MLOAD SWAP1 DUP2 PUSH1 0x20 DUP3 SLOAD SWAP2 DUP3 DUP2 MSTORE ADD SWAP2 PUSH1 0x0 MSTORE PUSH1 0x20 PUSH1 0x0 KECCAK256 SWAP1 PUSH1 0x0 JUMPDEST DUP2 DUP2 LT PUSH2 0x979 JUMPI PUSH2 0x975 PUSH2 0x969 DUP7 PUSH2 0x964 DUP2 DUP9 SUB DUP3 PUSH2 0x15E3 JUMP JUMPDEST PUSH2 0x1956 JUMP JUMPDEST PUSH1 0x40 MLOAD SWAP2 DUP3 SWAP2 DUP3 PUSH2 0x1464 JUMP JUMPDEST SUB SWAP1 RETURN JUMPDEST DUP3 SLOAD DUP5 MSTORE PUSH1 0x20 SWAP1 SWAP4 ADD SWAP3 PUSH1 0x1 SWAP3 DUP4 ADD SWAP3 ADD PUSH2 0x94A JUMP JUMPDEST CALLVALUE PUSH2 0x31C JUMPI PUSH1 0xA0 CALLDATASIZE PUSH1 0x3 NOT ADD SLT PUSH2 0x31C JUMPI PUSH1 0x24 CALLDATALOAD PUSH1 0x44 CALLDATALOAD PUSH1 0x4 CALLDATALOAD PUSH1 0x64 CALLDATALOAD PUSH1 0x1 PUSH1 0x1 PUSH1 0x40 SHL SUB DUP2 GT PUSH2 0x31C JUMPI PUSH2 0x9C8 SWAP1 CALLDATASIZE SWAP1 PUSH1 0x4 ADD PUSH2 0x1722 JUMP JUMPDEST SWAP3 PUSH1 0x84 CALLDATALOAD PUSH1 0x1 PUSH1 0x1 PUSH1 0x40 SHL SUB DUP2 GT PUSH2 0x31C JUMPI PUSH2 0x9E8 SWAP1 CALLDATASIZE SWAP1 PUSH1 0x4 ADD PUSH2 0x1722 JUMP JUMPDEST PUSH1 0x0 DUP4 DUP2 MSTORE PUSH1 0x2 PUSH1 0x20 MSTORE PUSH1 0x40 SWAP1 KECCAK256 PUSH1 0x8 ADD SLOAD SWAP1 SWAP5 SWAP1 PUSH1 0x1 PUSH1 0x1 PUSH1 0xA0 SHL SUB AND CALLER EQ DUP1 PUSH2 0xBDB JUMPI JUMPDEST PUSH2 0xA17 SWAP1 PUSH2 0x1796 JUMP JUMPDEST DUP2 ISZERO ISZERO DUP1 PUSH2 0xBC0 JUMPI JUMPDEST PUSH2 0xA29 SWAP1 PUSH2 0x18EC JUMP JUMPDEST DUP4 ISZERO PUSH2 0xB8B JUMPI PUSH32 0x90FC6D0B2149961E49D8999DB204A26BBC0D2DF352DE9669FA1CFF9C3012B364 SWAP2 DUP4 PUSH1 0x0 MSTORE PUSH1 0x2 PUSH1 0x20 MSTORE PUSH1 0x40 PUSH1 0x0 KECCAK256 SWAP5 PUSH2 0xB06 PUSH1 0x6 DUP8 ADD SWAP7 PUSH2 0xA73 DUP5 DUP10 SLOAD PUSH2 0x17E2 JUMP JUMPDEST DUP9 SSTORE PUSH1 0x9 DUP2 ADD SLOAD PUSH2 0xA92 PUSH1 0x3 PUSH2 0xA8B PUSH1 0x2 DUP6 ADD PUSH2 0x1604 JUMP JUMPDEST SWAP4 ADD PUSH2 0x1604 JUMP JUMPDEST SWAP1 PUSH1 0x0 SWAP2 PUSH1 0x40 MLOAD SWAP4 PUSH2 0xAA3 DUP6 PUSH2 0x15C7 JUMP JUMPDEST DUP4 DUP6 MSTORE DUP9 PUSH1 0x20 DUP7 ADD MSTORE PUSH1 0x40 DUP6 ADD MSTORE PUSH1 0x60 DUP5 ADD MSTORE PUSH1 0x20 SWAP11 PUSH1 0x40 MLOAD PUSH2 0xAC6 DUP14 DUP3 PUSH2 0x15E3 JUMP JUMPDEST DUP4 DUP2 MSTORE PUSH1 0x80 DUP6 ADD MSTORE DUP6 PUSH1 0xA0 DUP6 ADD MSTORE DUP7 PUSH1 0xC0 DUP6 ADD MSTORE PUSH1 0xE0 DUP5 ADD MSTORE CALLER PUSH2 0x100 DUP5 ADD MSTORE PUSH2 0x120 DUP4 ADD MSTORE PUSH1 0x1 PUSH2 0x140 DUP4 ADD MSTORE DUP1 PUSH2 0x160 DUP4 ADD MSTORE PUSH2 0x180 DUP3 ADD MSTORE PUSH2 0x1B34 JUMP JUMPDEST SWAP6 PUSH1 0x6 SLOAD DUP8 PUSH1 0x0 MSTORE PUSH1 0x2 DUP10 MSTORE PUSH1 0xB PUSH1 0x40 PUSH1 0x0 KECCAK256 ADD SSTORE PUSH2 0xB24 DUP8 PUSH2 0x17EF JUMP JUMPDEST CALLER PUSH1 0x0 MSTORE PUSH1 0x4 DUP9 MSTORE PUSH2 0xB3A DUP8 PUSH1 0x40 PUSH1 0x0 KECCAK256 PUSH2 0x1814 JUMP JUMPDEST SLOAD ISZERO PUSH2 0xB67 JUMPI JUMPDEST PUSH2 0xB56 PUSH1 0x40 MLOAD SWAP4 PUSH1 0x60 DUP6 MSTORE PUSH1 0x60 DUP6 ADD SWAP1 PUSH2 0x1416 JUMP JUMPDEST SWAP7 DUP4 ADD MSTORE PUSH1 0x40 DUP3 ADD MSTORE DUP1 CALLER SWAP6 SUB SWAP1 LOG4 STOP JUMPDEST PUSH2 0xB71 DUP6 CALLER PUSH2 0x1B13 JUMP JUMPDEST DUP5 PUSH1 0x0 MSTORE PUSH1 0x2 DUP8 MSTORE PUSH2 0xB86 PUSH1 0x40 PUSH1 0x0 KECCAK256 PUSH2 0x1886 JUMP JUMPDEST PUSH2 0xB41 JUMP JUMPDEST PUSH1 0x40 MLOAD PUSH3 0x461BCD PUSH1 0xE5 SHL DUP2 MSTORE PUSH1 0x20 PUSH1 0x4 DUP3 ADD MSTORE PUSH1 0xD PUSH1 0x24 DUP3 ADD MSTORE PUSH13 0x496E76616C6964207072696365 PUSH1 0x98 SHL PUSH1 0x44 DUP3 ADD MSTORE PUSH1 0x64 SWAP1 REVERT JUMPDEST POP PUSH1 0x0 DUP4 DUP2 MSTORE PUSH1 0x2 PUSH1 0x20 MSTORE PUSH1 0x40 SWAP1 KECCAK256 PUSH1 0x6 ADD SLOAD DUP3 GT ISZERO PUSH2 0xA20 JUMP JUMPDEST POP DUP3 PUSH1 0x0 MSTORE PUSH1 0x2 PUSH1 0x20 MSTORE PUSH1 0xFF PUSH1 0xA PUSH1 0x40 PUSH1 0x0 KECCAK256 ADD SLOAD PUSH1 0x8 SHR AND PUSH1 0x3 DUP2 LT ISZERO PUSH2 0x814 JUMPI PUSH1 0x1 EQ PUSH2 0xA0E JUMP JUMPDEST CALLVALUE PUSH2 0x31C JUMPI PUSH2 0xC13 CALLDATASIZE PUSH2 0x1769 JUMP JUMPDEST PUSH1 0x0 DUP3 DUP2 MSTORE PUSH1 0x2 PUSH1 0x20 MSTORE PUSH1 0x40 SWAP1 KECCAK256 PUSH1 0x8 ADD SLOAD SWAP1 SWAP2 SWAP1 PUSH1 0x1 PUSH1 0x1 PUSH1 0xA0 SHL SUB AND CALLER EQ DUP1 PUSH2 0xDF2 JUMPI JUMPDEST PUSH2 0xC42 SWAP1 PUSH2 0x1796 JUMP JUMPDEST DUP2 ISZERO ISZERO DUP1 PUSH2 0xDD7 JUMPI JUMPDEST ISZERO PUSH2 0xD93 JUMPI DUP1 PUSH1 0x0 MSTORE PUSH1 0x2 PUSH1 0x20 MSTORE PUSH1 0x40 PUSH1 0x0 KECCAK256 SWAP1 PUSH32 0xCF6581B5E1A6333D196BA5CE44AD7C6B1D8F04BA461DAF255263DC5888C7D9A9 PUSH1 0x6 DUP4 ADD SWAP3 PUSH2 0xC90 DUP6 DUP6 SLOAD PUSH2 0x17E2 JUMP JUMPDEST DUP5 SSTORE PUSH2 0xD46 PUSH1 0x9 DUP3 ADD SLOAD PUSH1 0xFF PUSH1 0xA DUP5 ADD SLOAD AND PUSH1 0x40 MLOAD SWAP2 PUSH2 0xCAF DUP4 PUSH2 0x15C7 JUMP JUMPDEST PUSH1 0x0 DUP4 MSTORE PUSH2 0xCBF PUSH1 0x1 DUP7 ADD PUSH2 0x1604 JUMP JUMPDEST PUSH1 0x20 DUP5 ADD MSTORE PUSH2 0xCD0 PUSH1 0x2 DUP7 ADD PUSH2 0x1604 JUMP JUMPDEST PUSH1 0x40 DUP5 ADD MSTORE PUSH2 0xCE1 PUSH1 0x3 DUP7 ADD PUSH2 0x1604 JUMP JUMPDEST PUSH1 0x60 DUP5 ADD MSTORE PUSH2 0xD17 PUSH1 0x7 PUSH1 0x20 SWAP7 PUSH1 0x40 MLOAD PUSH2 0xCFB DUP10 DUP3 PUSH2 0x15E3 JUMP JUMPDEST PUSH1 0x0 DUP2 MSTORE PUSH1 0x80 DUP8 ADD MSTORE PUSH1 0x0 PUSH1 0xA0 DUP8 ADD MSTORE DUP12 PUSH1 0xC0 DUP8 ADD MSTORE ADD PUSH2 0x1604 JUMP JUMPDEST PUSH1 0xE0 DUP5 ADD MSTORE CALLER PUSH2 0x100 DUP5 ADD MSTORE PUSH2 0x120 DUP4 ADD MSTORE ISZERO ISZERO PUSH2 0x140 DUP3 ADD MSTORE PUSH1 0x2 PUSH2 0x160 DUP3 ADD MSTORE PUSH1 0x0 PUSH2 0x180 DUP3 ADD MSTORE PUSH2 0x1B34 JUMP JUMPDEST SWAP4 CALLER PUSH1 0x0 MSTORE PUSH1 0x5 DUP3 MSTORE PUSH2 0xD5D DUP6 PUSH1 0x40 PUSH1 0x0 KECCAK256 PUSH2 0x1814 JUMP JUMPDEST SLOAD ISZERO PUSH2 0xD6F JUMPI JUMPDEST PUSH1 0x40 MLOAD SWAP5 DUP6 MSTORE CALLER SWAP5 LOG4 STOP JUMPDEST PUSH2 0xD79 DUP4 CALLER PUSH2 0x1B13 JUMP JUMPDEST DUP3 PUSH1 0x0 MSTORE PUSH1 0x2 DUP2 MSTORE PUSH2 0xD8E PUSH1 0x40 PUSH1 0x0 KECCAK256 PUSH2 0x1886 JUMP JUMPDEST PUSH2 0xD64 JUMP JUMPDEST PUSH1 0x64 PUSH1 0x40 MLOAD PUSH3 0x461BCD PUSH1 0xE5 SHL DUP2 MSTORE PUSH1 0x20 PUSH1 0x4 DUP3 ADD MSTORE PUSH1 0x20 PUSH1 0x24 DUP3 ADD MSTORE PUSH32 0x496E73756666696369656E74206F7220696E76616C6964207175616E74697479 PUSH1 0x44 DUP3 ADD MSTORE REVERT JUMPDEST POP DUP1 PUSH1 0x0 MSTORE PUSH1 0x2 PUSH1 0x20 MSTORE PUSH1 0x6 PUSH1 0x40 PUSH1 0x0 KECCAK256 ADD SLOAD DUP3 GT ISZERO PUSH2 0xC4B JUMP JUMPDEST POP DUP1 PUSH1 0x0 MSTORE PUSH1 0x2 PUSH1 0x20 MSTORE PUSH1 0xFF PUSH1 0xA PUSH1 0x40 PUSH1 0x0 KECCAK256 ADD SLOAD PUSH1 0x8 SHR AND PUSH1 0x3 DUP2 LT ISZERO PUSH2 0x814 JUMPI PUSH1 0x1 EQ PUSH2 0xC39 JUMP JUMPDEST CALLVALUE PUSH2 0x31C JUMPI PUSH1 0x40 CALLDATASIZE PUSH1 0x3 NOT ADD SLT PUSH2 0x31C JUMPI PUSH2 0xE35 PUSH2 0x16A8 JUMP JUMPDEST PUSH1 0x1 PUSH1 0x1 PUSH1 0xA0 SHL SUB AND PUSH1 0x0 SWAP1 DUP2 MSTORE PUSH1 0x5 PUSH1 0x20 MSTORE PUSH1 0x40 SWAP1 KECCAK256 DUP1 SLOAD PUSH1 0x24 CALLDATALOAD SWAP2 SWAP1 DUP3 LT ISZERO PUSH2 0x31C JUMPI PUSH1 0x20 SWAP2 PUSH2 0x8C8 SWAP2 PUSH2 0x16EF JUMP JUMPDEST CALLVALUE PUSH2 0x31C JUMPI PUSH1 0x20 CALLDATASIZE PUSH1 0x3 NOT ADD SLT PUSH2 0x31C JUMPI PUSH1 0x1 PUSH1 0x1 PUSH1 0xA0 SHL SUB PUSH2 0xE87 PUSH2 0x16A8 JUMP JUMPDEST AND PUSH1 0x0 MSTORE PUSH1 0x3 PUSH1 0x20 MSTORE PUSH1 0x40 PUSH1 0x0 KECCAK256 PUSH1 0x40 MLOAD SWAP1 DUP2 PUSH1 0x20 DUP3 SLOAD SWAP2 DUP3 DUP2 MSTORE ADD SWAP2 PUSH1 0x0 MSTORE PUSH1 0x20 PUSH1 0x0 KECCAK256 SWAP1 PUSH1 0x0 JUMPDEST DUP2 DUP2 LT PUSH2 0xECA JUMPI PUSH2 0x975 PUSH2 0x969 DUP7 PUSH2 0x964 DUP2 DUP9 SUB DUP3 PUSH2 0x15E3 JUMP JUMPDEST DUP3 SLOAD DUP5 MSTORE PUSH1 0x20 SWAP1 SWAP4 ADD SWAP3 PUSH1 0x1 SWAP3 DUP4 ADD SWAP3 ADD PUSH2 0xEB0 JUMP JUMPDEST CALLVALUE PUSH2 0x31C JUMPI PUSH1 0x40 CALLDATASIZE PUSH1 0x3 NOT ADD SLT PUSH2 0x31C JUMPI PUSH1 0x4 CALLDATALOAD PUSH1 0x24 CALLDATALOAD PUSH1 0x1 PUSH1 0x1 PUSH1 0x40 SHL SUB DUP2 GT PUSH2 0x31C JUMPI PUSH2 0xF13 SWAP1 CALLDATASIZE SWAP1 PUSH1 0x4 ADD PUSH2 0x1722 JUMP JUMPDEST SWAP1 DUP1 PUSH1 0x0 MSTORE PUSH1 0x2 PUSH1 0x20 MSTORE PUSH1 0x40 PUSH1 0x0 KECCAK256 PUSH1 0xFF PUSH1 0xA DUP3 ADD SLOAD PUSH1 0x8 SHR AND PUSH1 0x3 DUP2 LT ISZERO PUSH2 0x814 JUMPI PUSH1 0x2 SUB PUSH2 0x1166 JUMPI PUSH1 0x8 DUP2 ADD SLOAD PUSH1 0x1 PUSH1 0x1 PUSH1 0xA0 SHL SUB AND CALLER SUB PUSH2 0x1129 JUMPI PUSH1 0x4 ADD SWAP2 DUP3 SLOAD SWAP3 PUSH2 0xF61 DUP5 PUSH2 0x158D JUMP JUMPDEST PUSH2 0x10E4 JUMPI DUP2 MLOAD SWAP4 PUSH1 0x1 PUSH1 0x1 PUSH1 0x40 SHL SUB DUP6 GT PUSH2 0x10CE JUMPI PUSH2 0xF7F SWAP1 PUSH2 0x158D JUMP JUMPDEST PUSH1 0x1F DUP2 GT PUSH2 0x1091 JUMPI JUMPDEST POP PUSH1 0x20 SWAP4 PUSH1 0x1F DUP2 GT PUSH1 0x1 EQ PUSH2 0x1007 JUMPI SWAP1 PUSH2 0xFE0 DUP3 PUSH2 0xFF7 SWAP5 SWAP4 PUSH32 0xB3F7A51D97EDFEC0A93EC31952A01E523033A70F92F1CFAE631A92C02F5306D0 SWAP7 SWAP8 PUSH1 0x0 SWAP2 PUSH2 0xFFC JUMPI JUMPDEST POP DUP2 PUSH1 0x1 SHL SWAP2 PUSH1 0x0 NOT SWAP1 PUSH1 0x3 SHL SHR NOT AND OR SWAP1 JUMP JUMPDEST SWAP1 SSTORE JUMPDEST PUSH1 0x40 MLOAD SWAP2 DUP3 SWAP2 PUSH1 0x20 DUP4 MSTORE PUSH1 0x20 DUP4 ADD SWAP1 PUSH2 0x1416 JUMP JUMPDEST SUB SWAP1 LOG2 STOP JUMPDEST SWAP1 POP DUP5 ADD MLOAD DUP9 PUSH2 0xFCC JUMP JUMPDEST PUSH1 0x1F NOT DUP2 AND DUP3 PUSH1 0x0 MSTORE DUP6 PUSH1 0x0 KECCAK256 SWAP1 PUSH1 0x0 JUMPDEST DUP2 DUP2 LT PUSH2 0x1079 JUMPI POP SWAP2 PUSH1 0x1 SWAP2 PUSH32 0xB3F7A51D97EDFEC0A93EC31952A01E523033A70F92F1CFAE631A92C02F5306D0 SWAP7 SWAP8 DUP3 PUSH2 0xFF7 SWAP8 SWAP7 SWAP6 LT PUSH2 0x1060 JUMPI JUMPDEST POP POP DUP2 SHL ADD SWAP1 SSTORE PUSH2 0xFE3 JUMP JUMPDEST DUP6 ADD MLOAD PUSH1 0x0 NOT PUSH1 0xF8 DUP5 PUSH1 0x3 SHL AND SHR NOT AND SWAP1 SSTORE DUP8 DUP1 PUSH2 0x1054 JUMP JUMPDEST DUP6 DUP9 ADD MLOAD DUP4 SSTORE PUSH1 0x20 SWAP8 DUP9 ADD SWAP8 PUSH1 0x1 SWAP1 SWAP4 ADD SWAP3 ADD PUSH2 0x1018 JUMP JUMPDEST PUSH2 0x10BE SWAP1 DUP3 PUSH1 0x0 MSTORE PUSH1 0x20 PUSH1 0x0 KECCAK256 PUSH1 0x1F DUP8 ADD PUSH1 0x5 SHR DUP2 ADD SWAP2 PUSH1 0x20 DUP9 LT PUSH2 0x10C4 JUMPI JUMPDEST PUSH1 0x1F ADD PUSH1 0x5 SHR ADD SWAP1 PUSH2 0x177F JUMP JUMPDEST DUP5 PUSH2 0xF88 JUMP JUMPDEST SWAP1 SWAP2 POP DUP2 SWAP1 PUSH2 0x10B1 JUMP JUMPDEST PUSH4 0x4E487B71 PUSH1 0xE0 SHL PUSH1 0x0 MSTORE PUSH1 0x41 PUSH1 0x4 MSTORE PUSH1 0x24 PUSH1 0x0 REVERT JUMPDEST PUSH1 0x40 MLOAD PUSH3 0x461BCD PUSH1 0xE5 SHL DUP2 MSTORE PUSH1 0x20 PUSH1 0x4 DUP3 ADD MSTORE PUSH1 0x19 PUSH1 0x24 DUP3 ADD MSTORE PUSH32 0x436572746966696361746520616C726561647920616464656400000000000000 PUSH1 0x44 DUP3 ADD MSTORE PUSH1 0x64 SWAP1 REVERT JUMPDEST PUSH1 0x40 MLOAD PUSH3 0x461BCD PUSH1 0xE5 SHL DUP2 MSTORE PUSH1 0x20 PUSH1 0x4 DUP3 ADD MSTORE PUSH1 0x15 PUSH1 0x24 DUP3 ADD MSTORE PUSH21 0x2CB7BA9030B932903737BA103A34329037BBB732B9 PUSH1 0x59 SHL PUSH1 0x44 DUP3 ADD MSTORE PUSH1 0x64 SWAP1 REVERT JUMPDEST PUSH1 0x40 MLOAD PUSH3 0x461BCD PUSH1 0xE5 SHL DUP2 MSTORE PUSH1 0x20 PUSH1 0x4 DUP3 ADD MSTORE PUSH1 0x16 PUSH1 0x24 DUP3 ADD MSTORE PUSH22 0x141C9BDA9958DD081A5CC81B9BDD081C995D1A5C9959 PUSH1 0x52 SHL PUSH1 0x44 DUP3 ADD MSTORE PUSH1 0x64 SWAP1 REVERT JUMPDEST CALLVALUE PUSH2 0x31C JUMPI PUSH1 0x20 CALLDATASIZE PUSH1 0x3 NOT ADD SLT PUSH2 0x31C JUMPI PUSH1 0x1 PUSH1 0x1 PUSH1 0xA0 SHL SUB PUSH2 0x11C5 PUSH2 0x16A8 JUMP JUMPDEST AND PUSH1 0x0 MSTORE PUSH1 0x4 PUSH1 0x20 MSTORE PUSH1 0x40 PUSH1 0x0 KECCAK256 PUSH1 0x40 MLOAD SWAP1 DUP2 PUSH1 0x20 DUP3 SLOAD SWAP2 DUP3 DUP2 MSTORE ADD SWAP2 PUSH1 0x0 MSTORE PUSH1 0x20 PUSH1 0x0 KECCAK256 SWAP1 PUSH1 0x0 JUMPDEST DUP2 DUP2 LT PUSH2 0x1208 JUMPI PUSH2 0x975 PUSH2 0x969 DUP7 PUSH2 0x964 DUP2 DUP9 SUB DUP3 PUSH2 0x15E3 JUMP JUMPDEST DUP3 SLOAD DUP5 MSTORE PUSH1 0x20 SWAP1 SWAP4 ADD SWAP3 PUSH1 0x1 SWAP3 DUP4 ADD SWAP3 ADD PUSH2 0x11EE JUMP JUMPDEST CALLVALUE PUSH2 0x31C JUMPI PUSH1 0x40 CALLDATASIZE PUSH1 0x3 NOT ADD SLT PUSH2 0x31C JUMPI PUSH2 0x1237 PUSH2 0x16A8 JUMP JUMPDEST PUSH1 0x1 PUSH1 0x1 PUSH1 0xA0 SHL SUB AND PUSH1 0x0 SWAP1 DUP2 MSTORE PUSH1 0x4 PUSH1 0x20 MSTORE PUSH1 0x40 SWAP1 KECCAK256 DUP1 SLOAD PUSH1 0x24 CALLDATALOAD SWAP2 SWAP1 DUP3 LT ISZERO PUSH2 0x31C JUMPI PUSH1 0x20 SWAP2 PUSH2 0x8C8 SWAP2 PUSH2 0x16EF JUMP JUMPDEST CALLVALUE PUSH2 0x31C JUMPI PUSH1 0x20 CALLDATASIZE PUSH1 0x3 NOT ADD SLT PUSH2 0x31C JUMPI PUSH1 0x4 CALLDATALOAD PUSH1 0x0 MSTORE PUSH1 0x2 PUSH1 0x20 MSTORE PUSH1 0x40 PUSH1 0x0 KECCAK256 DUP1 SLOAD PUSH1 0x1 DUP3 ADD PUSH2 0x1298 SWAP1 PUSH2 0x1604 JUMP JUMPDEST SWAP2 PUSH2 0x12A5 PUSH1 0x2 DUP3 ADD PUSH2 0x1604 JUMP JUMPDEST PUSH2 0x12B1 PUSH1 0x3 DUP4 ADD PUSH2 0x1604 JUMP JUMPDEST SWAP2 PUSH2 0x12BE PUSH1 0x4 DUP3 ADD PUSH2 0x1604 JUMP JUMPDEST SWAP3 PUSH1 0x5 DUP3 ADD SLOAD PUSH1 0x6 DUP4 ADD SLOAD SWAP1 PUSH1 0x7 DUP5 ADD PUSH2 0x12D7 SWAP1 PUSH2 0x1604 JUMP JUMPDEST SWAP2 PUSH1 0x1 PUSH1 0xA0 SHL PUSH1 0x1 SWAP1 SUB PUSH1 0x8 DUP7 ADD SLOAD AND SWAP7 PUSH1 0x9 DUP7 ADD SLOAD SWAP5 PUSH1 0xA DUP8 ADD SLOAD SWAP7 PUSH1 0xB ADD SLOAD SWAP8 PUSH1 0x40 MLOAD SWAP12 DUP13 SWAP12 DUP13 MSTORE PUSH1 0x20 DUP13 ADD PUSH2 0x1A0 SWAP1 MSTORE PUSH2 0x1A0 DUP13 ADD PUSH2 0x1318 SWAP2 PUSH2 0x1416 JUMP JUMPDEST DUP12 DUP2 SUB PUSH1 0x40 DUP14 ADD MSTORE PUSH2 0x1329 SWAP2 PUSH2 0x1416 JUMP JUMPDEST DUP11 DUP2 SUB PUSH1 0x60 DUP13 ADD MSTORE PUSH2 0x133A SWAP2 PUSH2 0x1416 JUMP JUMPDEST DUP10 DUP2 SUB PUSH1 0x80 DUP12 ADD MSTORE PUSH2 0x134B SWAP2 PUSH2 0x1416 JUMP JUMPDEST SWAP2 PUSH1 0xA0 DUP10 ADD MSTORE PUSH1 0xC0 DUP9 ADD MSTORE DUP7 DUP2 SUB PUSH1 0xE0 DUP9 ADD MSTORE PUSH2 0x1367 SWAP2 PUSH2 0x1416 JUMP JUMPDEST SWAP4 PUSH2 0x100 DUP7 ADD MSTORE PUSH2 0x120 DUP6 ADD MSTORE PUSH1 0xFF DUP2 AND ISZERO ISZERO PUSH2 0x140 DUP6 ADD MSTORE PUSH2 0x160 DUP5 ADD SWAP1 PUSH1 0x8 SHR PUSH1 0xFF AND SWAP1 PUSH2 0x1396 SWAP2 PUSH2 0x1457 JUMP JUMPDEST PUSH2 0x180 DUP4 ADD MSTORE SUB SWAP1 RETURN JUMPDEST CALLVALUE PUSH2 0x31C JUMPI PUSH1 0x0 CALLDATASIZE PUSH1 0x3 NOT ADD SLT PUSH2 0x31C JUMPI PUSH1 0x6 SLOAD DUP1 DUP3 MSTORE PUSH1 0x20 DUP3 ADD SWAP1 PUSH1 0x6 PUSH1 0x0 MSTORE PUSH32 0xF652222313E28459528D920B65115C16C04F3EFC82AAEDC97BE59F3F377C0D3F SWAP1 PUSH1 0x0 JUMPDEST DUP2 DUP2 LT PUSH2 0x1400 JUMPI PUSH2 0x975 PUSH2 0x969 DUP7 PUSH2 0x964 DUP2 DUP9 SUB DUP3 PUSH2 0x15E3 JUMP JUMPDEST DUP3 SLOAD DUP5 MSTORE PUSH1 0x20 SWAP1 SWAP4 ADD SWAP3 PUSH1 0x1 SWAP3 DUP4 ADD SWAP3 ADD PUSH2 0x13E6 JUMP JUMPDEST SWAP2 SWAP1 DUP3 MLOAD SWAP3 DUP4 DUP3 MSTORE PUSH1 0x0 JUMPDEST DUP5 DUP2 LT PUSH2 0x1442 JUMPI POP POP DUP3 PUSH1 0x0 PUSH1 0x20 DUP1 SWAP5 SWAP6 DUP5 ADD ADD MSTORE PUSH1 0x1F DUP1 NOT SWAP2 ADD AND ADD ADD SWAP1 JUMP JUMPDEST DUP1 PUSH1 0x20 DUP1 SWAP3 DUP5 ADD ADD MLOAD DUP3 DUP3 DUP7 ADD ADD MSTORE ADD PUSH2 0x1421 JUMP JUMPDEST SWAP1 PUSH1 0x3 DUP3 LT ISZERO PUSH2 0x814 JUMPI MSTORE JUMP JUMPDEST PUSH1 0x20 DUP2 ADD PUSH1 0x20 DUP3 MSTORE DUP3 MLOAD DUP1 SWAP2 MSTORE PUSH1 0x40 DUP3 ADD SWAP2 PUSH1 0x20 PUSH1 0x40 DUP4 PUSH1 0x5 SHL DUP4 ADD ADD SWAP5 ADD SWAP3 PUSH1 0x0 SWAP2 JUMPDEST DUP4 DUP4 LT PUSH2 0x1497 JUMPI POP POP POP POP POP SWAP1 JUMP JUMPDEST SWAP1 SWAP2 SWAP3 SWAP4 SWAP5 PUSH1 0x20 DUP1 PUSH1 0x1 SWAP3 PUSH1 0x3F NOT DUP6 DUP3 SUB ADD DUP7 MSTORE DUP9 MLOAD SWAP1 DUP2 MLOAD DUP2 MSTORE PUSH2 0x180 DUP1 PUSH2 0x1537 PUSH2 0x1511 PUSH2 0x14FF PUSH2 0x14ED PUSH2 0x14DB DUP10 DUP10 ADD MLOAD PUSH2 0x1A0 DUP12 DUP11 ADD MSTORE PUSH2 0x1A0 DUP10 ADD SWAP1 PUSH2 0x1416 JUMP JUMPDEST PUSH1 0x40 DUP10 ADD MLOAD DUP9 DUP3 SUB PUSH1 0x40 DUP11 ADD MSTORE PUSH2 0x1416 JUMP JUMPDEST PUSH1 0x60 DUP9 ADD MLOAD DUP8 DUP3 SUB PUSH1 0x60 DUP10 ADD MSTORE PUSH2 0x1416 JUMP JUMPDEST PUSH1 0x80 DUP8 ADD MLOAD DUP7 DUP3 SUB PUSH1 0x80 DUP9 ADD MSTORE PUSH2 0x1416 JUMP JUMPDEST PUSH1 0xA0 DUP7 ADD MLOAD PUSH1 0xA0 DUP7 ADD MSTORE PUSH1 0xC0 DUP7 ADD MLOAD PUSH1 0xC0 DUP7 ADD MSTORE PUSH1 0xE0 DUP7 ADD MLOAD DUP6 DUP3 SUB PUSH1 0xE0 DUP8 ADD MSTORE PUSH2 0x1416 JUMP JUMPDEST SWAP4 DUP8 DUP1 PUSH1 0xA0 SHL SUB PUSH2 0x100 DUP3 ADD MLOAD AND PUSH2 0x100 DUP6 ADD MSTORE PUSH2 0x120 DUP2 ADD MLOAD PUSH2 0x120 DUP6 ADD MSTORE PUSH2 0x140 DUP2 ADD MLOAD ISZERO ISZERO PUSH2 0x140 DUP6 ADD MSTORE PUSH2 0x1579 PUSH2 0x160 DUP3 ADD MLOAD PUSH2 0x160 DUP7 ADD SWAP1 PUSH2 0x1457 JUMP JUMPDEST ADD MLOAD SWAP2 ADD MSTORE SWAP8 ADD SWAP4 ADD SWAP4 ADD SWAP2 SWAP4 SWAP3 SWAP1 PUSH2 0x1488 JUMP JUMPDEST SWAP1 PUSH1 0x1 DUP3 DUP2 SHR SWAP3 AND DUP1 ISZERO PUSH2 0x15BD JUMPI JUMPDEST PUSH1 0x20 DUP4 LT EQ PUSH2 0x15A7 JUMPI JUMP JUMPDEST PUSH4 0x4E487B71 PUSH1 0xE0 SHL PUSH1 0x0 MSTORE PUSH1 0x22 PUSH1 0x4 MSTORE PUSH1 0x24 PUSH1 0x0 REVERT JUMPDEST SWAP2 PUSH1 0x7F AND SWAP2 PUSH2 0x159C JUMP JUMPDEST PUSH2 0x1A0 DUP2 ADD SWAP1 DUP2 LT PUSH1 0x1 PUSH1 0x1 PUSH1 0x40 SHL SUB DUP3 GT OR PUSH2 0x10CE JUMPI PUSH1 0x40 MSTORE JUMP JUMPDEST SWAP1 PUSH1 0x1F DUP1 NOT SWAP2 ADD AND DUP2 ADD SWAP1 DUP2 LT PUSH1 0x1 PUSH1 0x1 PUSH1 0x40 SHL SUB DUP3 GT OR PUSH2 0x10CE JUMPI PUSH1 0x40 MSTORE JUMP JUMPDEST SWAP1 PUSH1 0x40 MLOAD SWAP2 DUP3 PUSH1 0x0 DUP3 SLOAD SWAP3 PUSH2 0x1618 DUP5 PUSH2 0x158D JUMP JUMPDEST DUP1 DUP5 MSTORE SWAP4 PUSH1 0x1 DUP2 AND SWAP1 DUP2 ISZERO PUSH2 0x1686 JUMPI POP PUSH1 0x1 EQ PUSH2 0x163F JUMPI JUMPDEST POP PUSH2 0x163D SWAP3 POP SUB DUP4 PUSH2 0x15E3 JUMP JUMPDEST JUMP JUMPDEST SWAP1 POP PUSH1 0x0 SWAP3 SWAP2 SWAP3 MSTORE PUSH1 0x20 PUSH1 0x0 KECCAK256 SWAP1 PUSH1 0x0 SWAP2 JUMPDEST DUP2 DUP4 LT PUSH2 0x166A JUMPI POP POP SWAP1 PUSH1 0x20 PUSH2 0x163D SWAP3 DUP3 ADD ADD CODESIZE PUSH2 0x1630 JUMP JUMPDEST PUSH1 0x20 SWAP2 SWAP4 POP DUP1 PUSH1 0x1 SWAP2 SLOAD DUP4 DUP6 DUP10 ADD ADD MSTORE ADD SWAP2 ADD SWAP1 SWAP2 DUP5 SWAP3 PUSH2 0x1651 JUMP JUMPDEST SWAP1 POP PUSH1 0x20 SWAP3 POP PUSH2 0x163D SWAP5 SWAP2 POP PUSH1 0xFF NOT AND DUP3 DUP5 ADD MSTORE ISZERO ISZERO PUSH1 0x5 SHL DUP3 ADD ADD CODESIZE PUSH2 0x1630 JUMP JUMPDEST PUSH1 0x4 CALLDATALOAD SWAP1 PUSH1 0x1 PUSH1 0x1 PUSH1 0xA0 SHL SUB DUP3 AND DUP3 SUB PUSH2 0x31C JUMPI JUMP JUMPDEST PUSH1 0x6 SLOAD DUP2 LT ISZERO PUSH2 0x16D9 JUMPI PUSH1 0x6 PUSH1 0x0 MSTORE PUSH1 0x20 PUSH1 0x0 KECCAK256 ADD SWAP1 PUSH1 0x0 SWAP1 JUMP JUMPDEST PUSH4 0x4E487B71 PUSH1 0xE0 SHL PUSH1 0x0 MSTORE PUSH1 0x32 PUSH1 0x4 MSTORE PUSH1 0x24 PUSH1 0x0 REVERT JUMPDEST DUP1 SLOAD DUP3 LT ISZERO PUSH2 0x16D9 JUMPI PUSH1 0x0 MSTORE PUSH1 0x20 PUSH1 0x0 KECCAK256 ADD SWAP1 PUSH1 0x0 SWAP1 JUMP JUMPDEST PUSH1 0x1 PUSH1 0x1 PUSH1 0x40 SHL SUB DUP2 GT PUSH2 0x10CE JUMPI PUSH1 0x1F ADD PUSH1 0x1F NOT AND PUSH1 0x20 ADD SWAP1 JUMP JUMPDEST DUP2 PUSH1 0x1F DUP3 ADD SLT ISZERO PUSH2 0x31C JUMPI DUP1 CALLDATALOAD SWAP1 PUSH2 0x1739 DUP3 PUSH2 0x1707 JUMP JUMPDEST SWAP3 PUSH2 0x1747 PUSH1 0x40 MLOAD SWAP5 DUP6 PUSH2 0x15E3 JUMP JUMPDEST DUP3 DUP5 MSTORE PUSH1 0x20 DUP4 DUP4 ADD ADD GT PUSH2 0x31C JUMPI DUP2 PUSH1 0x0 SWAP3 PUSH1 0x20 DUP1 SWAP4 ADD DUP4 DUP7 ADD CALLDATACOPY DUP4 ADD ADD MSTORE SWAP1 JUMP JUMPDEST PUSH1 0x40 SWAP1 PUSH1 0x3 NOT ADD SLT PUSH2 0x31C JUMPI PUSH1 0x4 CALLDATALOAD SWAP1 PUSH1 0x24 CALLDATALOAD SWAP1 JUMP JUMPDEST DUP2 DUP2 LT PUSH2 0x178A JUMPI POP POP JUMP JUMPDEST PUSH1 0x0 DUP2 SSTORE PUSH1 0x1 ADD PUSH2 0x177F JUMP JUMPDEST ISZERO PUSH2 0x179D JUMPI JUMP JUMPDEST PUSH1 0x40 MLOAD PUSH3 0x461BCD PUSH1 0xE5 SHL DUP2 MSTORE PUSH1 0x20 PUSH1 0x4 DUP3 ADD MSTORE PUSH1 0x1F PUSH1 0x24 DUP3 ADD MSTORE PUSH32 0x4E6F74206F776E6572206F662074686973206F776E65642070726F6A65637400 PUSH1 0x44 DUP3 ADD MSTORE PUSH1 0x64 SWAP1 REVERT JUMPDEST SWAP2 SWAP1 DUP3 SUB SWAP2 DUP3 GT PUSH2 0x729 JUMPI JUMP JUMPDEST PUSH1 0x6 SLOAD SWAP1 PUSH1 0x1 PUSH1 0x40 SHL DUP3 LT ISZERO PUSH2 0x10CE JUMPI PUSH2 0x6F8 DUP3 PUSH1 0x1 PUSH2 0x163D SWAP5 ADD PUSH1 0x6 SSTORE PUSH1 0x6 PUSH2 0x16EF JUMP JUMPDEST SWAP1 DUP2 SLOAD SWAP2 PUSH1 0x1 PUSH1 0x40 SHL DUP4 LT ISZERO PUSH2 0x10CE JUMPI DUP3 PUSH2 0x6F8 SWAP2 PUSH1 0x1 PUSH2 0x163D SWAP6 ADD DUP2 SSTORE PUSH2 0x16EF JUMP JUMPDEST PUSH2 0x1841 DUP2 SLOAD PUSH2 0x158D JUMP JUMPDEST SWAP1 DUP2 PUSH2 0x184B JUMPI POP POP JUMP JUMPDEST DUP2 PUSH1 0x1F PUSH1 0x0 SWAP4 GT PUSH1 0x1 EQ PUSH2 0x185D JUMPI POP SSTORE JUMP JUMPDEST DUP2 DUP4 MSTORE PUSH1 0x20 DUP4 KECCAK256 PUSH2 0x1879 SWAP2 PUSH1 0x1F ADD PUSH1 0x5 SHR DUP2 ADD SWAP1 PUSH1 0x1 ADD PUSH2 0x177F JUMP JUMPDEST DUP1 DUP3 MSTORE DUP2 PUSH1 0x20 DUP2 KECCAK256 SWAP2 SSTORE SSTORE JUMP JUMPDEST PUSH1 0xB PUSH1 0x0 SWAP2 DUP3 DUP2 SSTORE PUSH2 0x189A PUSH1 0x1 DUP3 ADD PUSH2 0x1837 JUMP JUMPDEST PUSH2 0x18A6 PUSH1 0x2 DUP3 ADD PUSH2 0x1837 JUMP JUMPDEST PUSH2 0x18B2 PUSH1 0x3 DUP3 ADD PUSH2 0x1837 JUMP JUMPDEST PUSH2 0x18BE PUSH1 0x4 DUP3 ADD PUSH2 0x1837 JUMP JUMPDEST DUP3 PUSH1 0x5 DUP3 ADD SSTORE DUP3 PUSH1 0x6 DUP3 ADD SSTORE PUSH2 0x18D6 PUSH1 0x7 DUP3 ADD PUSH2 0x1837 JUMP JUMPDEST DUP3 PUSH1 0x8 DUP3 ADD SSTORE DUP3 PUSH1 0x9 DUP3 ADD SSTORE DUP3 PUSH1 0xA DUP3 ADD SSTORE ADD SSTORE JUMP JUMPDEST ISZERO PUSH2 0x18F3 JUMPI JUMP JUMPDEST PUSH1 0x40 MLOAD PUSH3 0x461BCD PUSH1 0xE5 SHL DUP2 MSTORE PUSH1 0x20 PUSH1 0x4 DUP3 ADD MSTORE PUSH1 0x10 PUSH1 0x24 DUP3 ADD MSTORE PUSH16 0x496E76616C6964207175616E74697479 PUSH1 0x80 SHL PUSH1 0x44 DUP3 ADD MSTORE PUSH1 0x64 SWAP1 REVERT JUMPDEST PUSH1 0x1 PUSH1 0x1 PUSH1 0x40 SHL SUB DUP2 GT PUSH2 0x10CE JUMPI PUSH1 0x5 SHL PUSH1 0x20 ADD SWAP1 JUMP JUMPDEST DUP1 MLOAD DUP3 LT ISZERO PUSH2 0x16D9 JUMPI PUSH1 0x20 SWAP2 PUSH1 0x5 SHL ADD ADD SWAP1 JUMP JUMPDEST SWAP1 DUP2 MLOAD SWAP2 PUSH2 0x1963 DUP4 PUSH2 0x192B JUMP JUMPDEST SWAP3 PUSH2 0x1971 PUSH1 0x40 MLOAD SWAP5 DUP6 PUSH2 0x15E3 JUMP JUMPDEST DUP1 DUP5 MSTORE PUSH2 0x1980 PUSH1 0x1F NOT SWAP2 PUSH2 0x192B JUMP JUMPDEST ADD PUSH1 0x0 JUMPDEST DUP2 DUP2 LT PUSH2 0x1A9D JUMPI POP POP PUSH1 0x0 JUMPDEST DUP2 MLOAD DUP2 LT ISZERO PUSH2 0x1A99 JUMPI PUSH2 0x19A3 DUP2 DUP4 PUSH2 0x1942 JUMP JUMPDEST MLOAD PUSH1 0x0 MSTORE PUSH1 0x2 PUSH1 0x20 MSTORE PUSH1 0x40 PUSH1 0x0 KECCAK256 SWAP1 PUSH1 0x40 MLOAD PUSH2 0x19BE DUP2 PUSH2 0x15C7 JUMP JUMPDEST DUP3 SLOAD DUP2 MSTORE PUSH2 0x19CE PUSH1 0x1 DUP5 ADD PUSH2 0x1604 JUMP JUMPDEST PUSH1 0x20 DUP3 ADD MSTORE PUSH2 0x19DF PUSH1 0x2 DUP5 ADD PUSH2 0x1604 JUMP JUMPDEST PUSH1 0x40 DUP3 ADD MSTORE PUSH2 0x19F0 PUSH1 0x3 DUP5 ADD PUSH2 0x1604 JUMP JUMPDEST PUSH1 0x60 DUP3 ADD MSTORE PUSH2 0x1A01 PUSH1 0x4 DUP5 ADD PUSH2 0x1604 JUMP JUMPDEST PUSH1 0x80 DUP3 ADD MSTORE PUSH1 0x5 DUP4 ADD SLOAD PUSH1 0xA0 DUP3 ADD MSTORE PUSH1 0x6 DUP4 ADD SLOAD PUSH1 0xC0 DUP3 ADD MSTORE PUSH2 0x1A26 PUSH1 0x7 DUP5 ADD PUSH2 0x1604 JUMP JUMPDEST PUSH1 0xE0 DUP3 ADD MSTORE PUSH1 0x8 DUP4 DUP2 ADD SLOAD PUSH1 0x1 PUSH1 0x1 PUSH1 0xA0 SHL SUB AND PUSH2 0x100 DUP4 ADD MSTORE PUSH1 0x9 DUP5 ADD SLOAD PUSH2 0x120 DUP4 ADD MSTORE PUSH1 0xA DUP5 ADD SLOAD PUSH1 0xFF DUP2 DUP2 AND ISZERO ISZERO PUSH2 0x140 DUP6 ADD MSTORE SWAP2 SHR AND PUSH1 0x3 DUP2 LT ISZERO PUSH2 0x814 JUMPI PUSH1 0x1 SWAP4 PUSH1 0xB SWAP2 PUSH2 0x160 DUP5 ADD MSTORE ADD SLOAD PUSH2 0x180 DUP3 ADD MSTORE PUSH2 0x1A87 DUP3 DUP8 PUSH2 0x1942 JUMP JUMPDEST MSTORE PUSH2 0x1A92 DUP2 DUP7 PUSH2 0x1942 JUMP JUMPDEST POP ADD PUSH2 0x1990 JUMP JUMPDEST POP POP JUMP JUMPDEST PUSH1 0x20 SWAP1 PUSH1 0x40 MLOAD PUSH2 0x1AAC DUP2 PUSH2 0x15C7 JUMP JUMPDEST PUSH1 0x0 DUP2 MSTORE PUSH1 0x60 DUP4 DUP3 ADD MSTORE PUSH1 0x60 PUSH1 0x40 DUP3 ADD MSTORE PUSH1 0x60 DUP1 DUP3 ADD MSTORE PUSH1 0x60 PUSH1 0x80 DUP3 ADD MSTORE PUSH1 0x0 PUSH1 0xA0 DUP3 ADD MSTORE PUSH1 0x0 PUSH1 0xC0 DUP3 ADD MSTORE PUSH1 0x60 PUSH1 0xE0 DUP3 ADD MSTORE PUSH1 0x0 PUSH2 0x100 DUP3 ADD MSTORE PUSH1 0x0 PUSH2 0x120 DUP3 ADD MSTORE PUSH1 0x0 PUSH2 0x140 DUP3 ADD MSTORE PUSH1 0x0 PUSH2 0x160 DUP3 ADD MSTORE PUSH1 0x0 PUSH2 0x180 DUP3 ADD MSTORE DUP3 DUP3 DUP9 ADD ADD MSTORE ADD PUSH2 0x1984 JUMP JUMPDEST PUSH1 0x1 PUSH1 0x1 PUSH1 0xA0 SHL SUB AND PUSH1 0x0 SWAP1 DUP2 MSTORE PUSH1 0x3 PUSH1 0x20 MSTORE PUSH1 0x40 SWAP1 KECCAK256 PUSH2 0x163D SWAP2 SWAP1 PUSH2 0x20D8 JUMP JUMPDEST PUSH1 0x1 SLOAD SWAP2 SWAP1 PUSH1 0x0 NOT DUP4 EQ PUSH2 0x729 JUMPI PUSH1 0x1 DUP4 ADD PUSH1 0x1 SSTORE DUP3 DUP1 DUP3 MSTORE PUSH1 0x0 MSTORE PUSH1 0x2 PUSH1 0x20 MSTORE PUSH1 0x40 PUSH1 0x0 KECCAK256 SWAP1 DUP1 MLOAD DUP3 SSTORE PUSH1 0x1 DUP3 ADD PUSH1 0x20 DUP3 ADD MLOAD DUP1 MLOAD SWAP1 PUSH1 0x1 PUSH1 0x1 PUSH1 0x40 SHL SUB DUP3 GT PUSH2 0x10CE JUMPI PUSH2 0x1B83 DUP4 SLOAD PUSH2 0x158D JUMP JUMPDEST PUSH1 0x1F DUP2 GT PUSH2 0x20A6 JUMPI JUMPDEST POP PUSH1 0x20 SWAP1 PUSH1 0x1F DUP4 GT PUSH1 0x1 EQ PUSH2 0x203F JUMPI PUSH2 0x1BBE SWAP3 SWAP2 PUSH1 0x0 SWAP2 DUP4 PUSH2 0x1DD0 JUMPI JUMPDEST POP POP DUP2 PUSH1 0x1 SHL SWAP2 PUSH1 0x0 NOT SWAP1 PUSH1 0x3 SHL SHR NOT AND OR SWAP1 JUMP JUMPDEST SWAP1 SSTORE JUMPDEST PUSH1 0x2 DUP3 ADD PUSH1 0x40 DUP3 ADD MLOAD DUP1 MLOAD SWAP1 PUSH1 0x1 PUSH1 0x1 PUSH1 0x40 SHL SUB DUP3 GT PUSH2 0x10CE JUMPI PUSH2 0x1BE5 DUP4 SLOAD PUSH2 0x158D JUMP JUMPDEST PUSH1 0x1F DUP2 GT PUSH2 0x200D JUMPI JUMPDEST POP PUSH1 0x20 SWAP1 PUSH1 0x1F DUP4 GT PUSH1 0x1 EQ PUSH2 0x1FA6 JUMPI PUSH2 0x1C1F SWAP3 SWAP2 PUSH1 0x0 SWAP2 DUP4 PUSH2 0x1DD0 JUMPI POP POP DUP2 PUSH1 0x1 SHL SWAP2 PUSH1 0x0 NOT SWAP1 PUSH1 0x3 SHL SHR NOT AND OR SWAP1 JUMP JUMPDEST SWAP1 SSTORE JUMPDEST PUSH1 0x3 DUP3 ADD PUSH1 0x60 DUP3 ADD MLOAD DUP1 MLOAD SWAP1 PUSH1 0x1 PUSH1 0x1 PUSH1 0x40 SHL SUB DUP3 GT PUSH2 0x10CE JUMPI PUSH2 0x1C46 DUP4 SLOAD PUSH2 0x158D JUMP JUMPDEST PUSH1 0x1F DUP2 GT PUSH2 0x1F74 JUMPI JUMPDEST POP PUSH1 0x20 SWAP1 PUSH1 0x1F DUP4 GT PUSH1 0x1 EQ PUSH2 0x1F0D JUMPI PUSH2 0x1C80 SWAP3 SWAP2 PUSH1 0x0 SWAP2 DUP4 PUSH2 0x1DD0 JUMPI POP POP DUP2 PUSH1 0x1 SHL SWAP2 PUSH1 0x0 NOT SWAP1 PUSH1 0x3 SHL SHR NOT AND OR SWAP1 JUMP JUMPDEST SWAP1 SSTORE JUMPDEST PUSH1 0x4 DUP3 ADD PUSH1 0x80 DUP3 ADD MLOAD DUP1 MLOAD SWAP1 PUSH1 0x1 PUSH1 0x1 PUSH1 0x40 SHL SUB DUP3 GT PUSH2 0x10CE JUMPI PUSH2 0x1CA7 DUP4 SLOAD PUSH2 0x158D JUMP JUMPDEST PUSH1 0x1F DUP2 GT PUSH2 0x1EDB JUMPI JUMPDEST POP PUSH1 0x20 SWAP1 PUSH1 0x1F DUP4 GT PUSH1 0x1 EQ PUSH2 0x1E74 JUMPI PUSH2 0x1CE1 SWAP3 SWAP2 PUSH1 0x0 SWAP2 DUP4 PUSH2 0x1DD0 JUMPI POP POP DUP2 PUSH1 0x1 SHL SWAP2 PUSH1 0x0 NOT SWAP1 PUSH1 0x3 SHL SHR NOT AND OR SWAP1 JUMP JUMPDEST SWAP1 SSTORE JUMPDEST PUSH1 0xA0 DUP2 ADD MLOAD PUSH1 0x5 DUP4 ADD SSTORE PUSH1 0xC0 DUP2 ADD MLOAD PUSH1 0x6 DUP4 ADD SSTORE PUSH1 0x7 DUP3 ADD PUSH1 0xE0 DUP3 ADD MLOAD DUP1 MLOAD SWAP1 PUSH1 0x1 PUSH1 0x1 PUSH1 0x40 SHL SUB DUP3 GT PUSH2 0x10CE JUMPI PUSH2 0x1D1C DUP4 SLOAD PUSH2 0x158D JUMP JUMPDEST PUSH1 0x1F DUP2 GT PUSH2 0x1E42 JUMPI JUMPDEST POP PUSH1 0x20 SWAP1 PUSH1 0x1F DUP4 GT PUSH1 0x1 EQ PUSH2 0x1DDB JUMPI PUSH2 0x1D56 SWAP3 SWAP2 PUSH1 0x0 SWAP2 DUP4 PUSH2 0x1DD0 JUMPI POP POP DUP2 PUSH1 0x1 SHL SWAP2 PUSH1 0x0 NOT SWAP1 PUSH1 0x3 SHL SHR NOT AND OR SWAP1 JUMP JUMPDEST SWAP1 SSTORE JUMPDEST PUSH1 0x8 DUP3 ADD PUSH1 0x1 DUP1 PUSH1 0xA0 SHL SUB PUSH2 0x100 DUP4 ADD MLOAD AND PUSH12 0xFFFFFFFFFFFFFFFFFFFFFFFF PUSH1 0xA0 SHL DUP3 SLOAD AND OR SWAP1 SSTORE PUSH2 0x120 DUP2 ADD MLOAD PUSH1 0x9 DUP4 ADD SSTORE PUSH1 0xA DUP3 ADD SWAP1 PUSH2 0x140 DUP2 ADD MLOAD ISZERO ISZERO SWAP1 DUP3 SLOAD SWAP3 PUSH2 0x160 DUP3 ADD MLOAD SWAP3 PUSH1 0x3 DUP5 LT ISZERO PUSH2 0x814 JUMPI PUSH1 0xB SWAP5 PUSH1 0xFF PUSH2 0xFF00 PUSH2 0x180 SWAP7 PUSH1 0x8 SHL AND SWAP3 AND SWAP1 PUSH2 0xFFFF NOT AND OR OR SWAP1 SSTORE ADD MLOAD SWAP2 ADD SSTORE JUMP JUMPDEST ADD MLOAD SWAP1 POP CODESIZE DUP1 PUSH2 0x1BA9 JUMP JUMPDEST SWAP1 PUSH1 0x1F NOT DUP4 AND SWAP2 DUP5 PUSH1 0x0 MSTORE DUP2 PUSH1 0x0 KECCAK256 SWAP3 PUSH1 0x0 JUMPDEST DUP2 DUP2 LT PUSH2 0x1E2A JUMPI POP SWAP1 DUP5 PUSH1 0x1 SWAP6 SWAP5 SWAP4 SWAP3 LT PUSH2 0x1E11 JUMPI JUMPDEST POP POP POP DUP2 SHL ADD SWAP1 SSTORE PUSH2 0x1D59 JUMP JUMPDEST ADD MLOAD PUSH1 0x0 NOT PUSH1 0xF8 DUP5 PUSH1 0x3 SHL AND SHR NOT AND SWAP1 SSTORE CODESIZE DUP1 DUP1 PUSH2 0x1E04 JUMP JUMPDEST SWAP3 SWAP4 PUSH1 0x20 PUSH1 0x1 DUP2 SWAP3 DUP8 DUP7 ADD MLOAD DUP2 SSTORE ADD SWAP6 ADD SWAP4 ADD PUSH2 0x1DEE JUMP JUMPDEST PUSH2 0x1E6E SWAP1 DUP5 PUSH1 0x0 MSTORE PUSH1 0x20 PUSH1 0x0 KECCAK256 PUSH1 0x1F DUP6 ADD PUSH1 0x5 SHR DUP2 ADD SWAP2 PUSH1 0x20 DUP7 LT PUSH2 0x10C4 JUMPI PUSH1 0x1F ADD PUSH1 0x5 SHR ADD SWAP1 PUSH2 0x177F JUMP JUMPDEST CODESIZE PUSH2 0x1D25 JUMP JUMPDEST SWAP1 PUSH1 0x1F NOT DUP4 AND SWAP2 DUP5 PUSH1 0x0 MSTORE DUP2 PUSH1 0x0 KECCAK256 SWAP3 PUSH1 0x0 JUMPDEST DUP2 DUP2 LT PUSH2 0x1EC3 JUMPI POP SWAP1 DUP5 PUSH1 0x1 SWAP6 SWAP5 SWAP4 SWAP3 LT PUSH2 0x1EAA JUMPI JUMPDEST POP POP POP DUP2 SHL ADD SWAP1 SSTORE PUSH2 0x1CE4 JUMP JUMPDEST ADD MLOAD PUSH1 0x0 NOT PUSH1 0xF8 DUP5 PUSH1 0x3 SHL AND SHR NOT AND SWAP1 SSTORE CODESIZE DUP1 DUP1 PUSH2 0x1E9D JUMP JUMPDEST SWAP3 SWAP4 PUSH1 0x20 PUSH1 0x1 DUP2 SWAP3 DUP8 DUP7 ADD MLOAD DUP2 SSTORE ADD SWAP6 ADD SWAP4 ADD PUSH2 0x1E87 JUMP JUMPDEST PUSH2 0x1F07 SWAP1 DUP5 PUSH1 0x0 MSTORE PUSH1 0x20 PUSH1 0x0 KECCAK256 PUSH1 0x1F DUP6 ADD PUSH1 0x5 SHR DUP2 ADD SWAP2 PUSH1 0x20 DUP7 LT PUSH2 0x10C4 JUMPI PUSH1 0x1F ADD PUSH1 0x5 SHR ADD SWAP1 PUSH2 0x177F JUMP JUMPDEST CODESIZE PUSH2 0x1CB0 JUMP JUMPDEST SWAP1 PUSH1 0x1F NOT DUP4 AND SWAP2 DUP5 PUSH1 0x0 MSTORE DUP2 PUSH1 0x0 KECCAK256 SWAP3 PUSH1 0x0 JUMPDEST DUP2 DUP2 LT PUSH2 0x1F5C JUMPI POP SWAP1 DUP5 PUSH1 0x1 SWAP6 SWAP5 SWAP4 SWAP3 LT PUSH2 0x1F43 JUMPI JUMPDEST POP POP POP DUP2 SHL ADD SWAP1 SSTORE PUSH2 0x1C83 JUMP JUMPDEST ADD MLOAD PUSH1 0x0 NOT PUSH1 0xF8 DUP5 PUSH1 0x3 SHL AND SHR NOT AND SWAP1 SSTORE CODESIZE DUP1 DUP1 PUSH2 0x1F36 JUMP JUMPDEST SWAP3 SWAP4 PUSH1 0x20 PUSH1 0x1 DUP2 SWAP3 DUP8 DUP7 ADD MLOAD DUP2 SSTORE ADD SWAP6 ADD SWAP4 ADD PUSH2 0x1F20 JUMP JUMPDEST PUSH2 0x1FA0 SWAP1 DUP5 PUSH1 0x0 MSTORE PUSH1 0x20 PUSH1 0x0 KECCAK256 PUSH1 0x1F DUP6 ADD PUSH1 0x5 SHR DUP2 ADD SWAP2 PUSH1 0x20 DUP7 LT PUSH2 0x10C4 JUMPI PUSH1 0x1F ADD PUSH1 0x5 SHR ADD SWAP1 PUSH2 0x177F JUMP JUMPDEST CODESIZE PUSH2 0x1C4F JUMP JUMPDEST SWAP1 PUSH1 0x1F NOT DUP4 AND SWAP2 DUP5 PUSH1 0x0 MSTORE DUP2 PUSH1 0x0 KECCAK256 SWAP3 PUSH1 0x0 JUMPDEST DUP2 DUP2 LT PUSH2 0x1FF5 JUMPI POP SWAP1 DUP5 PUSH1 0x1 SWAP6 SWAP5 SWAP4 SWAP3 LT PUSH2 0x1FDC JUMPI JUMPDEST POP POP POP DUP2 SHL ADD SWAP1 SSTORE PUSH2 0x1C22 JUMP JUMPDEST ADD MLOAD PUSH1 0x0 NOT PUSH1 0xF8 DUP5 PUSH1 0x3 SHL AND SHR NOT AND SWAP1 SSTORE CODESIZE DUP1 DUP1 PUSH2 0x1FCF JUMP JUMPDEST SWAP3 SWAP4 PUSH1 0x20 PUSH1 0x1 DUP2 SWAP3 DUP8 DUP7 ADD MLOAD DUP2 SSTORE ADD SWAP6 ADD SWAP4 ADD PUSH2 0x1FB9 JUMP JUMPDEST PUSH2 0x2039 SWAP1 DUP5 PUSH1 0x0 MSTORE PUSH1 0x20 PUSH1 0x0 KECCAK256 PUSH1 0x1F DUP6 ADD PUSH1 0x5 SHR DUP2 ADD SWAP2 PUSH1 0x20 DUP7 LT PUSH2 0x10C4 JUMPI PUSH1 0x1F ADD PUSH1 0x5 SHR ADD SWAP1 PUSH2 0x177F JUMP JUMPDEST CODESIZE PUSH2 0x1BEE JUMP JUMPDEST SWAP1 PUSH1 0x1F NOT DUP4 AND SWAP2 DUP5 PUSH1 0x0 MSTORE DUP2 PUSH1 0x0 KECCAK256 SWAP3 PUSH1 0x0 JUMPDEST DUP2 DUP2 LT PUSH2 0x208E JUMPI POP SWAP1 DUP5 PUSH1 0x1 SWAP6 SWAP5 SWAP4 SWAP3 LT PUSH2 0x2075 JUMPI JUMPDEST POP POP POP DUP2 SHL ADD SWAP1 SSTORE PUSH2 0x1BC1 JUMP JUMPDEST ADD MLOAD PUSH1 0x0 NOT PUSH1 0xF8 DUP5 PUSH1 0x3 SHL AND SHR NOT AND SWAP1 SSTORE CODESIZE DUP1 DUP1 PUSH2 0x2068 JUMP JUMPDEST SWAP3 SWAP4 PUSH1 0x20 PUSH1 0x1 DUP2 SWAP3 DUP8 DUP7 ADD MLOAD DUP2 SSTORE ADD SWAP6 ADD SWAP4 ADD PUSH2 0x2052 JUMP JUMPDEST PUSH2 0x20D2 SWAP1 DUP5 PUSH1 0x0 MSTORE PUSH1 0x20 PUSH1 0x0 KECCAK256 PUSH1 0x1F DUP6 ADD PUSH1 0x5 SHR DUP2 ADD SWAP2 PUSH1 0x20 DUP7 LT PUSH2 0x10C4 JUMPI PUSH1 0x1F ADD PUSH1 0x5 SHR ADD SWAP1 PUSH2 0x177F JUMP JUMPDEST CODESIZE PUSH2 0x1B8C JUMP JUMPDEST PUSH1 0x0 JUMPDEST DUP2 SLOAD DUP1 DUP3 LT ISZERO PUSH2 0x214F JUMPI DUP4 PUSH2 0x20F0 DUP4 DUP6 PUSH2 0x16EF JUMP JUMPDEST SWAP1 SLOAD SWAP1 PUSH1 0x3 SHL SHR EQ PUSH2 0x2105 JUMPI POP PUSH1 0x1 ADD PUSH2 0x20DB JUMP JUMPDEST SWAP2 SWAP3 POP PUSH1 0x0 NOT DUP3 ADD SWAP2 DUP3 GT PUSH2 0x729 JUMPI PUSH2 0x6F8 PUSH2 0x2124 PUSH2 0x2132 SWAP4 DUP6 PUSH2 0x16EF JUMP JUMPDEST SWAP1 SLOAD SWAP1 PUSH1 0x3 SHL SHR SWAP2 DUP5 PUSH2 0x16EF JUMP JUMPDEST DUP1 SLOAD DUP1 ISZERO PUSH2 0x6C5 JUMPI PUSH1 0x0 NOT ADD SWAP1 PUSH2 0x214C PUSH2 0x689 DUP4 DUP4 PUSH2 0x16EF JUMP JUMPDEST SSTORE JUMP JUMPDEST POP POP POP POP JUMP INVALID LOG2 PUSH5 0x6970667358 0x22 SLT KECCAK256 0xEF CALLDATACOPY DUP14 0xA7 0xAC 0x2D PUSH7 0xB05FBD450943D7 PUSH30 0x8702560EA9C09E2559639CFD480A73ADF764736F6C634300081C00330000 "},"methodIdentifiers":{"addRetirementCertificate(uint256,string)":"634b9f04","buyProject(uint256,uint256)":"ea6d685d","getListedProjects(address)":"54686d60","getMarketplace()":"0d21bcd5","getOwnedProjects(address)":"8d505263","getRetiredProjects(address)":"b8c6d9ea","listedProjects(address,uint256)":"2c8a8425","marketplace(uint256)":"d900175f","nextProjectId()":"e935b7b1","ownedProjects(address,uint256)":"e82128fe","projects(uint256)":"107046bd","registerProject(string,string,string,uint256,uint256,string)":"ff6c7702","resellProject(uint256,uint256,uint256,string,string)":"b14bf040","retireProject(uint256,uint256)":"9b2788e6","retiredProjects(address,uint256)":"9914d34d"}}}}}